:020000022000DC
:1070000000F003206D7302005573020057730200F5
:10701000597302005B7302005D7302000000000000
:107020000000000000000000000000005F7302008C
:1070300061730200000000006373020065730200C8
:1070400067730200677302006773020067730200D0
:107050006773020067730200257F020067730200F6
:107060006773020067730200D99703006773020019
:1070700067730200677302006773020067730200A0
:1070800067730200352E0400A5CF0200677302006B
:10709000992E04006773020039C803006773020069
:1070A0006773020067730200677302006773020070
:1070B0006773020067730200000000000000000018
:1070C0006773020067730200677302006773020050
:1070D0006773020067730200677302006773020040
:1070E000677302006773020067730200000000000C
:1070F00000000000677302000000000067730200D8
:10710000000000000000000000000000000000007F
:10711000000000000000000000000000000000006F
:10712000000000000000000000000000000000005F
:10713000000000000000000000000000000000004F
:10714000000000000000000000000000000000003F
:10715000000000000000000000000000000000002F
:10716000000000000000000000000000000000001F
:10717000000000000000000000000000000000000F
:1071800000000000000000000000000000000000FF
:1071900000000000000000000000000000000000EF
:1071A00000000000000000000000000000000000DF
:1071B00000000000000000000000000000000000CF
:1071C00000000000000000000000000000000000BF
:1071D00000000000000000000000000000000000AF
:1071E000000000000000000000000000000000009F
:1071F000000000000000000000000000000000008F
:10720000344935480A1A02D0072291438D46334942
:1072100033480A1A06D00722914381F309880222D3
:1072200082F314882F483049304A00F042F8304841
:107230003049314A00F03DF830483149314A00F0D8
:1072400038F831483149324A00F033F83148324990
:10725000324A00F02EF832483249334A00F029F819
:1072600032483349334A00F024F833483349002286
:1072700000F02AF832483349002200F025F832485D
:107280003249091A082902DB0022026041601F48C6
:107290001F49884205D00268043003B4904703BCFC
:1072A000F7E700208646EC4600200021284A904758
:1072B000FEE7884207D0521A05D0037801300B70E0
:1072C0000131013AF9D17047884202D00270013091
:1072D000FAE7704700F0032000E8032000F00320E5
:1072E00000F0032018540400002E00207C2E002003
:1072F000A0730200A073020062330400185404005B
:10730000002E0020002E0020B4360400B436040005
:10731000B4360400B4360400B4360400B4360400B5
:10732000B4360400B4360400165404009454040027
:107330007C2E00207C2E00207C2E0020E059002096
:10734000E0590020E0590020E0590020E05D0020D5
:107350004D7A0200FEE7FEE7FEE7FEE7FEE7FEE706
:10736000FEE7FEE7FEE7FEE700F002B8FFF7FCBF2E
:1073700008484FF00701884385460748804707487B
:10738000016841F470010160BFF34F8FBFF36F8F4D
:10739000FFF736BF00F0032035CC030088ED00E096
:1073A00041DF70470C4B1B6813F4804F03D00B4B2D
:1073B0001B68012B00DC704700B583B0084BD3F885
:1073C0000435084A009285220749022006F0D4FEBF
:1073D00003B05DF804FB00BF302E00202C2E0020EF
:1073E00000100140303704002637040010B586B085
:1073F0005068E0B11A4B1B6813F4804F03D0194B4F
:107400001B68032B01DC06B010BD174BD3F8043505
:107410004988147852780490039202940191134A97
:107420000092AD221249042006F0A6FEEBE70C4BB9
:107430001B6813F4804FE6D00A4B1B68032BE2DD78
:10744000094BD3F804354988127802920191094A10
:107450000092B2220649042006F08EFED3E700BF58
:10746000302E00202C2E002000100140B4370400E4
:10747000263704000838040000B583B0012A1FD065
:1074800053B24BB1022A35D0244AA021032015F073
:10749000C9FC03B05DF804FB214B1B6813F4804F5B
:1074A000F7D0204B1B68032BF3DD1F4BD3F80435BB
:1074B0001E4A009293221E49042006F05DFEE8E772
:1074C000062232214FF4F03000F09CFC144B1B6874
:1074D00013F4804FDDD0134B1B68032BD9DD124B07
:1074E000D3F80435134A009298221149042006F07B
:1074F00043FECEE70A4B1B6813F4804FC9D0094BFB
:107500001B68032BC5DD084BD3F804350A4A0092EB
:107510009C220749042006F02FFEBAE7CC3604006F
:10752000302E00202C2E0020001001405037040087
:1075300026370400703704009037040030B587B058
:107540000446574B1B6813F4804F03D0554B1B6800
:10755000032B05DC032C12D8DFE804F00E2A0E2AD8
:10756000514BD3F804350190504A0092C82250493B
:10757000042006F001FEEDE701238DF814304D4A9A
:107580001378591C11708DF815303223049364233D
:107590000393434B1B6813F4804F03D0414B1B688C
:1075A000032B09DC032C4DD8DFE804F01414303031
:1075B00000238DF81430E2E73B4BD3F804359DF8F7
:1075C000142001923C4A0092E3223949042006F03B
:1075D000D3FDE7E7394D28880EF0F6FE03AA05A98A
:1075E00028461BF085F805469DF814100D2000F084
:1075F000EFFB112D4BD8DFE805F0254A4A4A164A21
:107600004A34164A4A4A4A4A4A4A4A16022303AAAE
:1076100005A92B481BF0AAF805469DF814100E206A
:1076200000F0D6FBE5E71E4B1B6813F4804F03D038
:107630001C4B1B68032B07DC062232214FF4F03071
:1076400000F0E0FB07B030BD174BD3F804350194D0
:107650001C4A009240F201121549042006F08CFDEC
:10766000EAE70F4B1B6813F4804FEBD00D4B1B6800
:10767000032BE7DD0C4BD3F804350194124A00923A
:1076800040F20D120A49042006F076FDDAE7002DDB
:10769000D8D00E4A40F21111284615F0C3FBD1E7AD
:1076A000302E00202C2E0020001001403438040021
:1076B00026370400E52E0020483804007C2E0020E8
:1076C000B02E0020643804007C380400CC3604005E
:1076D0003038032800D9704708B5FFF72FFF08BDE1
:1076E00000B58DB02022002103A81BF0D5FD012399
:1076F0008DF80C3007238DF80F3006238DF81430E9
:10770000144B0793144B0B93144903A80AF0C0F9C8
:10771000B8B10B2814D1124B1B6813F4804F10D052
:10772000104B1B68032B0CDD0F4BD3F804350F4AAD
:10773000009240F23D120E49042006F01DFD00E0CB
:1077400010B90DB05DF804FB0A4A4FF4A17115F0B1
:1077500069FBF6E7F978020015780200E42E0020B4
:10776000302E00202C2E002000100140E4380400B0
:1077700026370400CC36040000B583B01D4A04212E
:1077800046F2010006F0DCFC1B4B1B6813F4804F33
:1077900003D01A4B1B68032B13DC1BF081FBE0B9F1
:1077A00000F074FB164800F091FBE0B900F05AFDC0
:1077B00000F074FD00F0A0FDFFF792FF03B05DF84C
:1077C00004FB104BD3F804350F4A009240F24912E3
:1077D0000E49042006F0D0FCDFE70D4A40F24B11C1
:1077E00015F020FBDCE70A4A40F24F1115F01AFBB6
:1077F000DCE700BF15E10200302E00202C2E002017
:107800003D75020000100140B43804002637040022
:10781000CC36040010B582B0194B1B6813F4804FAE
:1078200003D0184B1B68032B01DC002411E0164B1E
:10783000D3F80435154A009240F22112144904206D
:1078400006F09AFCF1E7134A4FF4957115F0EAFA45
:107850000134012C12D8104B342000FB04300F4BA4
:1078600003630023836280F82C3080F82D30611C84
:10787000C9B21AF003FF0028EAD0E4E702B010BD55
:10788000302E00202C2E002000100140343904003E
:1078900026370400CC3604007C2E0020A8380400D3
:1078A00000B583B00F4B1B6813F4804F03D00E4B11
:1078B0001B68032B0ADC0322C8214FF4F03000F0D0
:1078C000A1FA0AF039F903B05DF804FB074BD3F8CD
:1078D0000435074A0092B8220649042006F04CFC01
:1078E000E9E700BF302E00202C2E002000100140C0
:1078F000543904002637040008B503781C2B00D047
:1079000008BDFFF7CDFFFBE730B587B0642119480C
:1079100000F0F8F9184B1B789BB100F00BFE00F05B
:1079200037FB0AF0FBF8F8B900214FF4F03000F013
:107930005EFA0222C8214FF4F03000F063FA07B07B
:1079400030BD6C460D4D0FCD0FC495E8030084E8A3
:107950000300684600F074F90028DED0084A4FF4AE
:10796000B67115F05FFAD8E7054A40F2711115F0CB
:1079700059FAD9E7D1760200E42E0020B43604008B
:10798000CC36040010B5044600214FF4F03000F06E
:107990002EFA04EB8404620032214FF4C03000F070
:1079A00031FA10BD08B500F063FA08BD00B585B026
:1079B000204B1B6813F4804F03D01F4B1B68032B15
:1079C0001FDC00F06BFC00F097FC03A810F0C2F87D
:1079D000184B1B6813F4804F03D0174B1B68032B05
:1079E0001ADC00F045FA00214FF4F03000F0FFF906
:1079F0000422C8214FF4F03000F004FA05B05DF81D
:107A000004FB0E4BD3F804350D4A009270220D4949
:107A1000042006F0B1FBD4E7084BD3F80435BDF8D9
:107A20000C200192084A00927B220649042006F0AD
:107A3000A3FBD6E7302E00202C2E002000100140A2
:107A400070390400263704008C39040008B5FFF7AC
:107A500093FEFFF759FFFFF7A3FCFCE72B4B1B78C6
:107A6000002B52D000B585B0012804D0032845D0A2
:107A700005B05DF804FB0023029302A9012014F075
:107A800089FD40BB02A814F0D7FD38BB0123039346
:107A900003A90DF1060010F0A9FD10BBBDF806000A
:107AA00010F020FA0DF1050110F0BEFBE0B90BF06B
:107AB0009BFA9DF8051000200BF062FDB8B904F0A8
:107AC00019F8C0B9114B00221A70114B1B68002B1A
:107AD000CED09847CCE715F097F9D3E715F094F995
:107AE000D4E715F091F9D9E715F08EF9DFE778467C
:107AF00000F0E2FCE3E715F087F9E3E714F012FE8B
:107B00000028B5D015F080F9B2E77047E82E0020C4
:107B1000EC2E002008B5064B01221A70054804F02F
:107B200053F804F033F800B908BD15F06DF9FBE720
:107B3000E82E0020002E002008B503781C2B00D072
:107B400008BD074B1B78002BFAD014F02FFE18B994
:107B5000044804F03DF8F3E715F056F9F8E700BFE4
:107B6000E82E0020002E002008B50849084815F02E
:107B7000F1FD034608B1184608BD0323002205495C
:107B80000969054815F002FE0346F4E7042F0020BA
:107B900070320020EC2E00203C31002008B5037824
:107BA000023B082B3FD8DFE803F01C05113E3E2CBA
:107BB0003E3E36001E4B5B68002B34D0007A002816
:107BC00031D01C4A0121117098472CE0184B9B685A
:107BD0004BB3184A127832B3164A002111709847F5
:107BE00021E0154B1B784BB9114BDB681BB1114AD7
:107BF000002111709847FFF7B7FF14E0FFF78AFFE5
:107C000011E010220A4B59690C4815F04FFE50B193
:107C100015F0FAF807E08168C06809F0CDFE18B9E0
:107C2000054B01221A7008BD15F0EEF8F8E700BF09
:107C3000EC2E0020E62E0020E72E00203C31002014
:107C400070B586B004461F4A03AB07CA03C323F8C6
:107C5000022B120C1A701C4E35460FCC0FC594E83F
:107C6000030085E80300736953B3184B009303AB1B
:107C7000174A1849184815F029FD034610B118464F
:107C800006B070BD154817F037FA0146124815F0D6
:107C900049FD03460028F2D1114817F0A9FB03461D
:107CA0000028ECD10E4817F0D9FB01460A4815F020
:107CB00039FD03460028E2D1FFF756FF0346DEE711
:107CC0000723DCE7D0390400EC2E00209D7B020066
:107CD000042F0020703200203C310020242F00208F
:107CE000EC30002008B5064B1B683BB112F0EAFEF1
:107CF000002803DB024B1B689847F7E708BD00BF6D
:107D0000B032002010B50C46144B1860144A012103
:107D100014481BF0FDF878B9610CE00341F26F7272
:107D200000238B4208BF82420BD24FF47A720023A9
:107D30001BF042F9014605E00B4A4A2115F072F8A2
:107D4000EAE70521002209481BF0F8F800B910BD48
:107D5000054A4B2115F066F8F9E700BFB032002064
:107D6000E57C0200DC390400E0390400B432002074
:107D700008B5134B1B6873B14FF0A042D2F804351D
:107D8000104909684B40C2F804350D4A1368013B9D
:107D9000136023B108BD002015F036F8ECE70A485F
:107DA0001BF0EEF84FF0A042D2F8043505490968FF
:107DB00023EA0103054909680B43C2F80435E9E7E2
:107DC000D4320020D8320020DC32002004330020DE
:107DD00031B1012383404FF0A042C2F80C35704707
:107DE000012383404FF0A042C2F80835704721B10B
:107DF0004FF0A043C3F80C0570474FF0A043C3F801
:107E0000080570475AB338B51346132900D838BD52
:107E1000134A10605B00013B124A13604FF0A0430D
:107E2000D3F804351840104B186000254C0CC803DB
:107E30004FF47A72002310F5FA7044EB05011BF041
:107E4000BBF82A46014609481BF078F80028DED125
:107E5000034B1A684FF0A043C3F80C25D7E77047CF
:107E6000D8320020D432002004330020DC3200203D
:107E700008B504481BF084F80021034B1868FFF78D
:107E8000B6FF08BDDC320020D832002008B50D2333
:107E90000BE04FF0A04103F5E072032041F822000F
:107EA00001229A40C1F808250133102BF1D9054A67
:107EB000012105481BF02CF800B908BD14F0A4FFFF
:107EC000FBE700BF717D02003C3A0400F0B1104AAC
:107ED0001060002309E00F4AD25C02F5E0724FF017
:107EE000A0410D4841F822000133032BF3D90B4B7D
:107EF0004FF00042C3F804230020C3F87C01084B74
:107F0000C02283F8062340221A6070470E20704773
:107F1000FC320020403A04000C00030000600040E6
:107F200000E100E010B50024144BC3F87C4103E0ED
:107F3000D11A14E00134E4B2032C1ED84FF0A04350
:107F4000D3F810250E4B195D01238B409343F1D0DC
:107F50000C4B1B680C4AD2F80425991AE8D443F25A
:107F600033339942E6D9084BD3F80425054B1A6000
:107F7000064B1B6820469847DCE710BD00600040B8
:107F8000403A04000033002000100140FC32002081
:107F9000002869D02DE9F043CFB00646334B1B686B
:107FA00013F4804F03D0324B1B68032B0BDC2F4B99
:107FB0001B6813F4804F03D02D4B1B68032B2ADC66
:107FC0004FB0BDE8F08300230F2B0FD8F25C294996
:107FD0000D6810095900285C0DAC04F8130002F07C
:107FE0000F020131AA5C62540133EDE70DAA0023B0
:107FF0008DF8543003F1804303F58833D3F804350A
:1080000002921D4A01921D4A009241221C490420FD
:1080100006F0B2F8CBE71B4BD3F80435B288F188F1
:10802000307A747AB57AF77A96F80CC096F80DE043
:1080300096F80E8096F80F90CDF82C90CDF8288009
:10804000CDF824E0CDF820C007970695059404905C
:1080500003910292326801920B4A0092462208492B
:10806000042006F089F8ABE7704700BF302E0020EF
:108070002C2E0020342E0020A43A0400B83A04002C
:10808000913A040000100140C03A040072DF7047CA
:1080900073DF704774DF70472DE9F047A2B00746E1
:1080A00088469146314C0026C4F80660E681304986
:1080B0000B78C3EB43102F4D054425602E4A024434
:1080C000A2601F22A280A281013303F001030B7082
:1080D0004FF03C0A5246314613A81BF0DDF8062348
:1080E0008DF84F30ADF8487001238DF84A30ADF867
:1080F0005C3012AA1892ADF83C70ADF84090CDF803
:1081000044800DEB0A021D928DF8783052463146BC
:1081100068461BF0C1F802238DF80030221D294665
:1081200013A814F02BF990B9104B03F10C029968C5
:10813000684614F023F968B9104A0C491048FFF753
:10814000A5FF082809D070B922B0BDE8F08714F067
:108150005BFEE9E714F058FEEEE700220349084809
:10816000FFF794FFEFE714F04FFEEDE74C330020EC
:10817000083300200C3300205C330020102E002038
:108180000C2E0020B0F5202F04D2074BA3FB0023B8
:10819000DB0801E04FF6FF7308B103B90123034A7E
:1081A00093819160704700BFCDCCCCCC102E0020C5
:1081B00008B50121054B1878FFF76AFF18B90020B0
:1081C00004F0F8FB08BD14F01FFEF8E70C2E0020A9
:1081D00008B5044B1878FFF75DFF00B908BD14F02F
:1081E00013FEFBE70C2E002076DF70477ADF704726
:1081F0007CDF704708B514F007FE08BD08B503F032
:10820000EBFC08BD00B583B0037823B1012B0BD084
:1082100003B05DF804FB3B214088FFF7E5FF002831
:10822000F6D014F0F1FDF3E7094B1B6813F4804F0F
:10823000EED0084B1B68032BEADD074BD3F804355F
:10824000064A009268220649042005F095FFDFE700
:10825000302E00202C2E0020001001407C3B04001A
:10826000613B040000B583B014F05CFA68B90023E8
:10827000019301A9012014F08DF948B901A814F067
:10828000DBF940B903B05DF804FB14F0BDFDEEE787
:1082900014F0BAFDF2E714F0B7FDF3E700B585B0CE
:1082A0009DF80C30012262F3030362F307138DF88B
:1082B0000C3011220F4903A8FFF79AFF98B9002349
:1082C000ADF808307823ADF80430C823ADF8063097
:1082D0004FF4C873ADF80A3001A8FFF787FF28B93B
:1082E00005B05DF804FB14F08FFDE8E714F08CFD99
:1082F000F6E700BF003B040000B58BB00023ADF8EB
:1083000008307822ADF80420C822ADF806204FF4DA
:10831000C872ADF80A200693079301AB039340F6A9
:10832000CD4304934FF48033059303238DF8183025
:10833000064B0893064B099303A814F0D9FB10B918
:108340000BB05DF804FB14F05FFDF9E70582020055
:10835000F58102000620704700B587B041F20103A5
:1083600098424CD020D944F2010398425DD044F2A7
:108370000203984274D1464B1B6813F4804F1ED001
:10838000444B1B68002B1ADD434BD3F8043510888F
:108390000390526802920191404A00926C22404937
:1083A000012005F0E9FE0AE0012859D1384B1B688D
:1083B00013F4804F03D0374B1B68002B12DC4FF0B7
:1083C000A0434FF4F032C3F81825C3F80C25EFF39F
:1083D000108372B64DF6AD6C324B1B78002B54D027
:1083E00030BFF9E72C4BD3F80435029201912E4AA5
:1083F000009260222A49012005F0BEFEDFE7244BEF
:108400001B6813F4804FDAD0224B1B68002BD6DD9B
:10841000214BD3F8043502920191244A0092632241
:108420001F49012005F0A8FEC9E7194B1B6813F48A
:10843000804FC4D0174B1B68002BC0DD164BD3F800
:10844000043510680490506803900291926801927C
:10845000174A009277221249012005F08DFEAEE7FF
:108460000B4B1B6813F4804FA9D00A4B1B68002BE1
:10847000A5DD094BD3F8043501910E4A00927B2209
:108480000749012005F078FE99E707B05DF804FB85
:10849000302E00202C2E002000100140483C04000B
:1084A000F53B0400282E0020083C0400243C040076
:1084B000683C04008C3C040000B583B00023ADF898
:1084C0000030054B01936A46014644F20200FFF773
:1084D00043FF03B05DF804FB883C040010B403467E
:1084E000044C006859689A68DB680FC45DF8044B57
:1084F000704700BF9C3300200B4B0C4A92E80300EE
:1085000083E8030003F10802094903C982E8030074
:10851000DA79042161F30712DA711A7A022161F320
:1085200087121A72704700BF9C3300206000001051
:10853000A4000010004870479C33002000231F2B2C
:1085400009D8074901EBC30000224280426001F8CC
:1085500033200133F3E7034B00221A60704700BF5A
:10856000AC330020AC34002030B405460F4B1B6800
:1085700000240AE01F230E4A12F83300A0B102EBD8
:10858000C3025288AA4207D001341F2C0BD85A1EAE
:10859000002BEFD01346EEE7054A02EBC302526808
:1085A0008A42F1D100E0002030BC7047AC3400209A
:1085B000AC33002030B40A4A13680A4C04EBC305FC
:1085C00068806960012104F833100B441360202B8C
:1085D00001D030BC7047134600221A60F9E700BF93
:1085E000AC340020AC330020F0B416461F46002304
:1085F00000E00133072B0ED81901084C615A814263
:10860000F7D104EB0312D2E90245BD4208BFB442E0
:10861000EFD1012000E00020F0BC7047B034002012
:108620002DE93008C1698269C3884FEA112C4FEAED
:10863000016BC2F30C01994217D25B1A1344A3F5E4
:1086400000531BEB03044CF10005094A1368591C45
:10865000116003F00703808A064A1B01D118D0522B
:10866000C1E90245BDE8300870475B1A1344E8E7EA
:1086700030350020B0340020C37D002B42D0C378B9
:108680000A7802F0800203F07F0313430B70027834
:108690000B7803F07F0343EAC2130B700378002BBF
:1086A00041D030B48378082B14BF002201224B78CC
:1086B00003F07F0343EAC2134B70C58803F08003C5
:1086C000C5F3861423434B708A7802F0030242EA12
:1086D0008502D2B28A70057A02F0FC02C5F3C104A9
:1086E00022438A70CB7803F01F0343EA4513DBB2C1
:1086F000CB70427A03F0E00302F01F021343CB7009
:1087000030BC7047C3780A7802F0BF029B0103F0C7
:10871000400313430B70027903F0C00302F03F02E1
:1087200013430B70B3E770470023032B2DD810B40D
:1087300002E00133032B24D8C3EBC3021401144A13
:10874000224492F84820012AF3D1114A2244948A03
:10875000C2899442EDD1C3EBC30214010C4A2244F6
:10876000D2888A42E5D10A4A2244B2F8582012B18E
:10877000848AA242DDD1C3EBC3031A01044810442A
:1087800000E000205DF8044B70470020704700BFF8
:108790005C350020002300E00133032B14D8C3EB29
:1087A000C3021101094A0A4492F84820022AF3D16F
:1087B000064A0A44918A828A9142EDD1C3EBC303EF
:1087C0001A01024810447047002070475C350020B1
:1087D00008B9042070470820704730B403460C469F
:1087E0000978C17000214162A1680B2903D8217B5F
:1087F00001B3012100E0012119700020987029B116
:10880000A1680731C9080139597218720121D97557
:1088100003F10C0504F1100103C985E80300E189A7
:108820009982A1691962217F9975216AD9629A6238
:1088300030BC70470021DFE70021174B1B688B42DB
:1088400027D90023154A02EBC10252689A421ED969
:1088500010B40FE060685DF8044B704701310E4BB7
:108860001B688B4211D900230C4A02EBC1025268EB
:108870009A42F3D9094A52F8312002EBC30412F8A4
:1088800033208242E6D00133EEE70020E3E70131F6
:10889000D3E70020704700BF343500203835002072
:1088A00070B58CB006460D4614462C22002101A856
:1088B0001AF0F2FC0F238DF80430ADF808604FF089
:1088C000000365F300038DF80A308DF80B4001A812
:1088D00001F0E8F90CB070BD30B58DB005460C461E
:1088E0002C22002101A81AF0D7FC10238DF80430A7
:1088F00002958DF80C4001A801F0D4F90DB030BDFF
:1089000000B58DB010B913F1020F06D1074B1868EE
:1089100004F078FA0DB05DF804FB01218DF8041025
:108920000293039201A801F0BDF9EFE74035002062
:10893000F8B5069C002962D00F4616685568D2F833
:1089400008E0D2F80CC0E6602561C4F814E0C4F871
:1089500018C016695569E6612562002262700278C6
:10896000D209227062B30421B9424AD8E57D4DB3E1
:10897000017801F07F01E1700021A1709AB1427885
:10898000920102F4FE52817842EA9102E2808278FA
:10899000D20002F01802C17842EA51122272C27863
:1089A00002F01F0262721D46002363622B78032BC4
:1089B00021D82A78144B53F82230E3620020F8BD06
:1089C0000121D1E70578C5F38015E570057805F03C
:1089D0003F05257142B190F90110002902DB042105
:1089E000A170CBE70821FBE70425A5702944B94213
:1089F000C4D90920E3E77846FFF75EFDD9E70920EF
:108A0000DDE70920DBE700BFA83C040070B50C4699
:108A10001E460378ABB104252A44A26000F10C0382
:108A20002360836A6360C36AE36000232374204683
:108A300004F064FD034610B96269154435601846B8
:108A400070BD0125E8E72DE9F0418EB00D461646D0
:108A50001C46804600282DD0002D2FD0002C31D070
:108A6000636A0233059304F10C00E378002B2DD0E8
:108A70000121A27801AF3B46082A14BF002201223F
:108A800004F005FB0697CDF81C80B2B2ADF82020AB
:108A90000B9515440C95A3788DF83430237B022B6D
:108AA00016D00023ADF8283005A804F0E8FA0EB07F
:108AB000BDE8F0817846FFF7FFFCCDE77846FFF789
:108AC000FBFCCBE77846FFF7F7FCC9E70221D0E7CC
:108AD00023692BB1236909931023ADF82830E3E70C
:108AE0007846FFF7E9FCF5E72DE9F04188B0044648
:108AF0000D46C37D002B3CD0082605FB06F8637AA3
:108B0000AB4238D0257201AB324602A92046FFF7AE
:108B10007DFF074648BB4DB994F8533033B9A3697C
:108B2000C3F30C03E380012384F85330E37D7BB966
:108B300094F8523063B91DBBB4F84A10A2782346AA
:108B40008A1AE16E0846FFF77EFF012384F852304F
:108B500007992046FFF790FDE16E324641440198A7
:108B60001AF071FB02A804F0EFFC384608B0BDE82B
:108B7000F0810C26C1E7B4F84A60A6EB0806C1E70D
:108B80007846FFF799FCD7E770B505460E4609B160
:108B900000230B6095F85040002104E0631C85F829
:108BA00050300134E4B26B7AA34210D3EA6C012353
:108BB000A3401A42F5D121462846FFF795FF01460A
:108BC00028B9002EEAD0336801333360E6E708465F
:108BD00070BDF0B589B085781544C37D7BB10B239A
:108BE0009D4224D816460F46044601AB2A4602A9E8
:108BF000FFF70CFF054620B1284609B0F0BD0F2352
:108C0000EEE707992046FFF737FDE37D43B1324693
:108C1000394601981AF017FB02A804F095FCEBE71F
:108C20002346324601993846FFF70DFFF4E7092540
:108C3000E2E7000010B5044690F84830012B0CD153
:108C400003F094FA237B012B0BD0094BD968014424
:108C500004F1300003F060FA10BD7846FFF72CFCF9
:108C6000EEE7A37D024AD168126902FB0311EEE729
:108C70004435002030B583B0002403E02846FFF7D8
:108C8000D9FF0134032C19D8C4EBC4031A010C4BCF
:108C9000134493F84830012BF3D100230193C4EB24
:108CA000C4021301064D1D4401A92846FFF76CFFBD
:108CB0000428E3D0019B002BE3D0DFE703B030BDF5
:108CC0005C35002038B5044690F84830022B09D1B5
:108CD000064B1D6803F04AFA411904F1300003F015
:108CE0001BFA38BD7846FFF7E7FBF1E74435002073
:108CF00038B5044690F84830022B10D10A4B5D7D00
:108D00005A689B6803FB052503F030FA411904F10A
:108D1000500003F001FA012384F8683038BD78462A
:108D2000FFF7CAFBEAE700BF4435002010B5044650
:108D3000808A02F0E3FD01281CD1237BE3B194F982
:108D40001620002A1ADBE27D4AB1022B18D094F9D2
:108D50000330002B16DBA378B3B900200BE0E278D8
:108D60000AB9012B12D1237893B9A378042B11D11E
:108D7000002000E0102010BD1020FCE70720FAE7DB
:108D80001020F8E70720F6E70720F4E70720F2E7CE
:108D90000020F0E70720EEE738B5044603784BB132
:108DA000C388C2698169808A06F0D2FB054645B94D
:108DB000284638BDC2698169808A06F0C3FB054632
:108DC000F5E7E169002201F00101A08AFFF768FDE3
:108DD000EEE700002DE9F04780460E4617464B1E91
:108DE000DBB2012B0FD8B7F5C07F10D80024032CBD
:108DF0001AD8C4EBC4031A01304B134493F848301B
:108E00004BB10134F3E77846FFF756FBEBE77846C2
:108E1000FFF752FBEAE7DFF8A4A0154655443846B1
:108E200008F0B1FDE86600E000255DB3EB6E002BB5
:108E300042D043462A4608F1300ED3F800C05C68A1
:108E40009868D968C2F800C054609060D16010334F
:108E500010327345F1D10023EB64A5F84A70012E5E
:108E600013D06FF00103AB62002385F86830144B18
:108E7000AB652D66134BAB632D64012002F01AFA2B
:108E800085F848602846BDE8F0870F4B1B7D85F8C4
:108E90005130002385F8523085F8533085F8503032
:108EA000D8F828206A65A5F858306FF00103AB6246
:108EB000064BAB632D64E0E70025E3E75C3500205B
:108EC000A79802000592020044350020519202004A
:108ED00000B585B000238DF80F3098B103460846E1
:108EE00002330B600DF10F0104F0CDF89DF80F3047
:108EF00043B10D4B1B6813F0040F03D00B4B1B68E1
:108F0000032B04DC9DF80F0005B05DF804FB084B53
:108F1000D3F80435074A009240F20642064904207D
:108F200005F02AF9EEE700BF302E00202C2E00209D
:108F300000100140D83D0400CB3D04002DE9F04372
:108F40008FB004460E4615461F46D0F818800378A9
:108F50004BB1C388C8F30C029A4241D29B1A4344D6
:108F6000A3F50053A36104F10C00E378002B3AD081
:108F70000121A2780DF128094B46082A14BF0022CE
:108F8000012204F084F8C4F81880CDF80890039604
:108F9000A378EA1A92B2ADF81020324408920797EB
:108FA0008DF824300023ADF81830E3787BB3237BB1
:108FB000022B1AD02546002345F8243F2A46217962
:108FC000206A0FF02BFE606AA8B101A9FFF780FFAD
:108FD000002841D12A462179206A0FF01FFEF2E7CE
:108FE0009B1A4344BEE70221C3E71023ADF81830B3
:108FF00023690593DEE7237B022B31D104F10C01B9
:10900000E0890FF0BDFE0028D1D1052025E0237BAB
:10901000012B01D0052020E0E389ADF80030A38AC0
:10902000ADF80230002500E00135012D12D82146AF
:10903000002341F8243F0EAB03EB450333F8380C13
:109040000FF009FE01A9606AFFF742FF0028EBD08C
:10905000002002E0052000E000200FB0BDE8F08312
:109060000520FAE770B5F0B00D4614461E4610AB69
:109070000A4601462046FFF761FF50B1224B1B68AC
:1090800013F0040F03D0214B1B68052B2FDC70B0AD
:1090900070BD2046FFF780FE0028F8D103AB012207
:1090A0008DF80C20A28AADF80E20002204928DF8D3
:1090B000142010AA0692A278AD1AADF81C5008AA86
:1090C00093E8030082E803000AAB04F10C0292E883
:1090D000030083E80300A37D8DF83830236A0C93E6
:1090E000636A0D930F9605A800F0DCFDCFE7084BEF
:1090F000D3F80435074A009240F2F262064906208E
:1091000005F03AF8C3E700BF302E00202C2E0020D7
:1091100000100140283E0400CB3D040010B5044679
:10912000C06E08F034FC04F1300002F0DDFF94F86A
:109130004830022B0AD07022002120461AF0ACF8E9
:10914000002084F8480002F0B5F810BD04F150008A
:1091500002F0CAFFEFE710B58CB0044690F8483033
:10916000012B0CD101238DF80430636D029301A80B
:1091700000F098FD2046FFF7D1FF0CB010BD7846F7
:10918000FFF79AF9EEE7000030B585B00D460446CA
:10919000A8B194F84830022B15D02946606DFFF72E
:1091A0009BFB2046FFF7BAFF114B1B6813F0040F1F
:1091B00003D0104B1B68032B09DC05B030BD78468B
:1091C000FFF77AF9E5E72046FFF72AFAE5E70A4BC9
:1091D000D3F8043594F8482002950192074A00928A
:1091E0004FF4FA720649042004F0C6FFE5E700BF19
:1091F000302E00202C2E002000100140C83C04001E
:10920000CB3D040008B508460021FFF7BDFF08BDAF
:1092100008B5037B012B02D0FFF79DFF08BD01219C
:10922000FFF7B2FFFAE7000008B590F8513053B1EC
:10923000013B80F85130002380F85030034B186810
:1092400003F0E0FD08BDFFF7E3FFFBE7403500203A
:1092500010B50C4691F84830012B03D12046FFF79A
:10926000E3FF10BD7846FFF727F9F7E7062976D127
:10927000F0B585B015460278910101F4FE514778AA
:109280008478C3781B0443EA0463047943EA042323
:1092900044791C4356B241EA97012846FFF744FA45
:1092A0000746E0B1002E2FDBC289A98A8A422BD063
:1092B0002B4B1B6813F0040F3ED02A4B1B68012B6D
:1092C0003ADD294BD3F8043502910192274A0092E6
:1092D0004FF4CE622649022004F04EFF2CE0204BD2
:1092E0001B6813F0040F27D01E4B1B68012B23DDD6
:1092F0001D4BD3F804351F4A00924FF4CD621C4930
:10930000022004F039FF17E0002E17DBFD6C254327
:10931000FD64BCB13B78D3B17B7A5A1C01239340E6
:10932000013B9D4217D0002187F850103846FFF7C7
:109330002BFC3846FFF77EFC05B0F0BDAB8AA7F8E2
:109340005830E3E703213846FFF71EFFF4E778467D
:10935000FFF7B2F8E0E73846FFF7FDFEECE77047AD
:10936000302E00202C2E002000100140303D040043
:10937000CB3D0400003D04002DE9F0438BB00746CF
:109380000E4614461D461046FFF706FD50B994F8E8
:109390000380B8F1000F08D12B46224631463846EB
:1093A000FFF764FF0BB0BDE8F0834046FFF744FAD7
:1093B00081460028F6D08DF80480236A0793A38A9B
:1093C000ADF8123005AB04F10C0292E8030083E81B
:1093D0000300A37D8DF820300297039623788DF843
:1093E0001030E36A0993294601A8C847DAE710B5A7
:1093F000547814F0010F03D0D47D14B1FFF7BCFFF3
:1094000010BDFFF72FFEFBE708B501390130FFF76C
:10941000EEFF08BDF0B5C7B086781644C37D2BB10A
:109420004FF48073B3427ED3002303E04FF4C07344
:10943000F8E70133032B19D8C3EBC30425013C4CD7
:109440002C4494F84840012CF3D1394C2C44A58A83
:10945000848AA542EDD1C3EBC3042501344C2C44CE
:10946000E589C489A542E4D1082455E014460F4695
:1094700032460121FFF7AEFC0546002855D02246B2
:109480003946C06E19F0DFFE0023459345A92846F2
:10949000FFF77AFB044608B1042840D1459B7BB90D
:1094A000244B1B6813F0040F35D0234B1B68032B90
:1094B00031DDB5F84A70802F28BF8027002313E0E4
:1094C0002846FFF7B7FBEBE7EA6ED25C1B490C6856
:1094D00010095900265C04A800F8136002F00F027E
:1094E0000131A25C42540133BB42EDD304AA0023F4
:1094F00002F8173003F1804303F58833D3F80435BD
:1095000002920F4A01920F4A009240F255520E49C0
:10951000042004F031FE0024204647B0F0BD284668
:10952000FFF7FCFDF8E70924F6E70424F4E700BFA1
:109530005C350020302E00202C2E0020342E002000
:10954000743D0400B83A0400CB3D040070B50446F5
:109550000D461646FFF7EAFB034638B923783BB1C0
:10956000324629462046FFF755FF0346184670BD90
:10957000324629462046FFF72CFB0346F6E700005B
:1095800038B504460D46CB695B780371CB691B780F
:1095900083F00103C370CB6943628B8A0B2B07D81E
:1095A000CB7A002B35D10B7B012B02D0002300E0BE
:1095B00001232370002B31D0287B02282BD0FFF70A
:1095C00007F9A070AB8A03440B33174880FB0323D1
:1095D0005B10013B6372002323720023E37504F1E7
:1095E0000C0395E8030083E80300AB6923622B8931
:1095F000A382AB7AA3752B6AA362DF23E3622846BA
:109600000FF0ECFB20B12B78012B0AD0FF23E36293
:1096100038BD0123CDE7054B987DD0E70423A37027
:10962000DBE72023F3E700BFABAAAA2A44350020DA
:1096300010B54FF4E0720021134819F02DFE06F02A
:109640004FF90024114B1C6080222146104819F06C
:1096500023FE104B104A1A60104A5A604CF25032E6
:109660009A600F49D9601A6104221A759C75082204
:109670005A750C4803F0A6FB0B4B18600B4B1C6093
:109680000B4806F027FA10BD5C350020303500206D
:10969000B03400204435002080969800F049020044
:1096A00020A10700999802004035002034350020A1
:1096B0000189020008B505F03DFF08BD98B110B55D
:1096C0008CB00446036983B1C36983B1836983B1F4
:1096D00001466846FFF754FFA28A21696846FFF7F2
:1096E00035FF0CB010BD0E2070470E20F9E70E209C
:1096F000F7E70E20F5E7000058B310B590B0044628
:10970000426842B3826942B30A46014604A8FFF7A1
:1097100064F8134B1B6813F0040F03D0114B1B6844
:10972000062B06DCA268616804A8FFF70FFF10B0E3
:1097300010BD0D4BD3F804352278A1690291019236
:109740000A4A009240F2F5720949072004F014FD1C
:10975000E8E70E2070470E20E9E70E20E7E700BF9C
:10976000302E00202C2E002000100140EC3D040083
:10977000CB3D0400037B012B01D00020704730B5A6
:109780008FB00D4604462C4B1B6813F4007F03D0AA
:109790002A4B1B68032B3EDC02A900230393CDF860
:1097A0000F30E288C2F3861092008DF809202A0E4D
:1097B0008DF80A202A0C8DF80B202A0A8DF80C202F
:1097C0008DF80D506278022A14BF0022012240EA6F
:1097D000C2128DF808200622079201228DF824205B
:1097E000A28AADF826200A938DF814300691226AD9
:1097F0000B928DF82030E389ADF82230E36A0D93A7
:10980000A37DA3B98DF830306FF0010105A8FFF7F3
:1098100073FF0FB030BD0A4BD3F80435094A0092EC
:1098200040F262220849042004F0A6FCB4E7074B8A
:109830005B7D8DF83030E7E7302E00202C2E0020A5
:1098400000100140B83C0400CB3D0400443500202A
:1098500090F84830022B00D0704790F86830022B07
:10986000FAD110B50446C16CFFF784FF10B900238C
:1098700084F8683010BD000010B5002407E0C4EB88
:10988000C402130103481844FFF7E2FF0134032C1C
:10989000F5D910BD5C35002008B5FFF7EBF9FFF7EF
:1098A000EBFF012008BD10B50C4691F84830022BA3
:1098B00006D1022384F868302046FFF7C9FF10BDA7
:1098C0007846FEF7F9FDF4E72DE9F04383B004464E
:1098D000C5698269C388290A2806C2F30C05AB4210
:1098E00034D95B1B1344A3F50053C61841F100079C
:1098F00032463B46A08AFEF777FE002840F08D8076
:109900002046FEF747FF054658B3D0F81CC08269D1
:10991000C3884FEA1C294FEA0C68C2F30C0C9C4523
:1099200017D2A3EB0C031344A3F5005318EB030069
:1099300049F10001B94208BFB0420ED38F4208BFBF
:10994000864231D3284603B0BDE8F0835B1B134445
:10995000CBE7A3EB0C031344E8E705212846FFF708
:1099600013FCE388E269A169A08A05F0B5FEE8B9B5
:10997000627A531CE17D99B3082202FB03F289B39A
:109980004FF48073934230D302212046FFF722FA2E
:1099900005460028D6D100212046FFF7EBFE022124
:1099A0000020FEF799FFCDE70025CBE7E388E269C9
:1099B000A169A08A05F00EFF60B1237863B1617AD6
:1099C0004B1C0121994001392046FFF7D3FE204668
:1099D000FFF7E2F90025B5E77846FEF76DFDEEE703
:1099E0000C22CAE74FF4C073CCE70D4B1B6813F091
:1099F000040F03D00B4B1B68002B01DC0025A1E7F3
:109A0000094BD3F804350192084A00924FF45C7276
:109A10000749012004F0B0FBF0E7002592E700BF02
:109A2000302E00202C2E002000100140EC3C0400C1
:109A3000CB3D04002DE9F04182B00646884615462C
:109A40001F461046FFF740FF002847D00446414B11
:109A50001B6813F0040F03D03F4B1B68032B40DC43
:109A60002046FFF72FF9237B012B48D0E16C2A7A9F
:109A700001239340194231D10B43E364A8F1040858
:109A80002B7AEA7D002A42D04FF0080C0CFB03FC35
:109A9000617A8B423ED0002A41D00823434540D111
:109AA000A269AB699A4209D204F10C0E0C350FCDB4
:109AB000AEE80F0095E803008EE80300E06E424632
:109AC000311D604419F0BFFBE56C237873B3637AF2
:109AD0005A1C01239340013B9D422BD002B0BDE8AC
:109AE000F0811E4BD3F804352A7A01921C4A009269
:109AF0004FF465721B49042004F03EFBB0E794F874
:109B00006830002BB2D12046FFF7F2F8AEE74FF0F5
:109B10000C0CBBE70CEB0803A4F84A30C0E70C239D
:109B2000BCE704212046FFF72FFBD7E77846FEF776
:109B3000C3FCCCE7E16C2046FFF71CFE3B46224607
:109B4000B4F84A10E06EFFF752FC2046FFF7E6FA41
:109B5000C4E700BF302E00202C2E00200010014052
:109B6000183E0400CB3D04002DE9F04190B00028E0
:109B70004CD08046002A4BD01F4614460E4604ABFC
:109B800000933B46FEF7D4FE054618B1284610B0B8
:109B9000BDE8F08104A8FFF7C9F805460028F5D113
:109BA00000230293039302A960880FF0E9F828B11B
:109BB0009DF8113043F001038DF811302269E168FE
:109BC000208905F041FD38B19DF8113003F0FE0306
:109BD0008DF81130002BD9D09DF81130002BD5D045
:109BE00013F0010F01D0039B08939DF8103033B19F
:109BF0003B4604AA31464046FFF71CFFC6E73B46FA
:109C000004AA31464046FFF7FFFBBFE70E25BDE73C
:109C10000E25BBE7F8B500B30546164B1F68F7B92C
:109C20000E463C46B4420ED205EBC4035B68CBB192
:109C300015F8340010F0800F16D1B8B1FEF7FCFD16
:109C4000B0B90134EEE70C4B43F8375003EBC703D0
:109C50005E607B1C074A136002E00E2700E00427C9
:109C60003846F8BD0E27FBE70B27F9E70F27F7E784
:109C70000F27F5E73435002038350020084B1968E8
:109C800061B110B504E0064804F0DFF9214624B1C3
:109C90000C680B79002BF9D0F5E710BD704700BFB9
:109CA0002037002038B5054630B1104B1C68ACB1E8
:109CB0000F4B01221A7004E07846FEF7FDFBF4E733
:109CC00024683CB12379002BFAD154F8043C28468F
:109CD0009847F5E7064B1B78022B00D038BDFFF7FD
:109CE000CDFF034B00221A70F8E700BF2037002099
:109CF0001C37002010B5044630B100232372211D0B
:109D0000034804F077F910BD7846FEF7D5FBF4E779
:109D10002037002010B5044658B10A4B1B78013B90
:109D2000DBB2012B09D8074B02221A7001232372E0
:109D300010BD7846FEF7C0FBEFE7211D024804F096
:109D400084F9F5E71C370020203700200A88836853
:109D50009B5A07339BB223F0030313449BB2028840
:109D6000043A934200D900230B80704710B582B0AB
:109D700004468368C91AADF806100DF10601FFF715
:109D8000E5FFBDF80630A068184402B010BD008899
:109D9000043880B2704743888268D018D1520123BA
:109DA000837070478268002393704380838070477C
:109DB000073189B221F0030189B2428883889A422F
:109DC00004D29B1A99421EDC0020704710B59A42BB
:109DD0000FD90488A41AA14217D98B4217D3032C98
:109DE00003D98368134404229A70002343801846E1
:109DF00004E0826813449B780BB1042010BDFFF788
:109E0000D1FF0020FAE7042070470020F6E7042085
:109E1000F4E738B504460D468368828813448B42C4
:109E200002D07846FEF748FB0023AB70211D204688
:109E3000FFF78CFFA288A36813449B78042B00D003
:109E400038BD0023A380FBE710B50C468368428829
:109E500013448B4202D07846FEF72EFB0023A370FA
:109E600010BD70B5064615460C46002944D0002E9C
:109E700046D0B4F1005F08D94FF08053D3F80C31CD
:109E800003F50023B4EB832F0ED3B4F5000F08D9EC
:109E90004FF08053D3F80C3103F50053B4EB832F0C
:109EA00002D37846FEF708FB6B1E2344B3F1005F34
:109EB00008D94FF08052D2F80C2102F50022B3EB02
:109EC000822F0ED3B3F5000F08D94FF08052D2F88D
:109ED0000C2102F50052B3EB822F02D37846FEF735
:109EE000EBFA042D10D9358000237380B380B46061
:109EF000043D2580A37070BD7846FEF7DDFAB6E715
:109F00007846FEF7D9FAB4E77846FEF7D5FAEAE7DD
:109F100038B50446A0B16288A36813449B78012B2E
:109F200012D0EFF3108572B6A388A16819448B781C
:109F3000032B0DD02046FFF735FF05B962B638BDBB
:109F40007846FEF7B9FAE6E77846FEF7B5FAE8E7AD
:109F50002046FFF70BFFA368C31A638000238370BA
:109F6000EBE72DE9F0410E4615460446D0B1EEB1BF
:109F70006288A36813449B78012B1BD025B320462D
:109F8000FFF705FFA84221D3EFF3108872B62946E8
:109F90002046FFF70DFF074680B1B8F1000F16D13C
:109FA00062B614E07846FEF787FAE0E77846FEF7F7
:109FB00083FADDE77846FEF77FFADFE72946204699
:109FC000FFF7E9FE3060E8E7092700E00927384697
:109FD000BDE8F081F8B50C4616460546E0B1FCB187
:109FE000A378012B20D12388B34221D326B3EFF3EA
:109FF000108772B626800223A370E9182846FFF75F
:10A00000A5FE6B88AA88934203D0AA681344002255
:10A010009A7007B962B6F8BD7846FEF74DFADEE7EA
:10A020007846FEF749FADBE77846FEF745FADAE7C5
:10A030007846FEF741FAD9E77846FEF73DFAD6E7CB
:10A0400070B50D46044690B1ADB1EFF3108672B60F
:10A05000A288A36813449A78042A10D09A78022A16
:10A0600015D0032A18D0052006B962B670BD78460F
:10A07000FEF722FAE8E77846FEF71EFAE5E7211D2B
:10A080002046FFF763FEA288A3681344E6E7032295
:10A090009A702B600020E7E77846FEF70DFA002063
:10A0A000E2E738B5044680B1EFF3108572B6A088B8
:10A0B000A16801448B78042B0BD08878022814BF48
:10A0C0000020012005B962B638BD7846FEF7F4F9E4
:10A0D000EAE72046FFF74AFE0146EEE738B50446B8
:10A0E00078B1EFF3108572B6A088A1680144887832
:10A0F000C31EDBB2012B08D82046FFF737FE01460E
:10A10000F5E77846FEF7D8F9EBE7022814BF002000
:10A11000012005B962B638BD70B50C46064678B167
:10A1200094B1EFF3108572B6A378012B10D0032BF6
:10A1300013D121463046FFF76CFE05B962B670BDFB
:10A140007846FEF7B9F9EBE77846FEF7B5F9E8E7A8
:10A1500021463046FFF778FEEFE77846FEF7ACF988
:10A16000EBE710B5EFF3108472B683888168194469
:10A170008B78042B06D08878B0FA80F0400904B9B7
:10A1800062B610BDFFF7F2FD0146F4E708B5064BD5
:10A19000986800221A605A609A60DA601A615A61FF
:10A1A0009A6104F067FF08BD2437002000B585B030
:10A1B0000A4BDB6802228DF8002001934FF4805394
:10A1C0000293074A6946012001F0AEFA18B901204E
:10A1D00005B05DF804FB0020FAE700BF243700203B
:10A1E0004037002000B585B00A4B1B6802228DF86D
:10A1F000002001934FF480530293074A69460120DF
:10A2000001F092FA18B9012005B05DF804FB0020B6
:10A21000FAE700BF4437002040370020164BDA68C9
:10A22000137951795B1A03F57F2303F6FF7302EB71
:10A2300003339A4205D002F580520F4BDA600320B7
:10A24000704700B585B00D4B1B6801208DF80000EC
:10A2500001930B4B0393042302930A4A694601F0CE
:10A2600063FA18B1002005B05DF804FB024B01222F
:10A270001A760220F7E700BF243700204437002079
:10A28000483700204037002000B585B00C4BDA6815
:10A290000C4B1B68043301208DF8000001920393DE
:10A2A00040F6FC730293084A694601F03DFA18B97A
:10A2B0000120034B187600E0002005B05DF804FB98
:10A2C00024370020443700204037002000B585B0F7
:10A2D0000A4B1B6801208DF800000193084B039383
:10A2E00004230293074A694601F01EFA18B90120B7
:10A2F00005B05DF804FB0020FAE700BF44370020FA
:10A30000303700204037002010B584B0104BDA6899
:10A310001478104B1B68043301208DF80000019362
:10A32000039202940C4A694601F0FEF968B9094BA0
:10A330001B6804F0FC041C440434054B5C61D968C0
:10A340000A780A441A61012000E0002004B010BD20
:10A3500024370020443700204037002008B5002370
:10A36000092B09D8064A52F82320824201D0013332
:10A37000F6E7044A536002E07846FEF79DF808BD10
:10A38000E83E04002437002010B5214BDB6853B1B0
:10A390001F4B1B7E5BB91E4B5B68092B26D9784689
:10A3A000FEF78AF822E07846FEF786F8F0E778466E
:10A3B000FEF782F8EFE7164A536801335360092B22
:10A3C00021D97846FEF778F81DE0114B00225A603B
:10A3D00019E00F4B1B7E1BB10D4B02221A7012E0CD
:10A3E000FFF7D4FE0FE00A4B1B7E83B9084B5A6877
:10A3F000084B53F82230984704460228E9D0032836
:10A40000E3D00128D7D0012CEDD0032CEBD010BD28
:10A4100024370020E83E0400104B1B681B685A1EBE
:10A4200012F1030F18D8C3F30B020AB100207047D2
:10A4300010B50B4AD36000231376537601241470B1
:10A4400093600848FFF78AFF0749204601F05AF950
:10A45000FFF79AFF204610BD0020704744370020C8
:10A4600024370020ADA102006DA4020008B50B78CE
:10A47000032B06D00B4B1B78012B06D0022B0BD0E5
:10A4800008BD084B00221A76F4E7064B1B7E002B12
:10A49000F6D1FFF779FFF3E70B78032BF0D1FFF745
:10A4A00075FEEDE72437002000B585B0174BDB685B
:10A4B00018784FF6FF7203F58051184405F0BFFA83
:10A4C000F0B10246114BD9680B780B44984219D071
:10A4D0000E4B5B7E93B10E4B01208DF80000019274
:10A4E0000393042302930B4A694601F01DF958B9FE
:10A4F0000120064B187605B05DF804FB064BEBE730
:10A500000120F8E70120F6E70020F4E724370020D7
:10A5100064410400403700206041040008B5104B3E
:10A52000DB681878002203F58051184405F087FA9B
:10A5300008B1012008BD0A4BDA68137951795B1A1A
:10A5400003F57F2303F6FF7302EB03339A4205D032
:10A5500002F58052024BDA600320EBE70220E9E7C4
:10A5600024370020F0B585B0514BDD686A792B792E
:10A57000591E8A4214D005F580510C780C444D497F
:10A580000968081D0E7906449B1A05EB033563889C
:10A59000013B9BB247F6FE62934260D927461BE01F
:10A5A0000120434B58767EE07846FDF785FF16E0A4
:10A5B00027F47F6323F00F0303F580531A781344C5
:10A5C0009D4247D99C4247D25A88013A92B21F46CF
:10A5D00047F6FE618A4210D93B88002BE4D03B88C5
:10A5E00007EB830323F47F6222F00F029342DFD054
:10A5F0007A88B2F5FE4FE3D1DAE71C462FE07846C1
:10A60000FDF75AFF16E027F47F6323F00F0303F5ED
:10A6100080531A7813449D4220D99C423BD25A88D9
:10A62000013A92B21F4647F6FE618A4210D93B8832
:10A63000002BE4D03B8807EB830323F47F6222F0F6
:10A640000F029342DFD07A88B2F5FE4FE3D1DAE70A
:10A650001C4604E0002402E0002400E00024E4B1F1
:10A66000144B1968628801F58051304605F0E7F90E
:10A67000064690B101200E4B18768DF8000001942B
:10A680000D4B0393042302930C4A694601F04CF8E6
:10A6900058B92746CBE70024E1E7B4FA84F464090B
:10A6A000034B5C76012005B0F0BD0020FBE700BF46
:10A6B00024370020443700205C410400403700204C
:10A6C0002DE9F04186B0644B1B6923B1624B5B6995
:10A6D0002BB1002748E07846FDF7EEFEF6E7784616
:10A6E000FDF7EAFEF5E77846FDF7E6FE17E028F409
:10A6F0007F6323F00F0303F580531A7813449E42BF
:10A700001FD99C4221D25A88013A92B2984647F604
:10A71000FE618A4213D9B8F80030002BE3D0B8F8B4
:10A72000003008EB830323F47F6222F00F02934290
:10A73000DDD0B8F80220B2F5FE4FE0D1D7E71C46D5
:10A7400000E000241CB1009438E00024FAE7002364
:10A750000093019B002B5AD10127002C76D06288F0
:10A7600047F6FF739A4271D0002F73D13A4B5A6962
:10A7700022F47F6525F00F05AD1A05F580551C699B
:10A78000DE68337972799B1A06EB03360023019356
:10A790006388013B9BB247F6FE629342D3D9A04641
:10A7A000B9E77846FDF788FE23E024F47F6424F0BF
:10A7B0000F0404F58054237823441C46A642C8D9CC
:10A7C0002388019A02EB83029542C2D9009B634021
:10A7D00023F47F6323F00F03002BBAD16388013B7E
:10A7E0009BB247F6FE618B42B3D801922388002BBF
:10A7F000D7D0238804EB830323F47F6222F00F0277
:10A800009342D2D06288B2F5FE4FD6D1CDE7124A3C
:10A81000526901208DF808000392009A0592049372
:10A820000E4A02A900F080FF70B90B49019B23F08A
:10A8300003024B6913444B6114B1074B1C618CE755
:10A840007846FDF739FEF8E7002000E0012006B069
:10A85000BDE8F0810120FAE72437002040370020CE
:10A8600000B585B040F6F8731B68B3F1FF3F09D01F
:10A87000B3F1FF3F0CD07BB1B3F1FF3F37D0A3F56D
:10A8800080520FE01E4A1268B2F1FF3FF0D103E0A0
:10A890001B4A1268002AEFD14FF080514B690A69B8
:10A8A00002FB03F2A2F58052164B1A60164B1B688E
:10A8B00013F4801F16D0154B1B68062B12DD144BAA
:10A8C000D3F8043540F6F8710968B1F1FF3F13D0B1
:10A8D000029201910F4A00924FF41A720E4907201A
:10A8E00003F04AFCFFF798FD05B05DF804FB044B4C
:10A8F0001A68A2F58052D5E701490968E8E700BF68
:10A900001410001044370020302E00202C2E002080
:10A9100000100140B43E04009B3E040010B5044604
:10A92000B0B1104B1B78BBB10E4BD968E3685879B6
:10A93000A3EB0032914211D31A79121A02F57F2249
:10A9400002F6FF7203EB0233994209D8012004E0BA
:10A950007846FDF7B1FDE4E7002010BD0020FCE7DC
:10A960000020FAE724370020024B1878003018BF87
:10A97000012070472437002010B504460E4B1B7889
:10A9800093B92378032B13D10B4B9C60E268DA60F8
:10A9900000225A601A76012018705A76074900F092
:10A9A000B1FEFFF7F1FC10BD7846FDF785FDE8E745
:10A9B0007846FDF781FDE7E7243700206DA402000B
:10A9C000014B1868704700BF4437002010B504469B
:10A9D00080B163681BB123680BB1A36813B97846D3
:10A9E000FDF76AFDA3685A1E134207D10023E360F6
:10A9F000236110BD7846FDF75FFDEAE77846FDF775
:10AA00005BFDF3E770B5F0B104468368EBB1EFF39B
:10AA1000108572B60369C068834210D00846216869
:10AA20006268A668013E334003FB021108B118F0CA
:10AA30000AFC2369013323614DB962B608E005B908
:10AA400062B6052504E00E2502E0092500E0002598
:10AA5000284670BDC0F30B033BBB41B301F6FF7149
:10AA6000090B144B0222C3F80425124BD3F800340F
:10AA7000002BFAD0002202E000F5805001328A4219
:10AA800008D20C4BC3F808050A4BD3F80034002B4E
:10AA9000FAD0F1E7074B0022C3F80425054BD3F8A1
:10AAA0000034002BFAD00020704710207047092096
:10AAB000704700BF00E0014010F0030F2FD111F0EC
:10AAC000030F2FD182B312F0030F2FD110B49208CD
:10AAD000174B0124C3F80445154BD3F80034002B61
:10AAE000FAD002E0043004312246541E52B10B6801
:10AAF000B3F1FF3FF6D003600D4BD3F80034002BC9
:10AB0000FAD0EFE70A4B0021C3F80415084BD3F83D
:10AB10000034002BFAD010465DF8044B7047102229
:10AB2000104670471022FBE70922F9E70922F7E7F0
:10AB300000E00140094B1B7813F0040F02D00378AA
:10AB4000122B00D07047064B1A68064B5A60034B15
:10AB50001A786FF382021A70F4E700BFE037002022
:10AB6000D03700207C37002010B582B001900C4611
:10AB7000000C012810D12368094A136009490B7899
:10AB800043F001030B705B0883F0010303F0010342
:10AB90001371002002B010BD7846FDF78DFCEAE786
:10ABA000D0370020E037002010B582B001900C466D
:10ABB000000C02280FD12268094B1A6022791A7101
:10ABC000002058719871D871064A137843F0020337
:10ABD000137002B010BD7846FDF76EFCEBE700BFC6
:10ABE000C8370020E037002010B582B001900C4635
:10ABF000000C032806D1054B186820601B792371CF
:10AC000002B010BD7846FDF757FCF4E7D0370020BE
:10AC100010B582B001900C46000C03280CD1084BF3
:10AC20002068186022791A71064A137843F00103EC
:10AC30001370002002B010BD7846FDF73DFCEEE732
:10AC4000D0370020E037002010B582B001900C46CC
:10AC5000000C042805D1054B03CB2060616002B0D5
:10AC600010BD7846FDF728FCF5E700BFC837002087
:10AC700010B582B001900C46000C04280BD1084B93
:10AC80002068616803C3074A137843F00203137016
:10AC9000002002B010BD7846FDF70EFCEFE700BFC4
:10ACA000C8370020E037002000B583B00190000CC9
:10ACB000032806D1054B00221A601A7103B05DF813
:10ACC00004FB7846FDF7F8FBF4E700BFD03700201F
:10ACD00000B583B00190000C042806D1054B00227A
:10ACE0001A605A6003B05DF804FB7846FDF7E4FB98
:10ACF000F4E700BFC837002010B582B00024ADF8DB
:10AD000000400123ADF80230009805F0DEFFADF8F9
:10AD100004400223ADF80630019805F0D6FF02B0DA
:10AD200010BD0000154B1B7813F0040F25D100B5A2
:10AD300085B0134B5B6803F500530193B3F1807F3B
:10AD400002D905B05DF804FB0E4B1B788DF8083076
:10AD50000A4A137843F0040313700023ADF80C3053
:10AD60000323ADF80E3001A9039805F07DFF0028FC
:10AD7000E7D07846FDF7A0FBE3E77047E037002017
:10AD80007C370020E137002000B585B00022029218
:10AD90000F4B996801911B7B8DF808300D490B789A
:10ADA0000133DBB20B708DF80B30ADF80C200423AF
:10ADB000ADF80E300DEB0301039805F055FF10B907
:10ADC00005B05DF804FB7846FDF776FBF8E700BFB9
:10ADD0007C370020E137002000B585B00F4B9A6822
:10ADE00001921A7B8DF808201B8AADF809300C4BB4
:10ADF0001B788DF80B300023ADF80C300423ADF830
:10AE00000E300DEB0301039805F02EFF10B905B0CD
:10AE10005DF804FB7846FDF74FFBF8E77C37002030
:10AE2000E137002000B58DB00B4B1B7B012B0ED002
:10AE3000094A926804928DF80830039002238DF835
:10AE4000043001A8FEF72EFF0DB05DF804FB024AA6
:10AE50009268013A0492EEE77C37002008B51B485F
:10AE60001B4B036000F0B0FE1A4B1B7813F0200F51
:10AE700025D103F00303032B14D1174B1968174A8C
:10AE8000916019791173B3F805001082DB79144AC7
:10AE90001370144A1279934212D089B90F4B0022D1
:10AEA0001A6007E00D4B00221A609A601A731A822A
:10AEB000FFF76AFF094B1A685A60FFF733FF08BDB6
:10AEC000084B1A68054B1A60F4E700BFBC37002036
:10AED00035AB0200E0370020C83700207C37002067
:10AEE000E1370020D037002010B582B00024ADF843
:10AEF00000400323ADF80230009805F0E6FEADF8FF
:10AF000004400423ADF80630019805F0DEFE074B3F
:10AF10001C605C609C60DC601C61054B1A7864F30B
:10AF200045121A70FFF7FEFE02B010BD7C370020FC
:10AF3000E037002038B50C4D00242C606C60AC600C
:10AF4000EC602C6101F012F9084B5860084A9A60D5
:10AF5000084ADA601C615C61074B1A7864F3C3022B
:10AF60001A706C6038BD00BF7C3700205837002055
:10AF7000C1B0020000879303E037002008B50C4BF6
:10AF80001B7813F0100F00D008BD0A480A4B03606D
:10AF900000F01AFEFFF762FFFFF7AEFE074801F070
:10AFA0007DF8034A137843F010031370ECE700BFF9
:10AFB000E03700207037002019B202005837002017
:10AFC00010B501F087FE174B1B7B1BBB154B9B7B02
:10AFD0002BBB144B1A8A41F282639A4206D8124B59
:10AFE0001B7813F0080F05D0012300E001231BB9E3
:10AFF000082410E00023FAE70A4B01221A73002408
:10B000001C829A6801329A60FFF7BEFE2046FFF765
:10B0100009FF00E0082401F0A1FE204610BD08242D
:10B02000F9E700BF7C370020E037002010B501F0C1
:10B0300051FE214B5B7BABB11F4B9B7B03BB1E4B7C
:10B040001A8A41F282639A4206D81C4B1B7813F08D
:10B05000080F05D0012300E001239BB1012302E08A
:10B060000023FAE700231C460BB3134B00225A734C
:10B070001B7B4BB1012B0ED07846FDF71DFA16E075
:10B080000023F0E70023EEE7FFF79AFF78B1784658
:10B09000FDF712FA0BE0084B002018605860187397
:10B0A0001882FFF7BFFEFFF76FFEFFF73BFE01F0D0
:10B0B00055FE204610BD00BF7C370020E037002041
:10B0C00008B52C4B1B7BDBB1012B2ED07846FDF74E
:10B0D000F3F9284A138A01339BB21382264AA2FB52
:10B0E00003121209C2EB021251005B1A9BB2002B31
:10B0F0003DD0204B5B8A13B1013B1E4A538208BDF1
:10B100001C4B1A8A41F282639A4206D81B4B1B7869
:10B1100013F0080F07D0012300E00123002BD8D043
:10B12000FFF784FFE5E70023F8E7124B1B8A41F2A3
:10B130008262934206D8114A127812F0080F14D096
:10B14000012200E00122002AC3D042F2B012934251
:10B1500002D9084B01225A73FFF768FF0028C8D1B3
:10B16000044B5B7B012BB4D1C3E70022EBE7FFF775
:10B1700033FEBEE77C37002089888888E0370020CE
:10B1800010B5244B1B7B002B35D10446214B5B8A29
:10B190002BBB1AB91F4B9B688B4205D3FAB11D4BD1
:10B1A0009B6801338B421AD21A4B9B682A338B421D
:10B1B00023D3184B9B7B03BB164B996000221A606C
:10B1C0005A601A8242F6065159825A731A73FFF76F
:10B1D000DBFDFFF7A7FD2046FFF724FE0DE062B17F
:10B1E0000C4B9B6801338B4207D10A4B01225A73E7
:10B1F000FFF71CFF01E0012B00D010BD002AFCD19D
:10B20000044B9B688B42F8D1024B01225A73FFF723
:10B210000DFFF2E77C3700200378042B00D0704745
:10B2200043681B78002BFAD010B58468027E437EF9
:10B23000012A14BF00220122416904F11000FFF726
:10B240009FFF10BD10B5184B1A685B689A4226D252
:10B250000446154B1B7B012B14D0144B9A4213D27E
:10B26000114B1A685B68403B9A4215D2EFF310818C
:10B2700072B60D4A1368581C1060236001B962B69B
:10B28000002010BD0A4BE9E7074B01225A73FFF774
:10B29000CDFE0028EAD1E3E7FFF744FDE6E7FFF73C
:10B2A00041FD0F20EDE700BF7C370020FFFF7F004E
:10B2B00000E0FF0008B538B10D4B01229A730D4A2A
:10B2C00013680133136008BD0A4B1B685BB1094A60
:10B2D0001368013B1360002BF5D1054B00229A73D4
:10B2E000FFF7A4FEEFE77846FDF7E6F8EFE700BFCB
:10B2F0007C3700204C37002000B58DB0ADF8080039
:10B300008DF81020039103238DF8043001A8FEF777
:10B31000C9FC0DB05DF804FB014B9868704700BF95
:10B320007C370020054B1B7B012B02D0034B986818
:10B330007047024B98680138704700BF7C37002087
:10B34000044B9B68584010F0010F00D0013B184699
:10B35000704700BF7C370020014B187B704700BF4F
:10B360007C37002038B50D4B1B7813F0200F01D02F
:10B37000082038BD094A43F020031370084DA86027
:10B38000297300242C82FFF7FFFC2046FFF74AFDBB
:10B390002C606C60FFF7C6FC2046EAE7E03700202F
:10B3A0007C3700202DE9F041002722E02449BC230E
:10B3B00003FB04F3CA5A0132CA520221404602F08A
:10B3C0008AFC01360221404602F055FC70B11C4A4D
:10B3D000BC2303FB04239D68002DE7D0BC2303FBA3
:10B3E00004F3D25A01463846A847DFE796B9013739
:10B3F000FFB2022F20D83C46BC2303FB07F30833DF
:10B400000F4D1D4405F104080221404602F033FCB3
:10B410000026DBE70021404602F0C5FC0828E6D103
:10B42000074BBC2202FB0434A368002BDFD00022B0
:10B43000044938469847DAE70120BDE8F08100BFAB
:10B44000EC370020203F040008B508238373102345
:10B45000437300F11C0343610323037300F11803DA
:10B4600003610C3002F071FC08BD000008B50378E0
:10B47000012B06D0022B06D07846FDF71DF80020E0
:10B4800002E0292000E0014808BD00BF084C01008F
:10B4900008B50278012A07D0022A13D07846FDF7B2
:10B4A0000BF84FF4FA7308E083685B1A9B0803EB10
:10B4B000830003EBC00303F5FA730748984228BFE3
:10B4C000184608BD83685B1A180B044B03FB00F396
:10B4D00003F5FA73F1E700BF60850100084C010035
:10B4E00038B5044601210C3002F0C5FB054678B1A1
:10B4F000084BC4F89C300023C4F8A0306168FFF703
:10B50000C7FFC4F8A800C4F8AC40012384F8B830E1
:10B51000284638BD35B6020010B50446FFF7E0FFF7
:10B5200020B104F19C000EF003FA00B910BD78467A
:10B53000FCF7C2FFFAE70000F8B506460C461746CE
:10B5400015680378012B18D11249A1FB0431490970
:10B550008900B468641B8C4200D30C468CB17068BF
:10B5600025F00305F168224629442844FFF7A4FA90
:10B5700058B93B681C443C60F8BD7846FCF79CFF1A
:10B58000E2E77846FCF798FFE9E77846FCF794FF96
:10B59000EFE700BF7D0CCEC7F8B507460C46164650
:10B5A00015680378022B16D1114BA3FB04231B0C47
:10B5B0001B03BC68641B9C4200D31C467CB17868AA
:10B5C00025F0030521462844FFF744FA58B93368AB
:10B5D0001C443460F8BD7846FCF76EFFE4E778461B
:10B5E000FCF76AFFEBE77846FCF766FFEFE700BF82
:10B5F000EB0661C538B505460C4611462378012B8C
:10B6000006D0022B0FD07846FCF756FF002304E04B
:10B61000021D2046FFF790FFA3686868984214BF98
:10B620000020012038BD021D2046FFF7B5FFA368AA
:10B63000F3E700002DE9F8438846D1F8A860234BD2
:10B640001B7863B90546A6F5FA7601F10C090121CC
:10B65000484602F010FB074640B1002424E00EF0FB
:10B66000A3F9002388F8B830BDE8F8837846FCF7E2
:10B6700023FFF2E70EF098F90121484602F02BFB78
:10B680000023C8F8043088F8B830114B186801F06E
:10B69000B9FB4046FFF740FFE6E72C1A3846FFF7B4
:10B6A000E5FE2044B0420BD8321B39464046FFF736
:10B6B000A1FF0028DED101F0E5F9441BEED5ECE74F
:10B6C0000EF072F94046FFF727FFCDE7E83700207C
:10B6D000E437002010B5084801F074FB074B1860F0
:10B6E0000024022C07D8064BBC2000FB0430FFF7D7
:10B6F000ABFE0134F5E710BDA5B30200E43700202E
:10B70000EC37002038B504460D46022805D8054B15
:10B71000BC2202FB0434A56038BD7846FCF7CCFEA1
:10B72000F5E700BFEC3700202DE9F84306460C464C
:10B730001746022816D8CCB12378012B1AD0022B39
:10B740003ED16368C3F30B03002B31D1A368C3F36D
:10B750000B03002B30D1A368002B34D17846FCF7C3
:10B76000ABFE30E07846FCF7A7FEE4E77846FCF74E
:10B77000A3FEE1E7636813F0030F0DD1E36813F054
:10B78000030F0DD1A36813F0030F0DD1A368D3B934
:10B790007846FCF791FE16E07846FCF78DFEEDE763
:10B7A0007846FCF789FEEDE77846FCF785FEEDE785
:10B7B0007846FCF781FEC9E77846FCF77DFECAE7CC
:10B7C0007846FCF779FEEFF3108872B6BC2505FBCE
:10B7D00006F505F108032A4D1D44043500212846CD
:10B7E00002F049FA814678B30021284602F073FA44
:10B7F00020686168A268E368C9F80000C9F804100D
:10B80000C9F80820C9F80C302FB11D4ABC2303FB2E
:10B8100006235B883B801A4ABC2303FB06235A8815
:10B8200001325A8093F8B83083B9164B1B7813B1A4
:10B830000024A1460CE0124BBC2000FB0630FFF7B1
:10B840004FFE8146002403E0042401E00024A146C9
:10B85000B8F1000F00D162B6B9F1000F09D0BC20D9
:10B8600000FB06F698360648304404300EF060F8C7
:10B8700010B92046BDE8F8837846FCF71DFEF8E7CE
:10B88000EC370020E837002038B50446EFF3108588
:10B8900072B610B9164B1B6873B18CB1144A136899
:10B8A00001331360124B1B68003318BF0123114A88
:10B8B000137005B962B638BD7846FCF7FDFDECE7BC
:10B8C0000B4B1C68013C1C6034B1EBE7BC2000FB57
:10B8D0000420FFF721FE0134022CE3D8064ABC23E2
:10B8E00003FB042393F8B830002BF4D1EEE700BF3C
:10B8F000203A0020E8370020EC37002018B1830BF5
:10B90000024AD05C70470020704700BF303F0400FF
:10B9100012DF704700B583B001F0CEFE40B10C4B92
:10B920001B6813F0400F03D00A4B1B68012B02DC8D
:10B9300003B05DF804FB084BD3F804350190074AC7
:10B9400000926C220649022002F016FCF0E700BFCC
:10B95000302E00202C2E002000100140B03F0400AB
:10B96000A33F040070B58AB00EF098FD48B30646B8
:10B9700000238DF8103005AC05460FCD0FC42B68A1
:10B980002360727D052A04D9337D03F00F03072B52
:10B990001ED1174B1A688AB104AB0393337DC3F3EE
:10B9A00003038DF80430737D062B1BD9063B8DF8FD
:10B9B000053006F11D03029301A8904730460EF0B2
:10B9C0004DFD0EF087FD80F00100C0B20AB070BDE1
:10B9D000307D04AB063A06F11D0100F00F000DF0BA
:10B9E00071FAD6E700238DF805300293E4E700BF33
:10B9F000283A00200B4B1B78032B00D0704700B572
:10BA00008DB0084B04221A702C22002101A817F0D7
:10BA100043FC1C238DF8043001A8FEF743F90DB058
:10BA20005DF804FB243A002070B582B02E4B1B78E1
:10BA3000002B4FD1002851D0067A0F2E01D0062EB0
:10BA40004ED1044605F09EFFE06870B1FCF746FD5C
:10BA50000DF10700FFF75CFF054600283BD19DF87C
:10BA60000730012B04D0022535E0FCF745FDEFE758
:10BA7000FCF764FD00F0FEFA304601F0D9F8E078FA
:10BA800000F022F900F0CAFE0DF0D4FE17480EF0C7
:10BA9000BDFD0DF0BDFB0DF0F7F9FFF71BFE05F046
:10BAA0004FF800F0E1FC05F02DFF05F0F5FC204615
:10BAB00001F00EFDFDF7BCFD04F036FBFCF74AFC7F
:10BAC00008B106280ED10A4B00221A60064B01224B
:10BAD0001A7000E00825284602B070BD0E25FAE76E
:10BAE0000725F8E70546F6E7243A002065B9020085
:10BAF000283A002010B582B01E4B1B78012B0DD0C8
:10BB00005AB282B3033BDBB2012B2ED80DF000FFFB
:10BB1000044658BB174B02221A7027E00EF07CFC3B
:10BB200001F0E6FCFDF7C6FDFCF714FC0446B8B1D5
:10BB3000062815D0104B1B6813F4804F16D00F4BFE
:10BB40001B68012B12DD0E4BD3F8043501900D4A12
:10BB500000924FF4AF720C49022002F00DFB05E099
:10BB600001F092F8D2E7082400E00824204602B051
:10BB700010BD00BF243A0020302E00202C2E0020C3
:10BB800000100140343F0400A33F040008B50A4BF5
:10BB90001B78022B02D00823184608BD064B03224F
:10BBA0001A7006480DF068FE03460028F4D0784667
:10BBB000FCF782FC0023EFE7243A0020F5B90200ED
:10BBC00008B5FDF77BFD08BD08B5FEF793F808BD85
:10BBD00008B5FEF79FF808BD08B500F0E5FD0020A8
:10BBE00008BD08B507F072FA08BD0000064A1368E0
:10BBF00001331360B3F1704F02D0034B18687047E4
:10BC0000134601221A60F8E72C3A002010B50446CA
:10BC100018B100232360636010BD7846FCF74CFC2C
:10BC2000F7E738B50C46054668B184B10023636078
:10BC3000EFF3108372B62A686AB16A6854606C6068
:10BC400003B962B638BD7846FCF736FCEDE77846B6
:10BC5000FCF732FCEAE72C60F1E710B5044658B176
:10BC6000EFF3108372B6206808B142682260226840
:10BC700032B103B962B610BD7846FCF71DFCEFE7A0
:10BC80006260F6E710B5044608B1206810BD78463A
:10BC9000FCF712FCF9E735DF7047000008B54FF0FC
:10BCA000FF30FFF7F8FFBFF34F8F0549CA6802F472
:10BCB000E062044B1343CB60BFF34F8F00BFFDE73F
:10BCC00000ED00E00400FA05072814D8DFE800F0D2
:10BCD000080C1504110F0A066420704714207047E1
:10BCE000FA2070471E2070474FF4FA7070473220D8
:10BCF00070474B207047FA2070479620704700002D
:10BD0000024B5868103840B2704700BF00ED00E0A9
:10BD1000034600280FDB5B11084A52F823304242E9
:10BD200000F01F0002F01F0258BF504223FA00F03B
:10BD300000F00100704700F11F03ECE700E100E0B4
:10BD400046DF7047F8B504460D464B1EDBB2012BAB
:10BD500009D8002222616261A261E2612046FFF7F8
:10BD6000EFFF01200AE07846FCF7A6FBF1E7CB7B6A
:10BD70005B00CB73002F14DB0130C0B2A84217D890
:10BD8000214611F9207F00230E2BF0D8CA5CCE1873
:10BD90005200D2B2767842EAD612CA5401339BB22C
:10BDA000F2E794F82F3083F0870384F82F30E3E72D
:10BDB000F8BD2DE9F04190B084460C4696461F46EA
:10BDC00002F10F0636111FFA86F804AD0068DCF8A0
:10BDD0000410DCF80820DCF80C300FC50EF00F055D
:10BDE000B8F1000F02D07DB1002300E00023984697
:10BDF00063B1012104A8FFF7A5FFB8F1000F1AD025
:10BE0000701E000110230EE00123F0E70221F1E78C
:10BE1000013B9BB22218D25C10A9194411F8101CE6
:10BE20004A400DF80320002BF2D100250C950D950A
:10BE30000E950F9526E0711EADB22A4604EB011156
:10BE4000684617F000FA80230DF805306B1C03E0FC
:10BE500000220DF8032001330F2BF9DD10230AE037
:10BE6000013B9BB21DF8032010A9194411F8101CC6
:10BE70004A400DF80320002BF2D1D6E704A8FFF7C3
:10BE80005FFF0135731EAB420FDD28011023002B2D
:10BE9000F4D0013B9BB210AA1A4412F8102C2118BE
:10BEA000C95C4A4008A9CA54F1E710230AE0013BE3
:10BEB0009BB210AAD11811F8402C11F8101C4A405E
:10BEC00008A9CA54002BF2D104A8FFF739FF0CAC23
:10BED0000FCC38607960BA60FB6010B0BDE8F081CB
:10BEE00010B50446134B1B684BB14068114B1B68DF
:10BEF0005B68C31A002B02DB0E4B19680DE00D4B7B
:10BF00001A6862611C600B4A938801339BB293806C
:10BF100063B10123237010BD19464B691BB15A68E8
:10BF2000121A002AF8DB63614C61ECE77846FCF7F3
:10BF3000C3FAEEE7343A002038B505461CE07846EF
:10BF4000FCF7BAFA6369204A13600023636193889F
:10BF50009BB2591E89B29180F3B1A36803B3022347
:10BF60002370A36821692846984700F0FFF805462A
:10BF70002378DBB2022B17D0134B1B681BB3124B79
:10BF80001B685B685B1B642B1DD50F4B1C682378FB
:10BF9000DBB2012BD6D0D2E77846FCF78DFADCE78E
:10BFA0007846FCF789FADAE7E26812B900232370D1
:10BFB000E2E76368134463605B1B642BF9D420469B
:10BFC000FFF78EFFD8E738BD343A002010B504469D
:10BFD000144B1B68834207D0124B1B68D3B15A69BC
:10BFE000A2420ED01346F9E743690E4A13609388C4
:10BFF0009BB2591E89B2918063B97846FCF75CFA0E
:10C0000008E062695A6107498B889BB25A1E92B256
:10C010008A8013B10023237010BD7846FCF74CFAD8
:10C02000F8E700BF343A002008B5064B1B6833B16F
:10C03000044B1B680449586800F046F908BD00F03D
:10C04000A1F9FBE7343A002065C0020008B500F012
:10C050008DF8FFF771FF00F089F8FFF7E5FF012089
:10C0600008BD000008B5024B186800F0CBFE08BD03
:10C07000303A002008B5064B00221A605A60054885
:10C0800000F0A0FE044B186000F063F808BD00BF8C
:10C09000343A00204DC00200303A002010B504466A
:10C0A00000F084FF80B19CB1A368ABB12378DBB210
:10C0B000012B15D0002363612046FFF711FF00F02C
:10C0C00055F8FFF7B1FF10BD7846FCF7F5F9EAE740
:10C0D0007846FCF7F1F9E7E77846FCF7EDF9E5E794
:10C0E0007846FCF7E9F9E5E710B5044600F05EFF95
:10C0F00050B16CB12046FFF769FF0023636100F087
:10C1000035F8FFF791FF10BD7846FCF7D5F9F0E759
:10C110007846FCF7D1F9EDE738B504460D4600F056
:10C1200045FF70B18CB12046FFF750FF00236361DB
:10C1300065602046FFF7D4FE00F018F8FFF774FFA3
:10C1400038BD7846FCF7B8F9ECE77846FCF7B4F967
:10C15000E9E708B516F02AFF00B108BD16F0A0FE09
:10C160000028FAD07846FCF7A7F9F6E770B4EFF3A9
:10C17000108172B6184B1A68184BD3F80455D3F8CF
:10C180000431012B22D001B962B645EA02650026CE
:10C190006B01EA0E5B1B62EB0602510241EAD351CE
:10C1A0005802431941EB0600810141EA93619A016B
:10C1B000D31A61EB00005B1946EB000013F58043D6
:10C1C0007041DB0B43EA404070BC7047034BD3F82F
:10C1D00004550132D7E700BF3C3A0020001001406F
:10C1E00010B50A4B4FF40032C3F84823C3F80823B4
:10C1F000074B1B682BB1064B1C68FFF7B7FFA04726
:10C2000010BD7846FCF758F9F5E700BF0010014073
:10C21000483A0020EFF3108172B6264B0022C3F893
:10C220000421254A13680133136001B962B6234B18
:10C230001B68002B3DD0214B1A68013A1A601B681D
:10C24000002B36D103F1804303F58833D3F804255E
:10C250001B4B1B689A421ED2EFF3108272B6154B2D
:10C26000D3F804350133164909688B4210D3114BBA
:10C27000D3F8043502330F49C1F8443502B962B628
:10C280000C4B4FF40032C3F84423C3F80423704727
:10C290000B4B1B68EFE710B50A4B1B682BB1094B22
:10C2A0001C68FFF763FFA04710BD7846FCF704F950
:10C2B000F5E77047001001403C3A0020403A00206A
:10C2C000443A0020483A002030B583B004460023A9
:10C2D00001930D46002936D0244B1D60FFF746FF21
:10C2E000031B002B33DB0023590CD803204C214ABD
:10C2F000002300194FF0000444EB010116F05CFE2E
:10C30000EFF31083019372B61B4BD3F80435022868
:10C3100038BF0220C3F1FF1202F57F42824218D3D8
:10C320000344154AC2F844354FF40033C2F844338D
:10C33000C2F80433114A1460114A1460019B03B916
:10C3400062B603B030BD7846FCF7B6F8C4E7231AEE
:10C35000CAE7034403F17F4301331A0E0132074950
:10C360000A6023F07F43064A1360E7E7483A00205B
:10C3700020A1070040420F0000100140403A002079
:10C38000443A0020074B4FF40032C3F84823C3F867
:10C3900008230023044A1360044A1360044A13600C
:10C3A000704700BF00100140403A0020443A00208E
:10C3B000483A002030DF704731DF704710B4026820
:10C3C0004368A2EB7312846883EAF4330360C168A4
:10C3D0000C444460114481601344C36018465DF806
:10C3E000044B704770B582B00D46064608B1002474
:10C3F0000BE07846FCF760F8F9E79DF80710301974
:10C40000FFF7DAFF9DF807301C44A5420DD90DF166
:10C410000700FFF7CFFF9DF80730002BF7D02A1B4E
:10C420009342EAD98DF80720E7E702B070BD00001B
:10C4300030B583B005460024019404210DEB0100C2
:10C44000FFF7D0FF074B2B60019B6B60AB60EB608D
:10C4500003E02846FFF7B2FF0134132CF9D903B0EB
:10C4600030BD00BFED5EEAF17047000070B582B0EC
:10C4700000241EE0194E33680193A5B205F58073C0
:10C48000ADF80630019804F020FC7368019305F5BF
:10C490008173ADF80630019804F017FCB36801937E
:10C4A00005F58275ADF80650019804F00EFC0134D4
:10C4B000E4B2012CDED9094CE06804F006FC2069E6
:10C4C00004F003FC606904F000FCA06904F0FDFBCB
:10C4D000E06904F0FAFB02B070BD00BFDC3F04006D
:10C4E00048DF704749DF70474ADF7047044B01223D
:10C4F0005A7143F2B0629A6043F69822DA6070474C
:10C50000983A0020094B03221A74094A5A611A68A2
:10C5100040F6D8639A4204D9054B43F2B0629A6060
:10C520007047034B40F6D8629A607047783A002013
:10C53000983A002008B50F4B1B78022B12D0032B22
:10C5400008D0012B03D07846FBF7B6FF0EE002239C
:10C5500003740BE0084B00225A710849996008499E
:10C56000D960827103230374034B4361014B0022A2
:10C570001A7008BDA93A0020983A0020A086010050
:10C58000FF1FA10738B50446002505740123437138
:10C590000E4A13680133136000F0D2FA0DF07EFAF0
:10C5A00023680B4A1168283101FB03F1094AA2FBF9
:10C5B0000121A3EB9141084A7839284600F03CFA62
:10C5C00000B938BD7846FBF777FFFAE7AC3A0020B0
:10C5D000943A002083DE1B4305C5020010B50446D3
:10C5E00000238360C36003680D4A9268026081790A
:10C5F00091B10121017403B90A4B991A6161B1F536
:10C600007A7F01D39A4202D94FF47A736361FFF7BC
:10C610006DFF0123A37110BDFFF7B4FFF7E700BF63
:10C62000983A00208096980010B50C4631B1C36846
:10C630000133C360426903681344036083680133B4
:10C64000836001220274426952084261012B0DD0BD
:10C65000022B19D042690368134417498B4222D830
:10C6600040F6D7639A4221D800231DE0B2F5FA7F45
:10C6700005D040F6D8639A42ECD84361EAE7002C33
:10C68000F7D100234361E5E7C368022B06D0012BF5
:10C69000E0D1002CDED100234361DBE70268064BCA
:10C6A0009B1A4361D6E7002313B110BD0123FBE7BA
:10C6B000FFF768FFF9E700BF8096980043791BB940
:10C6C0000D4B00221A70704710B504460DF002FAA7
:10C6D00020680A4B1B68283300FB03F3084AA2FBBF
:10C6E0000323A0EB9340783800F05AFA00236371DB
:10C6F000014B00221A7010BDA83A0020943A002085
:10C7000083DE1B4308B5254B01221A71244B1B788D
:10C7100013B1244B1B781BB3204B00221A7404283E
:10C720001AD8DFE800F00314110C07001B48FFF7CC
:10C7300055FF1CE001211948FFF776FF17E00021A3
:10C740001648FFF771FF12E00DF054F90FE000F00A
:10C75000B9F90DF089F90AE07846FBF7ADFE06E07D
:10C7600000F090F90D4B18601846FFF7E3FE0B4BF5
:10C770001B7C023BDBB2012B08D9084B1B7C022B34
:10C7800008D0064800230371103008BD0348FFF7A6
:10C7900095FFF2E7014B01221A76F2E7783A002082
:10C7A000A93A0020A83A002008B50438042814D873
:10C7B000DFE800F0182614030E00164B1B7E012B39
:10C7C0000BD1FFF78FFE40B17846FBF775FE04E012
:10C7D000104B00221A760DF0A1F908BD7846FBF740
:10C7E0006BFEFAE7FFF782FE0B4840F6D8638360E2
:10C7F000FFF77AFE0028F0D07846FBF75DFEECE705
:10C800000548FFF771FE0028E7D07846FBF754FE95
:10C81000E3E700BF783A0020983A002010B40E4AAF
:10C820000023137013710121517143F2B0649460BD
:10C8300043F69824D460094A1060094A1370094AE3
:10C840001370094A1360094A137153711360137608
:10C8500091715DF8044B7047983A0020943A00209B
:10C86000A83A0020A93A0020AC3A0020783A0020EB
:10C8700008B5104B1B7E012B09D05AB21AB1022BFE
:10C8800016D0002008BD0C48FFF72AFE40B90B481F
:10C89000FFF72AFE40B9074B02221A760020F1E783
:10C8A0007846FBF709FEF2E77846FBF705FEF2E76C
:10C8B0001120E7E7783A002005C70200983A0020E7
:10C8C0000B4B1B7C023BDBB2012B0BD9094B1B78BA
:10C8D000012B09D0022B09D0032B01D00020704777
:10C8E00001207047012070470120704701207047E8
:10C8F000783A0020A93A0020014B1868704700BF21
:10C90000783A00200D4B5B790BB90020704710B5C9
:10C910000A4B1C680A4B1B68283303FB04F3094AC3
:10C92000A2FB0323A4EB9344783C00F0ABF803464E
:10C93000201A00D410BD181BFCE700BF783A002075
:10C94000943A002083DE1B43014B5879704700BFA7
:10C95000783A0020014B1879704700BF783A0020E0
:10C96000024B187E003018BF01207047783A002033
:10C97000EFF3108372B6054A527922B1044A4FF49C
:10C980008071C2F8001103B962B67047783A00208E
:10C9900000E100E008B5054B1B7E022B00D008BD6E
:10C9A000034B01221A70FFF7E3FFF8E7783A002003
:10C9B000A93A002008B5074B1B7E022B00D008BD0A
:10C9C000012805D00222044B1A70FFF7D1FFF6E7C9
:10C9D0000322F8E7783A0020A93A002008B5094B6D
:10C9E0001B782BB148B9084B1B7813B1012300E029
:10C9F0000023044A107013B908BD0023F9E7FFF7BC
:10CA0000B7FFF9E7A83A0020A93A002010B4094B73
:10CA100000F15002002443F8224000F110040122EA
:10CA2000A240C3F8042300F5A87043F820105DF875
:10CA3000044B704700800040022817D810B5EFF370
:10CA400010840C4B1C6072B60B4B43F820200B4B30
:10CA5000002243F820200A4B1B7823B9054B1868A5
:10CA600030B962B610BDFFF7D1FFF7E70720704776
:10CA70000020F7E7C03A0020B03A0020CC3A00206E
:10CA8000BC3A0020EFF310820A4B1A6072B60A4BD0
:10CA90001B7863B1094B0022C3F84C210122DA64F0
:10CAA000D3F84C05034B1B6803B962B67047044BBF
:10CAB0001868F7E7C03A0020BC3A00200080004028
:10CAC000C43A00202DE9F041002411E00027174B63
:10CAD00043F82470012303FA05F5154EC6F80853F0
