:020000022000DC
:1070000000F003206D7302005573020057730200F5
:10701000597302005B7302005D7302000000000000
:107020000000000000000000000000005F7302008C
:1070300061730200000000006373020065730200C8
:1070400067730200677302006773020067730200D0
:107050006773020067730200C58002006773020055
:1070600067730200677302001D9E030067730200CE
:1070700067730200677302006773020067730200A0
:1070800067730200E9350400F9D202006773020059
:107090004D360400677302007DCE03006773020063
:1070A0006773020067730200677302006773020070
:1070B0006773020067730200000000000000000018
:1070C0006773020067730200677302006773020050
:1070D0006773020067730200677302006773020040
:1070E000677302006773020067730200000000000C
:1070F00000000000677302000000000067730200D8
:10710000000000000000000000000000000000007F
:10711000000000000000000000000000000000006F
:10712000000000000000000000000000000000005F
:10713000000000000000000000000000000000004F
:10714000000000000000000000000000000000003F
:10715000000000000000000000000000000000002F
:10716000000000000000000000000000000000001F
:10717000000000000000000000000000000000000F
:1071800000000000000000000000000000000000FF
:1071900000000000000000000000000000000000EF
:1071A00000000000000000000000000000000000DF
:1071B00000000000000000000000000000000000CF
:1071C00000000000000000000000000000000000BF
:1071D00000000000000000000000000000000000AF
:1071E000000000000000000000000000000000009F
:1071F000000000000000000000000000000000008F
:10720000344935480A1A02D0072291438D46334942
:1072100033480A1A06D00722914381F309880222D3
:1072200082F314882F483049304A00F042F8304841
:107230003049314A00F03DF830483149314A00F0D8
:1072400038F831483149324A00F033F83148324990
:10725000324A00F02EF832483249334A00F029F819
:1072600032483349334A00F024F833483349002286
:1072700000F02AF832483349002200F025F832485D
:107280003249091A082902DB0022026041601F48C6
:107290001F49884205D00268043003B4904703BCFC
:1072A000F7E700208646EC4600200021284A904758
:1072B000FEE7884207D0521A05D0037801300B70E0
:1072C0000131013AF9D17047884202D00270013091
:1072D000FAE7704700F0032000E8032000F00320E5
:1072E00000F00320C4860400002E0020D02E0020D1
:1072F000A0730200A07302008A600400C486040028
:10730000002E0020002E0020006404000064040011
:1073100000640400006404000064040000640400CD
:107320000064040000640400C48604009487040020
:10733000D02E0020D02E0020D02E0020E567002087
:10734000E8670020E8670020E8670020E86B00207D
:1073500075780200FEE7FEE7FEE7FEE7FEE7FEE7E0
:10736000FEE7FEE7FEE7FEE700F002B8FFF7FCBF2E
:1073700008484FF00701884385460748804707487B
:10738000016841F470010160BFF34F8FBFF36F8F4D
:10739000FFF736BF00F0032079D2030088ED00E04C
:1073A00041DF704710B50C460D2000F0D5FD207070
:1073B00010BD000010B582B00C460D4B1B6813F4D5
:1073C000804F03D00B4B1B68032B05DC21460D209F
:1073D00000F0CEFD02B010BD074BD3F8043501918B
:1073E000064A009260220649042007F0A9F8EDE75A
:1073F000802E00207C2E00200010014098640400A4
:107400008E64040000B583B00F4B1B6813F4804FEB
:1074100003D00E4B1B68032B0ADC0322C8214FF458
:10742000F03000F0BFFD0AF07FFD03B05DF804FB13
:10743000074BD3F80435074A009278220649042006
:1074400007F07EF8E9E700BF802E00207C2E0020A8
:1074500000100140B06504008E64040010B582B0D5
:1074600004462C4B1B6813F4804F03D02A4B1B6837
:10747000032B04DC7CB1032C2ED002B010BD274BB3
:10748000D3F804350190264A009288222549042029
:1074900007F056F8EEE71F4B1B6813F4804F03D03C
:1074A0001D4B1B68032B0CDC0D2000F055FD80F0FC
:1074B0000101C9B20D2000F05BFD1B4800F04EFB3E
:1074C000DBE7164BD3F80435184A00929022154991
:1074D000042007F035F8E7E70AF0C6FC98B90D4B31
:1074E0001B6813F4804FC8D00B4B1B68032BC4DD03
:1074F0000A4BD3F804350E4A0092A422094904200D
:1075000007F01EF8B9E70CF0F3F90AF0A3FCFFF757
:1075100079FFB2E7802E00207C2E00200010014071
:10752000B06404008E640400002E0020C4640400D3
:10753000D46404003038042800D9704708B5FFF738
:107540008DFF08BD08B503781C2B00D008BDFFF7E0
:1075500059FFFBE700B58DB02022002103A81EF0E3
:107560002FFD01238DF80C3007238DF80F300623F3
:107570008DF81430134B0793134B0B93134903A847
:107580000AF076FCB0B10B2813D1114B1B6813F431
:10759000804F0FD00F4B1B68032B0BDD0E4BD3F826
:1075A00004350E4A0092ED220D49042006F0C8FF72
:1075B00000E010B90DB05DF804FB0A4AF22115F0A5
:1075C00053FFF7E745750200E5760200D02E002054
:1075D000802E00207C2E0020001001404065040019
:1075E0008E6404003464040000B583B01B4A052196
:1075F0004FF4103006F088FF194B1B6813F4804FCE
:1076000003D0184B1B68032B13DC1CF023F8D8B9EC
:1076100000F00CFD144800F029FDD0B900F0F2FE96
:1076200000F00CFF00F038FFFFF794FF03B05DF8A7
:1076300004FB0E4BD3F804350D4A0092F9220D4994
:10764000042006F07DFFE0E70B4AFB2115F00CFF5C
:10765000DEE7094AFF2115F007FFDFE7DDE402005E
:10766000802E00207C2E00205D740200001001405E
:107670000C6504008E6404003464040000B583B01B
:107680000021114800F08CFA58B9104B1B6813F414
:10769000804F03D00E4B1B68032B07DC03B05DF853
:1076A00004FB0C4A702115F0DFFEEEE70A4BD3F81D
:1076B0000435054A12880192084A0092712208494D
:1076C000042006F03DFFE9E7002E0020802E002078
:1076D0007C2E002034640400001001401864040073
:1076E0008E64040000B583B00C4B1B6813F4804F0C
:1076F00003D00B4B1B68032B04DCFFF7BFFF03B069
:107700005DF804FB074BD3F80435074A0092DA22F0
:107710000649042006F014FFEFE700BF802E00208A
:107720007C2E002000100140906504008E6404004F
:1077300030B587B06421194800F0A8FB184B1B78BE
:107740009BB100F0C7FF00F0F3FC0AF0DDFBF8B9D5
:1077500000214FF4F03000F01AFC0222C8214FF44F
:10776000F03000F01FFC07B030BD6C460D4D0FCD62
:107770000FC495E8030084E80300684600F024FB8A
:107780000028DED0084A4FF48E7115F06DFED8E760
:10779000054A40F2211115F067FED9E73575020060
:1077A000D02E0020006404003464040010B50446A8
:1077B00000214FF4F03000F0EAFB04EB8404620097
:1077C00032214FF4C03000F0EDFB10BD08B500F0E1
:1077D0001FFC08BD00B585B0204B1B6813F4804F1B
:1077E00003D01F4B1B68032B1FDC00F027FE00F0AB
:1077F00053FE03A810F0E4FA184B1B6813F4804FF3
:1078000003D0174B1B68032B1ADC00F001FC00218E
:107810004FF4F03000F0BBFB0422C8214FF4F030ED
:1078200000F0C0FB05B05DF804FB0E4BD3F8043547
:107830000D4A0092C6220D49042006F081FED4E7CD
:10784000084BD3F80435BDF80C200192084A009289
:10785000D1220649042006F073FED6E7802E0020D0
:107860007C2E002000100140CC6504008E640400D2
:10787000E865040008B5FFF7B7FEFFF759FFFFF70B
:107880008FFDFCE730B583B0044615461D4B1B68E1
:1078900013F4804F03D01C4B1B68032B11DCA36B2C
:1078A00004F13C012046984794F83C302B7094F842
:1078B0003D306B70236C0BB1626C6AB16B6003B0CE
:1078C00030BD124BD3F80435114A0092AA22114957
:1078D000042006F035FEE2E71BF042FFA16C1BF02E
:1078E00045FF4FF47A7303FB00F0C20B236C934205
:1078F00005D3B0F5004F02D39B1A6B60DFE700237E
:107900006B60DCE7802E00207C2E00200010014000
:10791000886604007966040010B588B00446436C9C
:10792000E3B9036C13B190F83D20BAB194F83D204F
:1079300084F83C208DF818208DF81920079306A9AB
:1079400020461BF0E7FA94F84C303BB9636B94F88F
:107950003C1020469847012384F84C300F4B1B689D
:1079600013F4804F03D00E4B1B68042B01DC08B0CE
:1079700010BD0C4BD3F8043594F83C2094F83D101E
:10798000206C0490606C039002910192064A009270
:1079900085220649052006F0D3FDE8E7802E002069
:1079A0007C2E002000100140CC66040079660400A3
:1079B00030B583B00446036B18681BF0BBFE636CE4
:1079C0003BBB236C1BB3590CD8034FF47A720023D2
:1079D00010F5FA7041F100011EF082F9B0F1807FDC
:1079E0002AD2042831D9236B2246014618681BF09D
:1079F0007FFE05461BF0B4FEA06445B11C4B1B681E
:107A000013F4804F03D01B4B1B68002B25DC03B005
:107A100030BD256B590CD8034FF47A72002310F552
:107A2000FA7041F100011EF05BF922460146286818
:107A30001BF05EFE0546E0E7236B22466FF07F41B8
:107A400018681BF055FE0546D4E7236B2246052136
:107A500018681BF04DFE0546CCE7074BD3F80435FC
:107A6000064A009268220649012006F069FDCEE729
:107A7000802E00207C2E002000100140AC66040007
:107A800079660400F0B583B0044617461E46089D8B
:107A90001A4B1B6813F4804F03D0194B1B68032B40
:107AA0001BDC002384F84C303B7884F83D300EB367
:107AB00073686364336823642046FFF72DFF204614
:107AC000FFF776FF3DB194F83C302B7094F83D30D1
:107AD0006B70236C6B6003B0F0BD0A4BD3F80435B8
:107AE00012780192084A0092CC220849042006F03C
:107AF00027FDD6E7002363642364DDE7802E0020A2
:107B00007C2E002000100140946604007966040079
:107B100038B50446436C9BB9056CADB1690CE803FC
:107B20004FF47A72002310F5FA7041F100011EF053
:107B3000D7F8B0F1807F0BD3A5F2FF15256403E0E1
:107B400000234364FFF7E8FE2046FFF731FF38BD0E
:107B5000002323642046FFF7DFFEF5E710B582B06F
:107B60000446836B00F13C01984794F83C3084F85C
:107B70003D30002363642364236B18681BF0DAFD37
:107B800094F83C308DF8003094F83D308DF8013099
:107B9000236C0193694620461BF0BCF902B010BD6E
:107BA000A0B110B504460D4AC262426B8AB1826B25
:107BB0008AB11BF079F9034608B1184610BD084A8E
:107BC0000021206B1BF07EFD0346F6E70E231846CE
:107BD00070470E23F1E70E23EFE700BFA466040011
:107BE000117B02002B4B1B78002B52D000B585B0C7
:107BF000012804D0032845D005B05DF804FB00231C
:107C0000029302A9012014F0E7FF40BB02A815F07F
:107C100035F838BB0123039303A90DF1060010F0DA
:107C20007DFE10BBBDF8060010F092FA0DF10501C3
:107C300010F03EFCE0B90BF0CFFB9DF805100020E2
:107C40000BF096FEB8B904F09BF8C0B9114B0022B6
:107C50001A70114B1B68002BCED09847CCE715F05B
:107C6000F5FBD3E715F0F2FBD4E715F0EFFBD9E70E
:107C700015F0ECFBDFE7784600F0EEFCE3E715F0EB
:107C8000E5FBE3E715F070F80028B5D015F0DEFB52
:107C9000B2E77047F62E0020F82E002008B5064BFC
:107CA00001221A70054804F0D5F804F0B5F800B9BF
:107CB00008BD15F0CBFBFBE7F62E0020502E002070
:107CC00008B503781C2B00D008BD074B1B78002B90
:107CD000FAD015F08DF818B9044804F0BFF8F3E7AE
:107CE00015F0B4FBF8E700BFF62E0020502E002060
:107CF00008B50849084816F04FF8034608B1184679
:107D000008BD0323002205490969054816F060F8FB
:107D10000346F4E7102F00207C320020F82E0020CC
:107D20004831002008B50378023B082B3FD8DFE834
:107D300003F01C05113E3E2C3E3E36001E4B5B6898
:107D4000002B34D0007A002831D01C4A0121117058
:107D500098472CE0184B9B684BB3184A127832B303
:107D6000164A00211170984721E0154B1B784BB93A
:107D7000114BDB681BB1114A002111709847FFF7C6
:107D8000B7FF14E0FFF78AFF11E010220A4B596990
:107D90000C4816F0ADF850B115F058FB07E08168BB
:107DA000C06809F0F9FF18B9054B01221A7008BD27
:107DB00015F04CFBF8E700BFF82E0020F42E002051
:107DC000F52E00204831002070B586B004461F4AC9
:107DD00003AB07CA03C323F8022B120C1A701C4E04
:107DE00035460FCC0FC594E8030085E8030073699E
:107DF00053B3184B009303AB174A1849184815F0B2
:107E000087FF034610B1184606B070BD154817F03D
:107E100095FC0146124815F0A7FF03460028F2D151
:107E2000114817F007FE03460028ECD10E4817F062
:107E300037FE01460A4815F097FF03460028E2D1B5
:107E4000FFF756FF0346DEE70723DCE70C67040075
:107E5000F82E0020257D0200102F00207C3200200B
:107E600048310020302F0020F830002008B5064BA4
:107E70001B683BB113F048F9002803DB024B1B6879
:107E80009847F7E708BD00BFBC32002010B50C468C
:107E9000144B1860144A012114481BF013FC78B9E4
:107EA000610CE00341F26F7200238B4208BF8242F3
:107EB0000BD24FF47A7200231DF012FF014605E049
:107EC0000B4A4A2115F0D0FAEAE7052100220948B9
:107ED0001BF00EFC00B910BD054A4B2115F0C4FA89
:107EE000F9E700BFBC3200206D7E02001867040075
:107EF0001C670400C032002008B5134B1B6873B127
:107F00004FF0A042D2F80435104909684B40C2F83E
:107F100004350D4A1368013B136023B108BD0020EE
:107F200015F094FAECE70A481BF004FC4FF0A0426D
:107F3000D2F804350549096823EA010305490968AF
:107F40000B43C2F80435E9E7E0320020E4320020B8
:107F5000E8320020103300204FF0A043D3F804256E
:107F6000012303FA00F002420CBF184600207047BC
:107F700031B1012383404FF0A042C2F80C35704765
:107F8000012383404FF0A042C2F80835704721B169
:107F90004FF0A043C3F80C0570474FF0A043C3F85F
:107FA000080570475AB338B51346132900D838BDB1
:107FB000134A10605B00013B124A13604FF0A0436C
:107FC000D3F804351840104B186000254C0CC8033A
:107FD0004FF47A72002310F5FA7044EB05011DF09E
:107FE0007FFE2A46014609481BF082FB0028DED1AD
:107FF000034B1A684FF0A043C3F80C25D7E770472E
:10800000E4320020E032002010330020E83200206B
:1080100008B504481BF08EFB0021034B1868FFF7DE
:10802000B6FF08BDE8320020E432002008B50D2379
:108030000BE04FF0A04103F5E072032041F822006D
:1080400001229A40C1F808250133102BF1D9054AC5
:10805000012105481BF036FB00B908BD15F0F6F903
:10806000FBE700BFF97E020078670400F0B1104A18
:108070001060002309E00F4AD25C02F5E0724FF075
:10808000A0410D4841F822000133032BF3D90B4BDB
:108090004FF00042C3F804230020C3F87C01084BD2
:1080A000C02283F8062340221A6070470E207047D2
:1080B000083300207C6704000C00030000600040CF
:1080C00000E100E010B50024144BC3F87C4103E04C
:1080D000D11A14E00134E4B2032C1ED84FF0A043AF
:1080E000D3F810250E4B195D01238B409343F1D03B
:1080F0000C4B1B680C4AD2F80425991AE8D443F2B9
:1081000033339942E6D9084BD3F80425054B1A605E
:10811000064B1B6820469847DCE710BD0060004016
:108120007C6704000C33002000100140083300205D
:10813000002869D02DE9F043CFB00646334B1B68C9
:1081400013F4804F03D0324B1B68032B0BDC2F4BF7
:108150001B6813F4804F03D02D4B1B68032B2ADCC4
:108160004FB0BDE8F08300230F2B0FD8F25C2949F4
:108170000D6810095900285C0DAC04F8130002F0DA
:108180000F020131AA5C62540133EDE70DAA00230E
:108190008DF8543003F1804303F58833D3F8043568
:1081A00002921D4A01921D4A009241221C4904205C
:1081B00006F0C6F9CBE71B4BD3F80435B288F1883B
:1081C000307A747AB57AF77A96F80CC096F80DE0A2
:1081D00096F80E8096F80F90CDF82C90CDF8288068
:1081E000CDF824E0CDF820C00797069505940490BB
:1081F00003910292326801920B4A0092462208498A
:10820000042006F09DF9ABE7704700BF802E0020E8
:108210007C2E0020842E0020E0670400F467040018
:10822000CD67040000100140FC67040072DF704756
:1082300073DF704774DF70472DE9F047A2B007463F
:1082400088469146314C0026C4F80660E6813049E4
:108250000B78C3EB43102F4D054425602E4A024492
:10826000A2601F22A280A281013303F001030B70E0
:108270004FF03C0A5246314613A81DF0A1FE0623DA
:108280008DF84F30ADF8487001238DF84A30ADF8C5
:108290005C3012AA1892ADF83C70ADF84090CDF861
:1082A00044800DEB0A021D928DF87830524631461B
:1082B00068461DF085FE02238DF80030221D2946F8
:1082C00013A814F07DFB90B9104B03F10C029968D0
:1082D000684614F075FB68B9104A0C491048FFF75E
:1082E000A5FF082809D070B922B0BDE8F08715F0C5
:1082F000ADF8E9E715F0AAF8EEE7002203490848CF
:10830000FFF794FFEFE715F0A1F8EDE758330020F1
:10831000143300201833002068330020602E002022
:108320005C2E0020B0F5202F04D2074BA3FB0023C6
:10833000DB0801E04FF6FF7308B103B90123034ADC
:1083400093819160704700BFCDCCCCCC602E0020D3
:1083500008B50121054B1878FFF76AFF18B900200E
:1083600004F0D2FC08BD15F071F8F8E75C2E00208F
:1083700008B5044B1878FFF75DFF00B908BD15F08C
:1083800065F8FBE75C2E002076DF70477ADF7047E8
:108390007CDF704708B515F059F808BD08B503F043
:1083A00061FD08BD00B583B0037823B1012B0BD06C
:1083B00003B05DF804FB3B214088FFF7E5FF002890
:1083C000F6D015F043F8F3E7094B1B6813F4804F20
:1083D000EED0084B1B68032BEADD074BD3F80435BE
:1083E000064A009268220649042006F0A9F8DFE751
:1083F000802E00207C2E002000100140B868040070
:108400009D68040000B583B014F0AEFC68B9002389
:10841000019301A9012014F0DFFB48B901A814F071
:108420002DFC40B903B05DF804FB15F00FF8EEE742
:1084300015F00CF8F2E715F009F8F3E700B585B090
:108440009DF80C30012262F3030362F307138DF8E9
:108450000C3010220F4903A8FFF79AFF98B90023A8
:10846000ADF808307823ADF80430C823ADF80630F5
:108470004FF4C873ADF80A3001A8FFF787FF28B999
:1084800005B05DF804FB14F0E1FFE8E714F0DEFF4F
:10849000F6E700BF3C68040000B58BB00023ADF8E0
:1084A00008307822ADF80420C822ADF806204FF439
:1084B000C872ADF80A200693079301AB039340F608
:1084C000CD4304934FF48033059303238DF8183084
:1084D000064B0893064B099303A814F02BFE10B922
:1084E0000BB05DF804FB14F0B1FFF9E7A5830200BF
:1084F000958302000620704700B587B041F2010362
:1085000098424CD020D944F2010398425DD044F205
:108510000203984274D1464B1B6813F4804F1ED05F
:10852000444B1B68002B1ADD434BD3F804351088ED
:108530000390526802920191404A00926C22404995
:10854000012005F0FDFF0AE0012859D1384B1B68D6
:1085500013F4804F03D0374B1B68002B12DC4FF015
:10856000A0434FF4F032C3F81825C3F80C25EFF3FD
:10857000108372B64DF6AD6C324B1B78002B54D085
:1085800030BFF9E72C4BD3F80435029201912E4A03
:10859000009260222A49012005F0D2FFDFE7244B38
:1085A0001B6813F4804FDAD0224B1B68002BD6DDFA
:1085B000214BD3F8043502920191244A00926322A0
:1085C0001F49012005F0BCFFC9E7194B1B6813F4D4
:1085D000804FC4D0174B1B68002BC0DD164BD3F85F
:1085E00004351068049050680390029192680192DB
:1085F000174A009277221249012005F0A1FFAEE749
:108600000B4B1B6813F4804FA9D00A4B1B68002B3F
:10861000A5DD094BD3F8043501910E4A00927B2267
:108620000749012005F08CFF99E707B05DF804FBCE
:10863000802E00207C2E0020001001408469040060
:1086400031690400782E0020446904006069040048
:10865000A4690400C869040000B583B00023ADF824
:108660000030054B01936A46014644F20200FFF7D1
:1086700043FF03B05DF804FBC469040010B4034673
:10868000044C006859689A68DB680FC45DF8044BB5
:10869000704700BFA83300200B4B0C4A92E8030040
:1086A00083E8030003F10802094903C982E80300D3
:1086B000DA79042161F30712DA711A7A022161F37F
:1086C00087121A72704700BFA833002060000010A4
:1086D000A400001000487047A833002000231F2B7F
:1086E00009D8074901EBC30000224280426001F82B
:1086F00033200133F3E7034B00221A60704700BFB9
:10870000B8330020B834002030B405460F4B1B6846
:1087100000240AE01F230E4A12F83300A0B102EB36
:10872000C3025288AA4207D001341F2C0BD85A1E0C
:10873000002BEFD01346EEE7054A02EBC302526866
:108740008A42F1D100E0002030BC7047B8340020EC
:10875000B833002030B40A4A13680A4C04EBC3054E
:1087600068806960012104F833100B441360202BEA
:1087700001D030BC7047134600221A60F9E700BFF1
:10878000B8340020B8330020F0B416461F4600234A
:1087900000E00133072B0ED81901084C615A8142C1
:1087A000F7D104EB0312D2E90245BD4208BFB4423F
:1087B000EFD1012000E00020F0BC7047C034002061
:1087C0002DE93008C1698269C3884FEA112C4FEA4C
:1087D000016BC2F30C01994217D25B1A1344A3F543
:1087E00000531BEB03044CF10005094A1368591CA4
:1087F000116003F00703808A064A1B01D118D0528A
:10880000C1E90245BDE8300870475B1A1344E8E748
:1088100040350020C0340020C37D002B42D0C378F7
:108820000A7802F0800203F07F0313430B70027892
:108830000B7803F07F0343EAC2130B700378002B1D
:1088400041D030B48378082B14BF002201224B782A
:1088500003F07F0343EAC2134B70C58803F0800323
:10886000C5F3861423434B708A7802F0030242EA70
:108870008502D2B28A70057A02F0FC02C5F3C10407
:1088800022438A70CB7803F01F0343EA4513DBB21F
:10889000CB70427A03F0E00302F01F021343CB7067
:1088A00030BC7047C3780A7802F0BF029B0103F026
:1088B000400313430B70027903F0C00302F03F0240
:1088C00013430B70B3E770470023032B2DD810B46C
:1088D00002E00133032B24D8C3EBC3021401144A72
:1088E000224492F84820012AF3D1114A2244948A62
:1088F000C2899442EDD1C3EBC30214010C4A224455
:10890000D2888A42E5D10A4A2244B2F8582012B1EC
:10891000848AA242DDD1C3EBC3031A010448104488
:1089200000E000205DF8044B70470020704700BF56
:1089300074350020002300E00133032B14D8C3EB6F
:10894000C3021101094A0A4492F84820022AF3D1CD
:10895000064A0A44918A828A9142EDD1C3EBC3034D
:108960001A010248104470470020704774350020F7
:1089700008B9042070470820704700000021174BF9
:108980001B688B4227D90023154A02EBC1025268AB
:108990009A421ED910B40FE060685DF8044B70472E
:1089A00001310E4B1B688B4211D900230C4A02EB9C
:1089B000C10252689A42F3D9094A52F8312002EBB7
:1089C000C30412F833208242E6D00133EEE70020E0
:1089D000E3E70131D3E70020704700BF44350020B2
:1089E0004835002070B58CB006460D4614462C2242
:1089F000002101A81DF0E4FA0F238DF80430ADF832
:108A000008604FF0000365F300038DF80A308DF81D
:108A10000B4001A801F08CFA0CB070BD30B58DB0E0
:108A200005460C462C22002101A81DF0C9FA10238E
:108A30008DF8043002958DF80C4001A801F078FA09
:108A40000DB030BD00B58DB010B913F1020F06D1D5
:108A5000074B186804F080FB0DB05DF804FB0121A2
:108A60008DF804100293039201A801F061FAEFE778
:108A700058350020F8B5069C002962D00F461668CC
:108A80005568D2F808E0D2F80CC0E6602561C4F859
:108A900014E0C4F818C016695569E6612562002221
:108AA00062700278D209227062B30421B9424AD8B6
:108AB000E57D4DB3017801F07F01E1700021A170E7
:108AC0009AB14278920102F4FE52817842EA910210
:108AD000E2808278D20002F01802C17842EA511294
:108AE0002272C27802F01F0262721D460023636286
:108AF0002B78032B21D82A78144B53F82230E362C9
:108B00000020F8BD0121D1E70578C5F38015E57097
:108B1000057805F03F05257142B190F90110002953
:108B200002DB0421A170CBE70821FBE70425A57037
:108B30002944B942C4D90920E3E77846FFF78CFD00
:108B4000D9E70920DDE70920DBE700BFE46904007D
:108B500070B50C461E460378ABB104252A44A260CA
:108B600000F10C032360836A6360C36AE36000233F
:108B70002374204604F06CFE034610B96269154464
:108B80003560184670BD0125E8E72DE9F0418EB04B
:108B90000D4616461C46804600282DD0002D2FD0AD
:108BA000002C31D0636A0233059304F10C00E378A2
:108BB000002B2DD00121A27801AF3B46082A14BF1B
:108BC0000022012204F00DFC0697CDF81C80B2B201
:108BD000ADF820200B9515440C95A3788DF8343012
:108BE000237B022B16D00023ADF8283005A804F013
:108BF000F0FB0EB0BDE8F0817846FFF72DFDCDE724
:108C00007846FFF729FDCBE77846FFF725FDC9E752
:108C10000221D0E723692BB1236909931023ADF812
:108C20002830E3E77846FFF717FDF5E72DE9F04137
:108C300088B004460D46C37D002B3CD0082605FBBA
:108C400006F8637AAB4238D0257201AB324602A9EE
:108C50002046FFF77DFF074648BB4DB994F85330D7
:108C600033B9A369C3F30C03E380012384F85330C1
:108C7000E37D7BB994F8523063B91DBBB4F84A1058
:108C8000A27823468A1AE16E0846FFF77EFF012389
:108C900084F8523007992046FFF7BEFDE16E324658
:108CA000414401981DF063F902A804F0F7FD38462D
:108CB00008B0BDE8F0810C26C1E7B4F84A60A6EB25
:108CC0000806C1E77846FFF7C7FCD7E770B5054649
:108CD0000E4609B100230B6095F85040002104E0D6
:108CE000631C85F850300134E4B26B7AA34210D390
:108CF000EA6C0123A3401A42F5D121462846FFF72A
:108D000095FF014628B9002EEAD03368013333605D
:108D1000E6E7084670BDF0B589B085781544C37D97
:108D20007BB10B239D4224D816460F46044601AB67
:108D30002A4602A9FFF70CFF054620B1284609B0D4
:108D4000F0BD0F23EEE707992046FFF765FDE37DB1
:108D500043B13246394601981DF009F902A804F0E2
:108D60009DFDEBE72346324601993846FFF70DFF9C
:108D7000F4E70925E2E7000010B5044690F8483012
:108D8000012B0CD103F09AFB237B012B0BD0094B59
:108D9000D968014404F1300003F066FB10BD784649
:108DA000FFF75AFCEEE7A37D024AD168126902FB85
:108DB0000311EEE75C35002030B583B0002403E0FA
:108DC0002846FFF7D9FF0134032C19D8C4EBC4039C
:108DD0001A010C4B134493F84830012BF3D10023B4
:108DE0000193C4EBC4021301064D1D4401A928469A
:108DF000FFF76CFF0428E3D0019B002BE3D0DFE7F3
:108E000003B030BD7435002038B5044690F84830C2
:108E1000022B09D1064B1D6803F050FB411904F1E8
:108E2000300003F021FB38BD7846FFF715FCF1E771
:108E30005C35002038B5044690F84830022B10D13C
:108E40000A4B5D7D5A689B6803FB052503F036FBE2
:108E5000411904F1500003F007FB012384F8683046
:108E600038BD7846FFF7F8FBEAE700BF5C35002025
:108E700038B504460B460978C170002141629968F3
:108E80000B2903D8197B51B3012100E00121217086
:108E90000020A07029B199680731C90801396172B1
:108EA00020720121E17504F10C0503F1100103C9E1
:108EB00085E80300D989A18299692162197FA1758A
:108EC0001B6AE362A26220461CF06AF830B1237B81
:108ED000012B06D0E36A43F02003E36238BD002192
:108EE000D5E72023E362F9E710B50446808A02F053
:108EF0004BFE01281CD1237BE3B194F91620002AF4
:108F00001ADBE27D4AB1022B18D094F90330002B12
:108F100016DBA378B3B900200BE0E2780AB9012B85
:108F200012D1237893B9A378042B11D1002000E04B
:108F3000102010BD1020FCE70720FAE71020F8E70A
:108F40000720F6E70720F4E70720F2E70020F0E724
:108F50000720EEE738B5044603784BB1C388C269F1
:108F60008169808A06F0D8FC054645B9284638BD97
:108F7000C2698169808A06F0C9FC0546F5E7E169A6
:108F8000002201F00101A08AFFF72CFDEEE70000AE
:108F90002DE9F04780460E4617464B1EDBB2012BEB
:108FA0000FD8B7F5C07F10D80024032C1AD8C4EB13
:108FB000C4031A01304B134493F848304BB10134C9
:108FC000F3E77846FFF748FBEBE77846FFF744FB0B
:108FD000EAE7DFF8A4A015465544384608F0C3FE7A
:108FE000E86600E000255DB3EB6E002B42D04346FF
:108FF0002A4608F1300ED3F800C05C689868D9683A
:10900000C2F800C054609060D160103310327345D4
:10901000F1D10023EB64A5F84A70012E13D06FF054
:109020000103AB62002385F86830144BAB652D66F5
:10903000134BAB632D64012002F082FA85F848607F
:109040002846BDE8F0870F4B1B7D85F85130002383
:1090500085F8523085F8533085F85030D8F82820FC
:109060006A65A5F858306FF00103AB62064BAB633D
:109070002D64E0E70025E3E774350020BB9A020089
:10908000DD9302005C3500202994020000B585B014
:1090900000238DF80F3098B10346084602330B6069
:1090A0000DF10F0104F099F99DF80F3043B10D4B0C
:1090B0001B6813F0040F03D00B4B1B68032B04DC5D
:1090C0009DF80F0005B05DF804FB084BD3F804359C
:1090D000074A009240F206420649042005F030FAA1
:1090E000EEE700BF802E00207C2E00200010014003
:1090F000146B0400076B04002DE9F0438FB00446A5
:109100000E4615461F46D0F8188003784BB1C38829
:10911000C8F30C029A4241D29B1A4344A3F5005370
:10912000A36104F10C00E378002B3AD00121A2786E
:109130000DF128094B46082A14BF0022012204F031
:1091400050F9C4F81880CDF808900396A378EA1A6D
:1091500092B2ADF810203244089207978DF824306F
:109160000023ADF81830E3787BB3237B022B1AD0B1
:109170002546002345F8243F2A462179206A0FF02E
:1091800023FF606AA8B101A9FFF780FF002841D141
:109190002A462179206A0FF017FFF2E79B1A434411
:1091A000BEE70221C3E71023ADF818302369059309
:1091B000DEE7237B022B31D104F10C01E0890FF0B3
:1091C000B5FF0028D1D1052025E0237B012B01D05C
:1091D000052020E0E389ADF80030A38AADF8023025
:1091E000002500E00135012D12D82146002341F869
:1091F000243F0EAB03EB450333F8380C0FF001FFAF
:1092000001A9606AFFF742FF0028EBD0002002E0CE
:10921000052000E000200FB0BDE8F0830520FAE74C
:1092200070B5F0B00D4614461E4610AB0A46014616
:109230002046FFF761FF50B1224B1B6813F0040F6B
:1092400003D0214B1B68052B2FDC70B070BD20466E
:10925000FFF780FE0028F8D103AB01228DF80C2027
:10926000A28AADF80E20002204928DF8142010AAD4
:109270000692A278AD1AADF81C5008AA93E8030034
:1092800082E803000AAB04F10C0292E8030083E8D1
:109290000300A37D8DF83830236A0C93636A0D9325
:1092A0000F9605A800F044FECFE7084BD3F804352D
:1092B000074A009240F2F2620649062005F040F9A2
:1092C000C3E700BF802E00207C2E0020001001404C
:1092D000646B0400076B040010B50446C06E08F010
:1092E00046FD04F1300003F0A7F894F84830022B53
:1092F0000AD07022002120461CF062FE002084F873
:10930000480002F01DF910BD04F1500003F094F87C
:10931000EFE710B58CB0044690F84830012B0CD123
:1093200001238DF80430636D029301A800F000FE64
:109330002046FFF7D1FF0CB010BD7846FFF78CF93F
:10934000EEE7000030B585B00D460446D0B1E188A7
:1093500094F84830022B19D094F84830022B1ED0D4
:109360002946606DFFF75AFB2046FFF7B5FF164B05
:109370001B6813F0040F03D0144B1B68032B12DC83
:1093800005B030BD7846FFF767F9E0E7637813F082
:10939000020FE1D00022A08A1BF060FEDCE720462D
:1093A000FFF70EFADCE70A4BD3F8043594F84820AF
:1093B00002950192074A00924FF4FA72064904207E
:1093C00005F0BEF8DCE700BF802E00207C2E0020D8
:1093D00000100140046A0400076B040008B5084649
:1093E0000021FFF7AFFF08BD08B5037B012B02D0BA
:1093F000FFF78FFF08BD0121FFF7A4FFFAE7000088
:1094000008B590F8513053B1013B80F8513000233A
:1094100080F85030034B186803F09EFE08BDFFF73C
:10942000E3FFFBE75835002010B50C4691F84830B3
:10943000012B03D12046FFF7E3FF10BD7846FFF76D
:109440000BF9F7E7062976D1F0B585B01546027815
:10945000910101F4FE5147788478C3781B0443EAF4
:109460000463047943EA042344791C4356B241EA75
:1094700097012846FFF728FA0746E0B1002E2FDBB8
:10948000C289A98A8A422BD02B4B1B6813F0040F88
:109490003ED02A4B1B68012B3ADD294BD3F804350B
:1094A00002910192274A00924FF4CE62264902208F
:1094B00005F046F82CE0204B1B6813F0040F27D072
:1094C0001E4B1B68012B23DD1D4BD3F804351F4AAF
:1094D00000924FF4CD621C49022005F031F817E0EC
:1094E000002E17DBFD6C2543FD64BCB13B78D3B186
:1094F0007B7A5A1C01239340013B9D4217D00021E7
:1095000087F850103846FFF7E1FB3846FFF734FC88
:1095100005B0F0BDAB8AA7F85830E3E70321384621
:10952000FFF710FFF4E77846FFF796F8E0E73846D4
:10953000FFF7EFFEECE77047802E00207C2E002026
:10954000001001406C6A0400076B04003C6A0400D0
:109550002DE9F0438BB007460E4614461D461046D3
:10956000FFF7F8FC50B994F80380B8F1000F08D168
:109570002B46224631463846FFF764FF0BB0BDE864
:10958000F0834046FFF7FAF981460028F6D08DF8BF
:109590000480236A0793A38AADF8123005AB04F167
:1095A0000C0292E8030083E80300A37D8DF82030CD
:1095B0000297039623788DF81030E36A09932946C1
:1095C00001A8C847DAE710B5547814F0010F03D0AA
:1095D000D47D14B1FFF7BCFF10BDFFF721FEFBE700
:1095E000F8B505460E4614461F46537813F0020F91
:1095F00006D13B462246711E681CFFF7E4FFF8BD0A
:109600000123C9B21BF03EFCF3E70000F0B5C7B080
:1096100086781644C37D2BB14FF48073B3427ED35A
:10962000002303E04FF4C073F8E70133032B19D88C
:10963000C3EBC30425013C4C2C4494F84840012C56
:10964000F3D1394C2C44A58A848AA542EDD1C3EBD1
:10965000C3042501344C2C44E589C489A542E4D1D6
:10966000082455E014460F4632460121FFF790FCCE
:109670000546002855D022463946C06E1CF077FCBE
:109680000023459345A92846FFF720FB044608B16F
:10969000042840D1459B7BB9244B1B6813F0040F71
:1096A00035D0234B1B68032B31DDB5F84A70802F72
:1096B00028BF8027002313E02846FFF75DFBEBE778
:1096C000EA6ED25C1B490C6810095900265C04A89C
:1096D00000F8136002F00F020131A25C4254013322
:1096E000BB42EDD304AA002302F8173003F18043F4
:1096F00003F58833D3F8043502920F4A01920F4ADA
:10970000009240F255520E49042004F019FF002443
:10971000204647B0F0BD2846FFF7DEFDF8E70924F4
:10972000F6E70424F4E700BF74350020802E002003
:109730007C2E0020842E0020B06A0400F467040010
:10974000076B040070B504460D461646FFF7CCFBC8
:10975000034638B923783BB1324629462046FFF705
:1097600055FF0346184670BD324629462046FFF78E
:10977000D2FA0346F6E7000038B504460D46CB6939
:109780005B780371CB691B7883F00103C370CB69ED
:1097900043628B8A0B2B07D8CB7A002B40D10B7BF3
:1097A000012B02D0002300E001232370002B3CD0CA
:1097B000287B022836D0FFF7DBF8A070AB8A034481
:1097C0000B331E4880FB03235B10013B63720023B5
:1097D00023720023E37504F10C0395E8030083E88A
:1097E0000300AB6923622B89A382AB7AA3752B6A32
:1097F000A362DF23E36228460FF012FE20B12B782C
:10980000012B15D0FF23E36220461BF0C9FB30B1CA
:10981000237B012B0ED0E36A43F02003E36238BDC3
:109820000123C2E7064B987DC5E70423A370D0E768
:109830002023E8E72023E362F1E700BFABAAAA2ACE
:109840005C35002010B54FF4E072002113481CF085
:10985000B7FB06F029FA0024114B1C608022214638
:1098600010481CF0ADFB104B104A1A60104A5A60A9
:109870004CF250329A600F49D9601A6104221A756D
:109880009C7508225A750C4803F046FC0B4B186077
:109890000B4B1C600B4806F001FB10BD743500201B
:1098A00040350020C03400205C35002080969800B0
:1098B000F049020020A10700AD9A020058350020AF
:1098C00044350020458A020008B506F017F808BDA7
:1098D00098B110B58CB00446036983B1C36983B1F4
:1098E000836983B101466846FFF746FFA28A216972
:1098F0006846FFF727FF0CB010BD0E2070470E2002
:10990000F9E70E20F7E70E20F5E7000058B310B591
:1099100090B00446426842B3826942B30A460146A7
:1099200004A8FFF7A5FA134B1B6813F0040F03D02C
:10993000114B1B68062B06DCA268616804A8FFF7C0
:1099400001FF10B010BD0D4BD3F804352278A1698A
:10995000029101920A4A009240F2F57209490720E9
:1099600004F0EEFDE8E70E2070470E20E9E70E2038
:10997000E7E700BF802E00207C2E00200010014071
:10998000286B0400076B0400037B012B01D000202F
:10999000704730B58FB00D4604462C4B1B6813F44E
:1099A000007F03D02A4B1B68032B3EDC02A9002357
:1099B0000393CDF80F30E288C2F3861092008DF841
:1099C00009202A0E8DF80A202A0C8DF80B202A0A6D
:1099D0008DF80C208DF80D506278022A14BF0022F9
:1099E000012240EAC2128DF80820062207920122C5
:1099F0008DF82420A28AADF826200A938DF8143021
:109A00000691226A0B928DF82030E389ADF822305E
:109A1000E36A0D93A37DA3B98DF830306FF0010197
:109A200005A8FFF773FF0FB030BD0A4BD3F804351C
:109A3000094A009240F262220849042004F080FDA5
:109A4000B4E7074B5B7D8DF83030E7E7802E0020D0
:109A50007C2E002000100140F4690400076B040014
:109A60005C35002090F84830022B00D0704790F809
:109A70006830022BFAD110B50446C16CFFF784FFA1
:109A800010B9002384F8683010BD000010B5002420
:109A900007E0C4EBC402130103481844FFF7E2FFD8
:109AA0000134032CF5D910BD7435002008B5FFF73B
:109AB00083F9FFF7EBFF012008BD10B50C4691F8C4
:109AC0004830022B06D1022384F868302046FFF785
:109AD000C9FF10BD7846FEF7BFFDF4E72DE9F0435E
:109AE00083B00446C5698269C388290A2806C2F37F
:109AF0000C05AB4234D95B1B1344A3F50053C618C5
:109B000041F1000732463B46A08AFEF73DFE0028A1
:109B100040F0A6802046FEF70DFF054658B3D0F86A
:109B20001CC08269C3884FEA1C294FEA0C68C2F343
:109B30000C0C9C4517D2A3EB0C031344A3F5005364
:109B400018EB030049F10001B94208BFB0420ED33F
:109B50008F4208BF86423AD3284603B0BDE8F0835F
:109B60005B1B1344CBE7A3EB0C031344E8E705218D
:109B70002846FFF7E7FBE388E269A169A08A05F0C0
:109B80008FFF30BB32463B46A08A1BF08BFA002881
:109B900039D1627A531CE17D002944D0082202FBAE
:109BA00003F2002941D04FF48073934240D3022145
:109BB0002046FFF7EDF905460028CDD100212046CB
:109BC000FFF7E2FE02210020FEF728FFC4E7002590
:109BD000C2E7E388E269A169A08A05F0DFFF60B10E
:109BE000237863B1617A4B1C0121994001392046E9
:109BF000FFF7CAFE2046FFF7ADF90025ACE778462F
:109C0000FEF72AFDEEE723784BB1617A4B1C012168
:109C1000994001392046FFF7B7FE00259CE77846BA
:109C2000FEF71AFDF1E70C22B9E74FF4C073BCE769
:109C30000C4B1B6813F0040F03D00B4B1B68002B5D
:109C400001DC002588E7094BD3F804350192084A66
:109C500000924FF45C720749012004F071FCF0E7B8
:109C6000002579E7802E00207C2E00200010014086
:109C7000286A0400076B04002DE9F04782B007460C
:109C80000E46154698461046FFF728FF00284ED08E
:109C900004464D4B1B6813F0040F03D04B4B1B685D
:109CA000032B47DC2046FFF7AFF8237B012B4FD077
:109CB000E26C297A01238B401A4238D11343E364C2
:109CC000A6F1040A2B7AEA7D002A49D04FF0080C4D
:109CD0000CFB03FC617A8B4245D0002A48D0082354
:109CE000534547D1A269AB699A420BD204F10C0EDD
:109CF00005F10C09B9E80F00AEE80F0099E8030080
:109D00008EE80300E06E5246391D60441CF02FF9C6
:109D10006B7813F0020F32D1E66C2378002B35D02C
:109D2000637A5A1C01239340013B9E4232D002B019
:109D3000BDE8F087264BD3F804352A7A0192254AEC
:109D400000924FF465722449042004F0F9FBA9E75E
:109D500094F86830002BABD12046FFF76BF8A7E7EB
:109D60004FF00C0CB4E70CEB0A03A4F84A30B9E747
:109D70000C23B5E704212046FFF7E4FAD7E70123D7
:109D80002A46F1B238461BF07DF8C5E77846FEF763
:109D900063FCC5E7E16C2046FFF7F6FD6B7813F036
:109DA000020F0AD143462246B4F84A10E06EFFF78C
:109DB0000AFC2046FFF790FAB9E70122E988A88A51
:109DC0001BF04CF9EEE700BF802E00207C2E002017
:109DD00000100140546B0400076B04002DE9F041B2
:109DE00090B0002856D08046002A55D01F46144611
:109DF0000E4604AB00933B46FEF73CFE054618B109
:109E0000284610B0BDE8F08104A8FFF76DF80546BC
:109E10000028F5D104A81BF0C3F828B19DF8113033
:109E200043F002038DF8113000230293039302A93B
:109E300060880FF07BF928B19DF8113043F00103E1
:109E40008DF811302269E168208905F0E1FD38B113
:109E50009DF8113003F0FE038DF81130002BCFD0A8
:109E60009DF81130002BCBD013F0010F01D0039BD4
:109E700008939DF8103033B13B4604AA3146404662
:109E8000FFF7FAFEBCE73B4604AA31464046FFF71F
:109E9000A7FBB5E70E25B3E70E25B1E718B3F8B574
:109EA0000546174B1F68012F1FD80E460024B442E9
:109EB0000ED205EBC4035B68CBB115F8340010F08B
:109EC000800F16D1B8B1FEF759FDB0B90134EEE7F5
:109ED0000C4B43F8375003EBC7035E600137084A69
:109EE0001760002002E00E2070470420F8BD0E200D
:109EF000FCE70B20FAE70F20F8E70F20F6E700BF9A
:109F00004435002048350020084B196861B110B570
:109F100004E0064804F07DFA214624B10C680B7970
:109F2000002BF9D0F5E710BD704700BF383700208F
:109F300038B5054630B1104B1C68ACB10F4B01224F
:109F40001A7004E07846FEF787FBF4E724683CB11A
:109F50002379002BFAD154F8043C28469847F5E7BA
:109F6000064B1B78022B00D038BDFFF7CDFF034B0B
:109F700000221A70F8E700BF38370020343700207D
:109F800010B5044630B100232372211D034804F0AC
:109F900015FA10BD7846FEF75FFBF4E7383700206E
:109FA00010B5044658B10A4B1B78013BDBB2012BBC
:109FB00009D8074B02221A700123237210BD78467C
:109FC000FEF74AFBEFE7211D024804F022FAF5E70D
:109FD00034370020383700200A8883689B5A0733BB
:109FE0009BB223F0030313449BB20288043A9342CA
:109FF00000D900230B80704710B582B004468368F7
:10A00000C91AADF806100DF10601FFF7E5FFBDF81E
:10A010000630A068184402B010BD0088043880B231
:10A02000704743888268D018D152012383707047EB
:10A03000826800239370438083807047073189B220
:10A0400021F0030189B2428883889A4204D29B1A84
:10A0500099421EDC0020704710B59A420FD904883F
:10A06000A41AA14217D98B4217D3032C03D98368B2
:10A07000134404229A7000234380184604E0826847
:10A0800013449B780BB1042010BDFFF7D1FF0020D3
:10A09000FAE7042070470020F6E70420F4E738B51B
:10A0A00004460D468368828813448B4202D078466A
:10A0B000FEF7D2FA0023AB70211D2046FFF78CFF7C
:10A0C000A288A36813449B78042B00D038BD0023DA
:10A0D000A380FBE710B50C468368428813448B428B
:10A0E00002D07846FEF7B8FA0023A37010BD70B511
:10A0F000064615460C46002944D0002E46D0B4F141
:10A10000005F08D94FF08053D3F80C3103F50023DA
:10A11000B4EB832F0ED3B4F5000F08D94FF0805362
:10A12000D3F80C3103F50053B4EB832F02D37846F8
:10A13000FEF792FA6B1E2344B3F1005F08D94FF08B
:10A140008052D2F80C2102F50022B3EB822F0ED3FD
:10A15000B3F5000F08D94FF08052D2F80C2102F568
:10A160000052B3EB822F02D37846FEF775FA042D26
:10A1700010D9358000237380B380B460043D2580FE
:10A18000A37070BD7846FEF767FAB6E77846FEF72B
:10A1900063FAB4E77846FEF75FFAEAE738B50446B3
:10A1A000A0B16288A36813449B78012B12D0EFF30F
:10A1B000108572B6A388A16819448B78032B0DD043
:10A1C0002046FFF735FF05B962B638BD7846FEF781
:10A1D00043FAE6E77846FEF73FFAE8E72046FFF75E
:10A1E0000BFFA368C31A638000238370EBE72DE99C
:10A1F000F0410E4615460446D0B1EEB16288A36820
:10A2000013449B78012B1BD025B32046FFF705FF95
:10A21000A84221D3EFF3108872B629462046FFF7F3
:10A220000DFF074680B1B8F1000F16D162B614E0F9
:10A230007846FEF711FAE0E77846FEF70DFADDE71B
:10A240007846FEF709FADFE729462046FFF7E9FEE0
:10A250003060E8E7092700E009273846BDE8F081CB
:10A26000F8B50C4616460546E0B1FCB1A378012BC3
:10A2700020D12388B34221D326B3EFF3108772B6DF
:10A2800026800223A370E9182846FFF7A5FE6B88F5
:10A29000AA88934203D0AA68134400229A7007B98F
:10A2A00062B6F8BD7846FEF7D7F9DEE77846FEF7E6
:10A2B000D3F9DBE77846FEF7CFF9DAE77846FEF721
:10A2C000CBF9D9E77846FEF7C7F9D6E770B50D4662
:10A2D000044690B1ADB1EFF3108672B6A288A368C0
:10A2E00013449A78042A10D09A78022A15D0032AA7
:10A2F00018D0052006B962B670BD7846FEF7ACF9F5
:10A30000E8E77846FEF7A8F9E5E7211D2046FFF7C4
:10A3100063FEA288A3681344E6E703229A702B60C9
:10A320000020E7E77846FEF797F90020E2E738B526
:10A33000044680B1EFF3108572B6A088A16801448D
:10A340008B78042B0BD08878022814BF00200120C2
:10A3500005B962B638BD7846FEF77EF9EAE72046D1
:10A36000FFF74AFE0146EEE738B5044678B1EFF351
:10A37000108572B6A088A16801448878C31EDBB23C
:10A38000012B08D82046FFF737FE0146F5E778464F
:10A39000FEF762F9EBE7022814BF0020012005B99F
:10A3A00062B638BD70B50C46064678B194B1EFF38D
:10A3B000108572B6A378012B10D0032B13D1214640
:10A3C0003046FFF76CFE05B962B670BD7846FEF701
:10A3D00043F9EBE77846FEF73FF9E8E721463046D8
:10A3E000FFF778FEEFE77846FEF736F9EBE710B5B2
:10A3F000EFF3108472B68388816819448B78042B3C
:10A4000006D08878B0FA80F0400904B962B610BD71
:10A41000FFF7F2FD0146F4E708B5064B9868002205
:10A420001A605A609A60DA601A615A619A6105F09E
:10A4300005F808BD3C37002000B585B00A4BDB6845
:10A4400002228DF8002001934FF480530293074AB3
:10A450006946012001F0AEFA18B9012005B05DF897
:10A4600004FB0020FAE700BF3C37002058370020EB
:10A4700000B585B00A4B1B6802228DF800200193BD
:10A480004FF480530293074A6946012001F092FA83
:10A4900018B9012005B05DF804FB0020FAE700BF01
:10A4A0005C37002058370020164BDA681379517951
:10A4B0005B1A03F57F2303F6FF7302EB03339A4223
:10A4C00005D002F580520F4BDA600320704700B5CB
:10A4D00085B00D4B1B6801208DF8000001930B4BDC
:10A4E0000393042302930A4A694601F063FA18B100
:10A4F000002005B05DF804FB024B01221A76022011
:10A50000F7E700BF3C3700205C37002060370020B1
:10A510005837002000B585B00C4BDA680C4B1B682F
:10A52000043301208DF800000192039340F6FC7380
:10A530000293084A694601F03DFA18B90120034B1D
:10A54000187600E0002005B05DF804FB3C370020E1
:10A550005C3700205837002000B585B00A4B1B68D7
:10A5600001208DF800000193084B0393042302930C
:10A57000074A694601F01EFA18B9012005B05DF8D6
:10A5800004FB0020FAE700BF5C37002048370020BA
:10A590005837002010B584B0104BDA681478104B8F
:10A5A0001B68043301208DF800000193039202948C
:10A5B0000C4A694601F0FEF968B9094B1B6804F0C2
:10A5C000FC041C440434054B5C61D9680A780A44D5
:10A5D0001A61012000E0002004B010BD3C370020CB
:10A5E0005C3700205837002008B50023092B09D814
:10A5F000064A52F82320824201D00133F6E7044A8A
:10A60000536002E07846FEF727F808BD246C04008A
:10A610003C37002010B5214BDB6853B11F4B1B7E2C
:10A620005BB91E4B5B68092B26D97846FEF714F8F8
:10A6300022E07846FEF710F8F0E77846FEF70CF8CF
:10A64000EFE7164A536801335360092B21D9784646
:10A65000FEF702F81DE0114B00225A6019E00F4B83
:10A660001B7E1BB10D4B02221A7012E0FFF7D4FEC5
:10A670000FE00A4B1B7E83B9084B5A68084B53F80E
:10A680002230984704460228E9D00328E3D0012865
:10A69000D7D0012CEDD0032CEBD010BD3C370020DF
:10A6A000246C0400104B1B681B685A1E12F1030F28
:10A6B00018D8C3F30B020AB10020704710B50B4A3B
:10A6C000D3600023137653760124147093600848F6
:10A6D000FFF78AFF0749204601F05AF9FFF79AFF72
:10A6E000204610BD002070475C3700203C3700201A
:10A6F00039A40200F9A6020008B50B78032B06D096
:10A700000B4B1B78012B06D0022B0BD008BD084B3E
:10A7100000221A76F4E7064B1B7E002BF6D1FFF7DA
:10A7200079FFF3E70B78032BF0D1FFF775FEEDE728
:10A730003C37002000B585B0174BDB6818784FF622
:10A74000FF7203F58051184405F05DFBF0B102463D
:10A75000114BD9680B780B44984219D00E4B5B7E95
:10A7600093B10E4B01208DF8000001920393042356
:10A7700002930B4A694601F01DF958B90120064BB6
:10A78000187605B05DF804FB064BEBE70120F8E70F
:10A790000120F6E70020F4E73C370020A46E040017
:10A7A00058370020A06E040008B5104BDB681878FD
:10A7B000002203F58051184405F025FB08B1012063
:10A7C00008BD0A4BDA68137951795B1A03F57F23C8
:10A7D00003F6FF7302EB03339A4205D002F5805271
:10A7E000024BDA600320EBE70220E9E73C37002068
:10A7F000F0B585B0514BDD686A792B79591E8A42D4
:10A8000014D005F580510C780C444D490968081D99
:10A810000E7906449B1A05EB03356388013B9BB216
:10A8200047F6FE62934260D927461BE00120434B66
:10A8300058767EE07846FDF70FFF16E027F47F6339
:10A8400023F00F0303F580531A7813449D4247D930
:10A850009C4247D25A88013A92B21F4647F6FE619F
:10A860008A4210D93B88002BE4D03B8807EB830356
:10A8700023F47F6222F00F029342DFD07A88B2F590
:10A88000FE4FE3D1DAE71C462FE07846FDF7E4FE01
:10A8900016E027F47F6323F00F0303F580531A7843
:10A8A00013449D4220D99C423BD25A88013A92B22D
:10A8B0001F4647F6FE618A4210D93B88002BE4D040
:10A8C0003B8807EB830323F47F6222F00F0293425D
:10A8D000DFD07A88B2F5FE4FE3D1DAE71C4604E018
:10A8E000002402E0002400E00024E4B1144B1968C5
:10A8F000628801F58051304605F085FA064690B130
:10A9000001200E4B18768DF8000001940D4B039337
:10A91000042302930C4A694601F04CF858B92746C3
:10A92000CBE70024E1E7B4FA84F46409034B5C76D6
:10A93000012005B0F0BD0020FBE700BF3C37002040
:10A940005C3700209C6E0400583700202DE9F04150
:10A9500086B0644B1B6923B1624B5B692BB1002746
:10A9600048E07846FDF778FEF6E77846FDF774FE96
:10A97000F5E77846FDF770FE17E028F47F6323F0D3
:10A980000F0303F580531A7813449E421FD99C424B
:10A9900021D25A88013A92B2984647F6FE618A421D
:10A9A00013D9B8F80030002BE3D0B8F8003008EB2A
:10A9B000830323F47F6222F00F029342DDD0B8F8C4
:10A9C0000220B2F5FE4FE0D1D7E71C4600E000249C
:10A9D0001CB1009438E00024FAE700230093019BA7
:10A9E000002B5AD10127002C76D0628847F6FF73DE
:10A9F0009A4271D0002F73D13A4B5A6922F47F6585
:10AA000025F00F05AD1A05F580551C69DE68337910
:10AA100072799B1A06EB0336002301936388013B8E
:10AA20009BB247F6FE629342D3D9A046B9E7784677
:10AA3000FDF712FE23E024F47F6424F00F0404F5F4
:10AA40008054237823441C46A642C8D92388019AFF
:10AA500002EB83029542C2D9009B634023F47F63DB
:10AA600023F00F03002BBAD16388013B9BB247F65A
:10AA7000FE618B42B3D801922388002BD7D0238864
:10AA800004EB830323F47F6222F00F029342D2D0BF
:10AA90006288B2F5FE4FD6D1CDE7124A5269012045
:10AAA0008DF808000392009A059204930E4A02A9B9
:10AAB00000F080FF70B90B49019B23F003024B6942
:10AAC00013444B6114B1074B1C618CE77846FDF7CA
:10AAD000C3FDF8E7002000E0012006B0BDE8F081EA
:10AAE0000120FAE73C3700205837002000B585B038
:10AAF00040F6F8731B68B3F1FF3F09D0B3F1FF3F95
:10AB00000CD07BB1B3F1FF3F37D0A3F580520FE0FB
:10AB10001E4A1268B2F1FF3FF0D103E01B4A1268EF
:10AB2000002AEFD14FF080514B690A6902FB03F212
:10AB3000A2F58052164B1A60164B1B6813F4801F47
:10AB400016D0154B1B68062B12DD144BD3F80435B9
:10AB500040F6F8710968B1F1FF3F13D002920191FC
:10AB60000F4A00924FF41A720E49072003F0E8FCD6
:10AB7000FFF798FD05B05DF804FB044B1A68A2F5D9
:10AB80008052D5E701490968E8E700BF14100010BA
:10AB90005C370020802E00207C2E00200010014019
:10ABA000F06B0400D76B040010B50446B0B1104B35
:10ABB0001B78BBB10E4BD968E3685879A3EB003220
:10ABC000914211D31A79121A02F57F2202F6FF720E
:10ABD00003EB0233994209D8012004E07846FDF7DF
:10ABE0003BFDE4E7002010BD0020FCE70020FAE771
:10ABF0003C370020024B1878003018BF0120704706
:10AC00003C37002010B504460E4B1B7893B92378CF
:10AC1000032B13D10B4B9C60E268DA6000225A6070
:10AC20001A76012018705A76074900F0B1FEFFF736
:10AC3000F1FC10BD7846FDF70FFDE8E77846FDF71B
:10AC40000BFDE7E73C370020F9A60200014B18682E
:10AC5000704700BF5C37002010B5044680B16368C0
:10AC60001BB123680BB1A36813B97846FDF7F4FC58
:10AC7000A3685A1E134207D10023E360236110BD6D
:10AC80007846FDF7E9FCEAE77846FDF7E5FCF3E7EF
:10AC900070B5F0B104468368EBB1EFF3108572B67E
:10ACA0000369C068834210D0084621686268A668BC
:10ACB000013E334003FB021108B11BF058F9236930
:10ACC000013323614DB962B608E005B962B60525C6
:10ACD00004E00E2502E0092500E00025284670BDAD
:10ACE000C0F30B033BBB41B301F6FF71090B144BDF
:10ACF0000222C3F80425124BD3F80034002BFAD0FB
:10AD0000002202E000F5805001328A4208D20C4B4A
:10AD1000C3F808050A4BD3F80034002BFAD0F1E74A
:10AD2000074B0022C3F80425054BD3F80034002B51
:10AD3000FAD000207047102070470920704700BFEC
:10AD400000E0014010F0030F2FD111F0030F2FD1BD
:10AD500082B312F0030F2FD110B49208174B0124C5
:10AD6000C3F80445154BD3F80034002BFAD002E0A9
:10AD7000043004312246541E52B10B68B3F1FF3F38
:10AD8000F6D003600D4BD3F80034002BFAD0EFE778
:10AD90000A4B0021C3F80415084BD3F80034002BEC
:10ADA000FAD010465DF8044B7047102210467047E9
:10ADB0001022FBE70922F9E70922F7E700E001404A
:10ADC000094B1B7813F0040F02D00378122B00D02C
:10ADD0007047064B1A68064B5A60034B1A786FF39C
:10ADE00082021A70F4E700BFF8370020E83700202D
:10ADF0009437002010B582B001900C46000C012859
:10AE000010D12368094A136009490B7843F0010304
:10AE10000B705B0883F0010303F001031371002042
:10AE200002B010BD7846FDF717FCEAE7E8370020CE
:10AE3000F837002010B582B001900C46000C0228B3
:10AE40000FD12268094B1A6022791A7100205871BB
:10AE50009871D871064A137843F00203137002B058
:10AE600010BD7846FDF7F8FBEBE700BFE0370020A8
:10AE7000F837002010B582B001900C46000C032872
:10AE800006D1054B186820601B79237102B010BDF4
:10AE90007846FDF7E1FBF4E7E837002010B582B013
:10AEA00001900C46000C03280CD1084B2068186058
:10AEB00022791A71064A137843F0010313700020B7
:10AEC00002B010BD7846FDF7C7FBEEE7E83700207B
:10AED000F837002010B582B001900C46000C042811
:10AEE00005D1054B03CB2060616002B010BD7846F0
:10AEF000FDF7B2FBF5E700BFE037002010B582B0E8
:10AF000001900C46000C04280BD1084B20686168A6
:10AF100003C3074A137843F002031370002002B002
:10AF200010BD7846FDF798FBEFE700BFE037002043
:10AF3000F837002000B583B00190000C032806D13B
:10AF4000054B00221A601A7103B05DF804FB7846C5
:10AF5000FDF782FBF4E700BFE837002000B583B0BF
:10AF60000190000C042806D1054B00221A605A609B
:10AF700003B05DF804FB7846FDF76EFBF4E700BF15
:10AF8000E037002010B582B00024ADF80040012366
:10AF9000ADF80230009806F088F8ADF804400223BE
:10AFA000ADF80630019806F080F802B010BD000040
:10AFB000154B1B7813F0040F25D100B585B0134B4A
:10AFC0005B6803F500530193B3F1807F02D905B0AC
:10AFD0005DF804FB0E4B1B788DF808300A4A137895
:10AFE00043F0040313700023ADF80C300323ADF8D5
:10AFF0000E3001A9039806F027F80028E7D078461C
:10B00000FDF72AFBE3E77047F8370020943700206C
:10B01000F937002000B585B0002202920F4B9968E5
:10B0200001911B7B8DF808300D490B780133DBB2A1
:10B030000B708DF80B30ADF80C200423ADF80E30FA
:10B040000DEB0301039805F0FFFF10B905B05DF8A3
:10B0500004FB7846FDF700FBF8E700BF94370020BB
:10B06000F937002000B585B00F4B9A6801921A7B22
:10B070008DF808201B8AADF809300C4B1B788DF831
:10B080000B300023ADF80C300423ADF80E300DEB7F
:10B090000301039805F0D8FF10B905B05DF804FB73
:10B0A0007846FDF7D9FAF8E794370020F937002001
:10B0B00000B58DB00B4B1B7B012B0ED0094A92685B
:10B0C00004928DF80830039002238DF8043001A813
:10B0D000FEF72EFF0DB05DF804FB024A9268013ABC
:10B0E0000492EEE79437002008B51B481B4B036021
:10B0F00000F0B0FE1A4B1B7813F0200F25D103F09F
:10B100000303032B14D1174B1968174A916019795F
:10B110001173B3F805001082DB79144A1370144AD6
:10B120001279934212D089B90F4B00221A6007E0BE
:10B130000D4B00221A609A601A731A82FFF76AFF99
:10B14000094B1A685A60FFF733FF08BD084B1A68AD
:10B15000054B1A60F4E700BFD4370020C1AD0200F0
:10B16000F8370020E037002094370020F93700201E
:10B17000E837002010B582B00024ADF8004003236A
:10B18000ADF80230009805F090FFADF804400423BC
:10B19000ADF80630019805F088FF074B1C605C6035
:10B1A0009C60DC601C61054B1A7864F345121A70D0
:10B1B000FFF7FEFE02B010BD94370020F8370020E4
:10B1C00038B50C4D00242C606C60AC60EC602C61D8
:10B1D00001F074F9084B5860084A9A60084ADA602E
:10B1E0001C615C61074B1A7864F3C3021A706C60CF
:10B1F00038BD00BF94370020703700204DB30200E7
:10B2000000879303F837002008B50C4B1B7813F028
:10B21000100F00D008BD0A480A4B036000F01AFE68
:10B22000FFF762FFFFF7AEFE074801F0DFF8034AC1
:10B23000137843F010031370ECE700BFF8370020D9
:10B2400088370020A5B402007037002010B501F047
:10B25000EBFE174B1B7B1BBB154B9B7B2BBB144B7C
:10B260001A8A41F282639A4206D8124B1B7813F075
:10B27000080F05D0012300E001231BB9082410E0CA
:10B280000023FAE70A4B01221A7300241C829A68F1
:10B2900001329A60FFF7BEFE2046FFF709FF00E08B
:10B2A000082401F005FF204610BD0824F9E700BF7F
:10B2B00094370020F837002010B501F0B5FE214B7F
:10B2C0005B7BABB11F4B9B7B03BB1E4B1A8A41F2CE
:10B2D00082639A4206D81C4B1B7813F0080F05D0E6
:10B2E000012300E001239BB1012302E00023FAE7E0
:10B2F00000231C460BB3134B00225A731B7B4BB12C
:10B30000012B0ED07846FDF7A7F916E00023F0E7F1
:10B310000023EEE7FFF79AFF78B17846FDF79CF936
:10B320000BE0084B00201860586018731882FFF774
:10B33000BFFEFFF76FFEFFF73BFE01F0B9FE2046B0
:10B3400010BD00BF94370020F837002008B52C4B03
:10B350001B7BDBB1012B2ED07846FDF77DF9284A07
:10B36000138A01339BB21382264AA2FB03121209ED
:10B37000C2EB021251005B1A9BB2002B3DD0204B56
:10B380005B8A13B1013B1E4A538208BD1C4B1A8ACB
:10B3900041F282639A4206D81B4B1B7813F0080FC8
:10B3A00007D0012300E00123002BD8D0FFF784FF52
:10B3B000E5E70023F8E7124B1B8A41F282629342D1
:10B3C00006D8114A127812F0080F14D0012200E0BA
:10B3D0000122002AC3D042F2B012934202D9084B94
:10B3E00001225A73FFF768FF0028C8D1044B5B7B2A
:10B3F000012BB4D1C3E70022EBE7FFF733FEBEE732
:10B400009437002089888888F837002010B5244BAD
:10B410001B7B002B35D10446214B5B8A2BBB1AB911
:10B420001F4B9B688B4205D3FAB11D4B9B680133C0
:10B430008B421AD21A4B9B682A338B4223D3184B68
:10B440009B7B03BB164B996000221A605A601A82DC
:10B4500042F6065159825A731A73FFF7DBFDFFF764
:10B46000A7FD2046FFF724FE0DE062B10C4B9B6860
:10B4700001338B4207D10A4B01225A73FFF71CFF9D
:10B4800001E0012B00D010BD002AFCD1044B9B68C9
:10B490008B42F8D1024B01225A73FFF70DFFF2E7FE
:10B4A000943700200378042B00D0704743681B7842
:10B4B000002BFAD010B58468027E437E012A14BFA7
:10B4C00000220122416904F11000FFF79FFF10BD27
:10B4D00010B5184B1A685B689A4226D20446154B81
:10B4E0001B7B012B14D0144B9A4213D2114B1A68B8
:10B4F0005B68403B9A4215D2EFF3108172B60D4A59
:10B500001368581C1060236001B962B6002010BD9A
:10B510000A4BE9E7074B01225A73FFF7CDFE0028DB
:10B52000EAD1E3E7FFF744FDE6E7FFF741FD0F202F
:10B53000EDE700BF94370020FFFF7F0000E0FF0031
:10B5400008B538B10D4B01229A730D4A13680133C7
:10B55000136008BD0A4B1B685BB1094A1368013BC5
:10B560001360002BF5D1054B00229A73FFF7A4FE60
:10B57000EFE77846FDF770F8EFE700BF943700205B
:10B580006437002000B58DB0ADF808008DF81020AC
:10B59000039103238DF8043001A8FEF7C9FC0DB018
:10B5A0005DF804FB014B9868704700BF943700209A
:10B5B000054B1B7B012B02D0034B98687047024B55
:10B5C00098680138704700BF94370020044B9B688F
:10B5D000584010F0010F00D0013B1846704700BFE3
:10B5E00094370020014B187B704700BF9437002030
:10B5F00038B50D4B1B7813F0200F01D0082038BD53
:10B60000094A43F020031370084DA86029730024F1
:10B610002C82FFF7FFFC2046FFF74AFD2C606C6090
:10B62000FFF7C6FC2046EAE7F837002094370020F1
:10B630002DE9F041002722E02449BC2303FB04F359
:10B64000CA5A0132CA520221404602F0FAFC0136BF
:10B650000221404602F0C5FC70B11C4ABC2303FB2A
:10B6600004239D68002DE7D0BC2303FB04F3D25ACA
:10B6700001463846A847DFE796B90137FFB2022FE7
:10B6800020D83C46BC2303FB07F308330F4D1D4471
:10B6900005F104080221404602F0A3FC0026DBE786
:10B6A0000021404602F035FD0828E6D1074BBC22B8
:10B6B00002FB0434A368002BDFD000220449384683
:10B6C0009847DAE70120BDE8F08100BF0438002088
:10B6D0005C6C040008B5082383731023437300F1E6
:10B6E0001C0343610323037300F1180303610C304F
:10B6F00002F0E1FC08BD000008B50378012B06D07C
:10B70000022B06D07846FCF7A7FF002002E0292094
:10B7100000E0014808BD00BF084C010008B50278F0
:10B72000012A07D0022A13D07846FCF795FF4FF480
:10B73000FA7308E083685B1A9B0803EB830003EB52
:10B74000C00303F5FA730748984228BF184608BD9E
:10B7500083685B1A180B044B03FB00F303F5FA73C1
:10B76000F1E700BF60850100084C010038B50446D0
:10B7700001210C3002F035FC054678B1084BC4F8C5
:10B780009C300023C4F8A0306168FFF7C7FFC4F8FD
:10B79000A800C4F8AC40012384F8B830284638BD6E
:10B7A000C1B8020010B50446FFF7E0FF20B104F174
:10B7B0009C000EF0DFFB00B910BD7846FCF74CFF93
:10B7C000FAE70000F8B506460C46174615680378F8
:10B7D000012B18D11249A1FB043149098900B46831
:10B7E000641B8C4200D30C468CB1706825F00305B5
:10B7F000F168224629442844FFF7A4FA58B93B6867
:10B800001C443C60F8BD7846FCF726FFE2E778462A
:10B81000FCF722FFE9E77846FCF71EFFEFE700BFE1
:10B820007D0CCEC7F8B507460C461646156803785A
:10B83000022B16D1114BA3FB04231B0C1B03BC686A
:10B84000641B9C4200D31C467CB1786825F003053C
:10B8500021462844FFF744FA58B933681C44346041
:10B86000F8BD7846FCF7F8FEE4E77846FCF7F4FE0E
:10B87000EBE77846FCF7F0FEEFE700BFEB0661C5AB
:10B8800038B505460C4611462378012B06D0022B0D
:10B890000FD07846FCF7E0FE002304E0021D2046AE
:10B8A000FFF790FFA3686868984214BF002001204A
:10B8B00038BD021D2046FFF7B5FFA368F3E700007F
:10B8C0002DE9F8438846D1F8A860234B1B7863B96B
:10B8D0000546A6F5FA7601F10C090121484602F069
:10B8E00080FB074640B1002424E00EF07FFB0023DC
:10B8F00088F8B830BDE8F8837846FCF7ADFEF2E78B
:10B900000EF074FB0121484602F09BFB0023C8F8AF
:10B91000043088F8B830114B186801F01DFC40461F
:10B92000FFF740FFE6E72C1A3846FFF7E5FE204414
:10B93000B0420BD8321B39464046FFF7A1FF002822
:10B94000DED101F049FA441BEED5ECE70EF04EFBD8
:10B950004046FFF727FFCDE700380020FC370020E6
:10B9600010B5084801F0D8FB074B18600024022CE2
:10B9700007D8064BBC2000FB0430FFF7ABFE0134B8
:10B98000F5E710BD31B60200FC3700200438002076
:10B9900038B504460D46022805D8054BBC2202FBEB
:10B9A0000434A56038BD7846FCF756FEF5E700BFC5
:10B9B000043800202DE9F84306460C4617460228B5
:10B9C00016D8CCB12378012B1AD0022B3ED1636854
:10B9D000C3F30B03002B31D1A368C3F30B03002B7C
:10B9E00030D1A368002B34D17846FCF735FE30E027
:10B9F0007846FCF731FEE4E77846FCF72DFEE1E7F8
:10BA0000636813F0030F0DD1E36813F0030F0DD13A
:10BA1000A36813F0030F0DD1A368D3B97846FCF7E0
:10BA20001BFE16E07846FCF717FEEDE77846FCF7BC
:10BA300013FEEDE77846FCF70FFEEDE77846FCF7DE
:10BA40000BFEC9E77846FCF707FECAE77846FCF725
:10BA500003FEEFF3108872B6BC2505FB06F505F171
:10BA600008032A4D1D4404350021284602F0B9FA86
:10BA7000814678B30021284602F0E3FA2068616825
:10BA8000A268E368C9F80000C9F80410C9F80820E2
:10BA9000C9F80C302FB11D4ABC2303FB06235B8879
:10BAA0003B801A4ABC2303FB06235A8801325A8082
:10BAB00093F8B83083B9164B1B7813B10024A14614
:10BAC0000CE0124BBC2000FB0630FFF74FFE814616
:10BAD000002403E0042401E00024A146B8F1000F93
:10BAE00000D162B6B9F1000F09D0BC2000FB06F608
:10BAF00098360648304404300EF03CFA10B920461F
:10BB0000BDE8F8837846FCF7A7FDF8E70438002085
:10BB10000038002038B50446EFF3108572B610B92E
:10BB2000164B1B6873B18CB1144A13680133136050
:10BB3000124B1B68003318BF0123114A137005B95B
:10BB400062B638BD7846FCF787FDECE70B4B1C6806
:10BB5000013C1C6034B1EBE7BC2000FB0420FFF784
:10BB600021FE0134022CE3D8064ABC2303FB042344
:10BB700093F8B830002BF4D1EEE700BF383A00203C
:10BB8000003800200438002018B1830B024AD05C32
:10BB900070470020704700BF6C6C040012DF7047D4
:10BBA00000B583B001F032FF40B10C4B1B6813F0BD
:10BBB000400F03D00A4B1B68012B02DC03B05DF879
:10BBC00004FB084BD3F804350190074A00926C221D
:10BBD0000649022002F0B4FCF0E700BF802E0020EE
:10BBE0007C2E002000100140EC6C0400DF6C04008F
:10BBF00070B58AB00EF074FF48B3064600238DF886
:10BC0000103005AC05460FCD0FC42B682360727D44
:10BC1000052A04D9337D03F00F03072B1ED1174BE0
:10BC20001A688AB104AB0393337DC3F303038DF821
:10BC30000430737D062B1BD9063B8DF8053006F1C9
:10BC40001D03029301A8904730460EF029FF0EF025
:10BC500063FF80F00100C0B20AB070BD307D04AB5C
:10BC6000063A06F11D0100F00F000DF04DFCD6E77D
:10BC700000238DF805300293E4E700BF403A00202E
:10BC80000B4B1B78032B00D0704700B58DB0084BD1
:10BC900004221A702C22002101A81AF091F91C2309
:10BCA0008DF8043001A8FEF743F90DB05DF804FBF0
:10BCB0003C3A002070B582B02E4B1B78002B4FD140
:10BCC000002851D0067A0F2E01D0062E4ED1044600
:10BCD00006F048F8E06870B1FCF7D0FC0DF1070001
:10BCE000FFF75CFF054600283BD19DF80730012B8C
:10BCF00004D0022535E0FCF7CFFCEFE7FCF7EEFCC3
:10BD000000F060FB304601F03DF9E07800F084F986
:10BD100000F02EFF0EF0B0F817480EF099FF0DF06E
:10BD200099FD0DF0D3FBFFF71BFE05F0F9F800F0CD
:10BD300043FD05F0D7FF05F09FFD204601F072FDA1
:10BD4000FDF780FD04F0E0FBFCF7D4FB08B106280A
:10BD50000ED10A4B00221A60064B01221A7000E035
:10BD60000825284602B070BD0E25FAE70725F8E73A
:10BD70000546F6E73C3A0020F1BB0200403A0020BD
:10BD800010B582B01E4B1B78012B0DD05AB282B376
:10BD9000033BDBB2012B2ED80EF0DCF8044658BB77
:10BDA000174B02221A7027E00EF058FE01F04AFDF0
:10BDB000FDF78AFDFCF79EFB0446B8B1062815D0B6
:10BDC000104B1B6813F4804F16D00F4B1B68012BD0
:10BDD00012DD0E4BD3F8043501900D4A00924FF45A
:10BDE000AF720C49022002F0ABFB05E001F0F6F85F
:10BDF000D2E7082400E00824204602B010BD00BFAE
:10BE00003C3A0020802E00207C2E002000100140B3
:10BE1000706C0400DF6C040008B50A4B1B78022B21
:10BE200002D00823184608BD064B03221A700648A4
:10BE30000EF044F803460028F4D07846FCF70CFCDA
:10BE40000023EFE73C3A002081BC020008B5FDF773
:10BE50003FFD08BD08B5FEF793F808BD08B5FEF72D
:10BE60009FF808BD08B500F049FE002008BD08B5E0
:10BE700007F024FB08BD0000064A13680133136075
:10BE8000B3F1704F02D0034B18687047134601227C
:10BE90001A60F8E7443A002010B5044618B10023B0
:10BEA0002360636010BD7846FCF7D6FBF7E738B532
:10BEB0000C46054668B184B100236360EFF310833C
:10BEC00072B62A686AB16A6854606C6003B962B677
:10BED00038BD7846FCF7C0FBEDE77846FCF7BCFBC5
:10BEE000EAE72C60F1E710B5044658B1EFF3108390
:10BEF00072B6206808B142682260226832B103B984
:10BF000062B610BD7846FCF7A7FBEFE76260F6E784
:10BF100010B5044608B1206810BD7846FCF79CFBBC
:10BF2000F9E738B50C46054688B1A4B12046FFF7BD
:10BF3000EFFF58B12846FFF7EBFF80B16B6822682E
:10BF40005A6063686B602046FFF7A6FF38BD7846ED
:10BF5000FCF782FBE9E77846FCF77EFBE6E794E82E
:10BF6000030085E803002046FFF796FFEEE7037A1B
:10BF700013B100230372704743681B6804334360A6
:10BF8000704710B584B00446416803681A1D914299
:10BF90000DD0636818682268516888421CD06368B5
:10BFA0001A6852681A600123237204B010BD01930D
:10BFB000029300238DF80C30029B1B68002BE8D005
:10BFC000626812689A4203D001A8FFF7D0FFF3E736
:10BFD00001A8FFF7D6FFE8E7934202D0043B536085
:10BFE000DDE700235360DAE735DF704708B54FF02F
:10BFF000FF30FFF7F9FFBFF34F8F0549CA6802F41E
:10C00000E062044B1343CB60BFF34F8F00BFFDE7EB
:10C0100000ED00E00400FA05072814D8DFE800F07E
:10C02000080C1504110F0A0664207047142070478D
:10C03000FA2070471E2070474FF4FA707047322084
:10C0400070474B207047FA207047962070470000D9
:10C05000024B5868103840B2704700BF00ED00E056
:10C06000034600280FDB5B11084A52F82330424296
:10C0700000F01F0002F01F0258BF504223FA00F0E8
:10C0800000F00100704700F11F03ECE700E100E061
:10C0900046DF7047F8B504460D464B1EDBB2012B58
:10C0A00009D8002222616261A261E2612046FFF7A5
:10C0B000EFFF01200AE07846FCF7CEFAF1E7CB7BF0
:10C0C0005B00CB73002F14DB0130C0B2A84217D83D
:10C0D000214611F9207F00230E2BF0D8CA5CCE1820
:10C0E0005200D2B2767842EAD612CA5401339BB2D9
:10C0F000F2E794F82F3083F0870384F82F30E3E7DA
:10C10000F8BD2DE9F04190B084460C4696461F4696
:10C1100002F10F0636111FFA86F804AD0068DCF84C
:10C120000410DCF80820DCF80C300FC50EF00F0509
:10C13000B8F1000F02D07DB1002300E00023984643
:10C1400063B1012104A8FFF7A5FFB8F1000F1AD0D1
:10C15000701E000110230EE00123F0E70221F1E739
:10C16000013B9BB22218D25C10A9194411F8101C93
:10C170004A400DF80320002BF2D100250C950D95B7
:10C180000E950F9526E0711EADB22A4604EB011103
:10C19000684619F0ECFE80230DF805306B1C03E0B7
:10C1A00000220DF8032001330F2BF9DD10230AE0E4
:10C1B000013B9BB21DF8032010A9194411F8101C73
:10C1C0004A400DF80320002BF2D1D6E704A8FFF770
:10C1D0005FFF0135731EAB420FDD28011023002BDA
:10C1E000F4D0013B9BB210AA1A4412F8102C21186B
:10C1F000C95C4A4008A9CA54F1E710230AE0013B90
:10C200009BB210AAD11811F8402C11F8101C4A400A
:10C2100008A9CA54002BF2D104A8FFF739FF0CACCF
:10C220000FCC38607960BA60FB6010B0BDE8F08177
:10C2300010B50446134B1B684BB14068114B1B688B
:10C240005B68C31A002B02DB0E4B19680DE00D4B27
:10C250001A6862611C600B4A938801339BB2938019
:10C2600063B10123237010BD19464B691BB15A6895
:10C27000121A002AF8DB63614C61ECE77846FCF7A0
:10C28000EBF9EEE74C3A002038B505461CE078465D
:10C29000FCF7E2F96369204A136000236361938825
:10C2A0009BB2591E89B29180F3B1A36803B30223F4
:10C2B0002370A36821692846984700F0FFF80546D7
:10C2C0002378DBB2022B17D0134B1B681BB3124B26
:10C2D0001B685B685B1B642B1DD50F4B1C682378A8
:10C2E000DBB2012BD6D0D2E77846FCF7B5F9DCE714
:10C2F0007846FCF7B1F9DAE7E26812B90023237057
:10C30000E2E76368134463605B1B642BF9D4204647
:10C31000FFF78EFFD8E738BD4C3A002010B5044631
:10C32000144B1B68834207D0124B1B68D3B15A6968
:10C33000A2420ED01346F9E743690E4A1360938870
:10C340009BB2591E89B2918063B97846FCF784F993
:10C3500008E062695A6107498B889BB25A1E92B203
:10C360008A8013B10023237010BD7846FCF774F95E
:10C37000F8E700BF4C3A002008B5064B1B6833B104
:10C38000044B1B680449586800F046F908BD00F0EA
:10C39000A1F9FBE74C3A0020B5C3020008B500F054
:10C3A0008DF8FFF771FF00F089F8FFF7E5FF012036
:10C3B00008BD000008B5024B186800F0CDFE08BDAE
:10C3C000483A002008B5064B00221A605A6005481A
:10C3D00000F0A2FE044B186000F063F808BD00BF37
:10C3E0004C3A00209DC30200483A002010B5044694
:10C3F00000F086FF80B19CB1A368ABB12378DBB2BB
:10C40000012B15D0002363612046FFF711FF00F0D8
:10C4100055F8FFF7B1FF10BD7846FCF71DF9EAE7C4
:10C420007846FCF719F9E7E77846FCF715F9E5E7F0
:10C430007846FCF711F9E5E710B5044600F060FF17
:10C4400050B16CB12046FFF769FF0023636100F033
:10C4500035F8FFF791FF10BD7846FCF7FDF8F0E7DF
:10C460007846FCF7F9F8EDE738B504460D4600F0DC
:10C4700047FF70B18CB12046FFF750FF0023636186
:10C4800065602046FFF7D4FE00F018F8FFF774FF50
:10C4900038BD7846FCF7E0F8ECE77846FCF7DCF8C6
:10C4A000E9E708B517F066F900B108BD17F0D2F852
:10C4B0000028FAD07846FCF7CFF8F6E770B4EFF32F
:10C4C000108172B6184B1A68184BD3F80455D3F87C
:10C4D0000431012B22D001B962B645EA026500267B
:10C4E0006B01EA0E5B1B62EB0602510241EAD3517B
:10C4F0005802431941EB0600810141EA93619A0118
:10C50000D31A61EB00005B1946EB000013F5804382
:10C510007041DB0B43EA404070BC7047034BD3F8DB
:10C5200004550132D7E700BF543A00200010014003
:10C5300010B50A4B4FF40032C3F84823C3F8082360
:10C54000074B1B682BB1064B1C68FFF7B7FFA047D2
:10C5500010BD7846FCF780F8F5E700BF00100140F9
:10C56000603A0020EFF3108172B6264B0022C3F828
:10C570000421254A13680133136001B962B6234BC5
:10C580001B68002B3DD0214B1A68013A1A601B68CA
:10C59000002B36D103F1804303F58833D3F804250B
:10C5A0001B4B1B689A421ED2EFF3108272B6154BDA
:10C5B000D3F804350133164909688B4210D3114B67
:10C5C000D3F8043502330F49C1F8443502B962B6D5
:10C5D0000C4B4FF40032C3F84423C3F804237047D4
:10C5E0000B4B1B68EFE710B50A4B1B682BB1094BCF
:10C5F0001C68FFF763FFA04710BD7846FCF72CF8D6
:10C60000F5E7704700100140543A0020583A0020E6
:10C610005C3A0020603A002030B583B00446002325
:10C6200001930D46002936D0244B1D60FFF746FFCD
:10C63000031B002B33DB0023590CD803204C214A69
:10C64000002300194FF0000444EB010119F048FBEE
:10C65000EFF31083019372B61B4BD3F80435022815
:10C6600038BF0220C3F1FF1202F57F42824218D385
:10C670000344154AC2F844354FF40033C2F844333A
:10C68000C2F80433114A1460114A1460019B03B9C3
:10C6900062B603B030BD7846FBF7DEFFC4E7231A6D
:10C6A000CAE7034403F17F4301331A0E01320749FD
:10C6B0000A6023F07F43064A1360E7E7603A0020F0
:10C6C00020A1070040420F0000100140583A00200E
:10C6D0005C3A0020074B4FF40032C3F84823C3F8FC
:10C6E00008230023044A1360044A1360044A1360B9
:10C6F000704700BF00100140583A00205C3A00200B
:10C70000603A002030DF704731DF704710B40268B4
:10C710004368A2EB7312846883EAF4330360C16850
:10C720000C444460114481601344C36018465DF8B2
:10C73000044B704770B582B00D46064608B1002420
:10C740000BE07846FBF788FFF9E79DF807103019F2
:10C75000FFF7DAFF9DF807301C44A5420DD90DF113
:10C760000700FFF7CFFF9DF80730002BF7D02A1BFB
:10C770009342EAD98DF80720E7E702B070BD0000C8
:10C7800030B583B005460024019404210DEB01006F
:10C79000FFF7D0FF074B2B60019B6B60AB60EB603A
:10C7A00003E02846FFF7B2FF0134132CF9D903B098
:10C7B00030BD00BFED5EEAF17047000070B582B099
:10C7C00000241EE01A4E33680193A5B205F580736C
:10C7D000ADF80630019804F068FC7368019305F524
:10C7E0008173ADF80630019804F05FFCB3680193E3
:10C7F00005F58275ADF80650019804F056FC013439
:10C80000E4B2012CDED90A4CE06804F04EFC206949
:10C8100004F04BFC606904F048FCA06904F045FC9E
:10C82000E06904F042FC206A04F03FFC02B070BDF5
:10C83000186D040048DF704749DF70474ADF7047D2
:10C84000044B01225A7143F2B0629A6043F6982277
:10C85000DA607047B03A0020094B03221A74094A83
:10C860005A611A6840F6D8639A4204D9054B43F2DC
:10C87000B0629A607047034B40F6D8629A60704786
:10C88000903A0020B03A002008B50F4B1B78022BDD
:10C8900012D0032B08D0012B03D07846FBF7DCFE27
:10C8A0000EE0022303740BE0084B00225A71084982
:10C8B00099600849D960827103230374034B436173
:10C8C000014B00221A7008BDC13A0020B03A002086
:10C8D000A0860100FF1FA10738B504460025057496
:10C8E000012343710E4A13680133136000F0D2FA3A
:10C8F0000DF0F6FB23680B4A1168283101FB03F1A8
:10C90000094AA2FB0121A3EB9141084A7839284644
:10C9100000F03CFA00B938BD7846FBF79DFEFAE717
:10C92000C43A0020AC3A002083DE1B4359C8020001
:10C9300010B5044600238360C36003680D4A926803
:10C940000260817991B10121017403B90A4B991AEE
:10C950006161B1F57A7F01D39A4202D94FF47A73BB
:10C960006361FFF76DFF0123A37110BDFFF7B4FFF3
:10C97000F7E700BFB03A00208096980010B50C464B
:10C9800031B1C3680133C360426903681344036073
:10C990008368013383600122027442695208426154
:10C9A000012B0DD0022B19D042690368134417499B
:10C9B0008B4222D840F6D7639A4221D800231DE04B
:10C9C000B2F5FA7F05D040F6D8639A42ECD84361BD
:10C9D000EAE7002CF7D100234361E5E7C368022BA7
:10C9E00006D0012BE0D1002CDED100234361DBE730
:10C9F0000268064B9B1A4361D6E7002313B110BDB2
:10CA00000123FBE7FFF768FFF9E700BF8096980076
:10CA100043791BB90D4B00221A70704710B50446BC
:10CA20000DF07AFB20680A4B1B68283300FB03F3E8
:10CA3000084AA2FB0323A0EB9340783800F05AFA8F
:10CA400000236371014B00221A7010BDC03A002010
:10CA5000AC3A002083DE1B4308B5254B01221A7136
:10CA6000244B1B7813B1244B1B781BB3204B0022A3
:10CA70001A7404281AD8DFE800F00314110C070018
:10CA80001B48FFF755FF1CE001211948FFF776FF0F
:10CA900017E000211648FFF771FF12E00DF0CCFA05
:10CAA0000FE000F0B9F90DF001FB0AE07846FBF762
:10CAB000D3FD06E000F090F90D4B18601846FFF723
:10CAC000E3FE0B4B1B7C023BDBB2012B08D9084B6E
:10CAD0001B7C022B08D0064800230371103008BDD0
