:020000022000DC
:1070000000F003206D7302005573020057730200F5
:10701000597302005B7302005D7302000000000000
:107020000000000000000000000000005F7302008C
:1070300061730200000000006373020065730200C8
:1070400067730200677302006773020067730200D0
:107050006773020067730200B99902006773020048
:1070600067730200677302001D8D030067730200DF
:1070700067730200677302006773020067730200A0
:10708000677302005117040021E6020067730200D3
:10709000B517040067730200E5B5030067730200CB
:1070A0006773020067730200677302006773020070
:1070B0006773020067730200000000000000000018
:1070C0006773020067730200677302006773020050
:1070D0006773020067730200677302006773020040
:1070E000677302006773020067730200000000000C
:1070F00000000000677302000000000067730200D8
:10710000000000000000000000000000000000007F
:10711000000000000000000000000000000000006F
:10712000000000000000000000000000000000005F
:10713000000000000000000000000000000000004F
:10714000000000000000000000000000000000003F
:10715000000000000000000000000000000000002F
:10716000000000000000000000000000000000001F
:10717000000000000000000000000000000000000F
:1071800000000000000000000000000000000000FF
:1071900000000000000000000000000000000000EF
:1071A00000000000000000000000000000000000DF
:1071B00000000000000000000000000000000000CF
:1071C00000000000000000000000000000000000BF
:1071D00000000000000000000000000000000000AF
:1071E000000000000000000000000000000000009F
:1071F000000000000000000000000000000000008F
:10720000344935480A1A02D0072291438D46334942
:1072100033480A1A06D00722914381F309880222D3
:1072200082F314882F483049304A00F042F8304841
:107230003049314A00F03DF830483149314A00F0D8
:1072400038F831483149324A00F033F83148324990
:10725000324A00F02EF832483249334A00F029F819
:1072600032483349334A00F024F833483349002286
:1072700000F02AF832483349002200F025F832485D
:107280003249091A082902DB0022026041601F48C6
:107290001F49884205D00268043003B4904703BCFC
:1072A000F7E700208646EC4600200021284A904758
:1072B000FEE7884207D0521A05D0037801300B70E0
:1072C0000131013AF9D17047884202D00270013091
:1072D000FAE7704700F0032000E8032000F00320E5
:1072E00000F0032098440400002E0020602E0020AF
:1072F000A0730200A0730200CC1C04009844040098
:10730000002E0020002E0020042004000420040091
:1073100004200400042004000420040004200400CD
:10732000042004000420040096440400F8440400EF
:10733000602E0020602E0020602E0020345500209A
:107340003455002034550020345500203459002095
:10735000A9810200FEE7FEE7FEE7FEE7FEE7FEE7A3
:10736000FEE7FEE7FEE7FEE700F002B8FFF7FCBF2E
:1073700008484FF00701884385460748804707487B
:10738000016841F470010160BFF34F8FBFF36F8F4D
:10739000FFF736BF00F0032099B6030088ED00E048
:1073A00041DF70470B781BBB124B1B6813F4804FF7
:1073B0001ED0114B1B68032B1ADD10B584B00F4B88
:1073C000D3F804354A685088097B526914786CB93F
:1073D00092F90D20039202910190094A0092FE2237
:1073E0000849042008F05AF904B010BD0022F1E762
:1073F000704700BF242E0020202E002000100140E6
:10740000302104002721040030B5C7B0734B1B683E
:1074100013F4804F03D0724B1B68032B30DC6F4B8F
:107420001B6813F4804F03D06D4B1B68032B33DCB8
:107430006A4B1B6813F4804F03D0694B1B68032B06
:107440003DDC664B1B6813F4804F03D0644B1B6814
:10745000032B60DC614B1B6813F4804F04D0604B3E
:107460001B68032B00F382805C4B1B6813F4804F76
:1074700004D05B4B1B68032B00F3A38047B030BDE7
:10748000584BD3F80435584A009240F20F2257491E
:10749000042008F003F9C2E7524BD3F80435544AEC
:1074A00011885088D288039202900191514A00922B
:1074B00040F211224D49042008F0F0F8B8E700230B
:1074C0000F2B12D84A4A1A4492F82C204A490C68C9
:1074D00010095900255C05A800F8135002F00F02AE
:1074E0000131A25C42540133EAE705AA00238DF87A
:1074F000343003F1804303F58833D3F80435029226
:107500003E4A01923E4A009240F21222374904203C
:1075100008F0C4F895E700230F2B11D8344A1A4419
:10752000127B35490C6810095900255C05A800F844
:10753000135002F00F020131A25C42540133EBE719
:1075400005AA00238DF8343003F1804303F5883316
:10755000D3F8043502922B4A0192294A009240F254
:1075600013222249042008F099F873E700230F2B17
:1075700011D81F4A1A44127F1F490C68100959007C
:10758000255C05A800F8135002F00F020131A25C3F
:1075900042540133EBE705AA00238DF8343003F1A0
:1075A000804303F58833D3F804350292164A0192DA
:1075B000134A00924FF405720C49042008F06EF84B
:1075C00052E7084BD3F80435104A009240F21522D6
:1075D0000649042008F062F850E700BF242E00207E
:1075E000202E002000100140E42104002721040087
:1075F000A82E002000220400282E0020442204008F
:107600005022040058220400642204007022040066
:1076100003780E2B00D0704700B583B0104B1B6869
:1076200013F4804F03D00F4B1B68042B05DC0E4B6B
:107630001B7873B103B05DF804FB0C4BD3F8043531
:107640000B4A009240F25B120A49052008F026F826
:10765000EDE7FFF7D9FE044B01221A70EAE700BFFD
:10766000242E0020202E0020E42E002000100140B7
:107670007C2104002721040010B584B00390134B33
:107680001B6813F4804F03D0114B1B68042B0EDCD6
:10769000BDF80C30102B15D10E4C3C220021204699
:1076A0001AF088FA4FF48073E38004B010BD0A4BDF
:1076B000D3F80435094A009288220949052007F0C9
:1076C000EDFFE5E7784602F0BFFAE5E7242E00205B
:1076D000202E0020A82E0020001001404824040085
:1076E00027210400F0B585B003900D46174B1B68A9
:1076F00013F4804F03D0164B1B68042B16DCBDF827
:107700000C30102B1DD1134C04F1300726460FCE40
:1077100028606960AA60EB6034461035BE42F5D13E
:1077200007CC28606960AA6005B0F0BD0A4BD3F8A9
:1077300004350A4A00927F220949052007F0AEFF6E
:10774000DDE7784602F080FADDE700BF242E002056
:10775000202E0020A82E00200010014064240400E8
:1077600027210400F0B585B003900F461B4B1B6822
:1077700013F4804F03D01A4B1B68042B0CDCBDF8AC
:107780000C30102B13D13C22394616481AF0AEF9B2
:1077900088B9002005B0F0BD134BD3F80435134A67
:1077A000009271221249052007F078FFE7E778463A
:1077B00002F04AFAE7E73C460A4E30373546206881
:1077C0006168A268E3680FC510342E46BC42F5D14B
:1077D00020686168A26807C6DBE700BF242E00208E
:1077E000202E0020A82E0020001001407C24040040
:1077F0002721040000B583B0194B1B6813F4804F98
:1078000003D0184B1B68032B12DC174B4FF6FF728B
:107810005A809A801A80154816F0A6FAA0B9144A20
:107820000021144819F0ACFCA0B903B05DF804FBCA
:10783000114BD3F80435114A009240F2B5121049A9
:10784000042007F02BFFE0E70E4A40F2BD1114F0D0
:107850001BF8E4E70B4A4FF4DF7114F015F8E4E786
:10786000242E0020202E0020602E00208978020087
:10787000A5730200682E002000100140302504008E
:1078800027210400C820040070B582B004460D46CC
:1078900016460E4B1B6813F4804F03D00C4B1B682D
:1078A000032B06DC32462946204601F04DFE02B08D
:1078B00070BD084BD3F80435074A009240F213120A
:1078C0000649042007F0EAFEECE700BF242E002062
:1078D000202E0020001001402C200400272104004D
:1078E00000B583B00F4B1B6813F4804F03D00E4BD1
:1078F0001B68032B08DC00210C4B19700E2001F0D3
:10790000BFFF03B05DF804FB094BD3F80435094A07
:1079100052880192084A0092D8220849042007F0B0
:10792000BDFEE8E7242E0020202E0020A52E0020FA
:1079300000100140A82E002044200400272104004C
:1079400000B583B00E4B1B6813F4804F03D00D4B72
:107950001B68032B08DC00210B4B19700D2001F074
:107960008FFF03B05DF804FB084BD3F80435084AD9
:107970000092E9220749042007F090FEEBE700BFE0
:10798000242E0020202E0020A52E002000100140D3
:10799000982104002721040010B582B0044617493D
:1079A0001AF03BF920B3164920461AF036F910B305
:1079B000144920461AF031F908B9134819E0134B5D
:1079C0001B6813F4804F03D0114B1B68002B04DAA3
:1079D000784602F039F900200BE00E4BD3F804355D
:1079E0000D4A0092B2220D49002007F057FEEFE742
:1079F0000B4802B010BD0A48FBE700BF8C2504000D
:107A0000A8250400C42504006C250400242E0020B1
:107A1000202E002000100140E4250400272104004E
:107A20005025040000B583B0624B1B78002B40F05A
:107A3000A980614B5A881B889A4229D25F4B1B68E8
:107A400013F4804F03D05E4B1B68032B14DC5A48A1
:107A5000836801930023009300F11C0202218088B7
:107A600001F0CAFD01210E2001F00AFF514B012255
:107A70001A7003B05DF804FB524BD3F80435524A38
:107A8000009240F225125149042007F007FEDEE77C
:107A900013BB4A4B1B6813F4804F03D0484B1B6841
:107AA000032B0DDC03234A4A4349C988022000F016
:107AB0000DFF00F049FF01210D2001F0E1FED5E7A7
:107AC000404BD3F80435434A009240F22F123F490D
:107AD000042007F0E3FDE5E71E2B3ED8374B1B687B
:107AE00013F4804F03D0364B1B68032B1CDC324B46
:107AF0009868FFF751FF384B1860304B1B6813F440
:107B0000804F03D02E4B1B68032B19DC0123324A14
:107B10002949C988022000F0D9FE00F015FF012193
:107B20000D2001F0ADFEA1E7264BD3F804352B4A1A
:107B3000009240F23B122549042007F0AFFDD6E742
:107B4000204BD3F804350190254A009240F23F12B1
:107B50001E49042007F0A2FDD8E7184B1B6813F458
:107B6000804F86D0164B1B68032B82DD154BD3F854
:107B700004351C4A00924FF4A4721449042007F003
:107B80008DFD76E70D4B1B6813F4804F3FF471AF0A
:107B90000B4B1B68032B7FF76CAF0A4BD3F80435F4
:107BA000114A00924FF4A8720849042007F076FDAC
:107BB0005FE700BFA52E0020A82E0020242E002065
:107BC000202E0020001001401C2304002721040067
:107BD0000C2E002050230400EC2E002080230400F3
:107BE000B0230400C8230400E423040008B500F017
:107BF000DDFE024B18680AF0B8FA08BD2020040028
:107C000010B582B00446294B1B6813F4804F03D093
:107C1000274B1B68032B04DC8CB1032C12D002B061
:107C200010BD244BD3F80435421C0192224A009225
:107C300040F28D122149042007F030FDECE7FFF7F8
:107C4000F1FEECE7194B1B6813F4804F03D0184B7F
:107C50001B68032B1EDCFFF7C9FF0BF024F804227E
:107C6000C8214FF4803001F025FE104B1B6813F43F
:107C7000804FD4D00E4B1B68032BD0DD0D4BD3F8B7
:107C800004350F4A009240F2A1120C49042007F07B
:107C900005FDC4E7074BD3F804350A4A009240F2C9
:107CA0009B120649042007F0F9FCD4E7242E00209B
:107CB000202E002000100140B422040027210400DF
:107CC000E0220400C82204003038042800D970479C
:107CD00008B5FFF795FF08BD00B583B00649074B0F
:107CE00018680AF011FA10B903B05DF804FB784681
:107CF00001F0AAFFF8E700BFA82E0020042004002E
:107D000010B582B0284B1B6813F4804F03D0274B6B
:107D10001B68032B1DDC00210E2001F0B1FD244C5B
:107D2000638801336380FFF7D7FF63881E2B1ED95A
:107D30001D4B1B6813F4804F03D01C4B1B68032B97
:107D400026DC0422C8214FF4F03001F0B3FD02B06C
:107D500010BD184BD3F80435154A52880192164AC3
:107D60000092BD221549042007F098FCD3E7A068D3
:107D7000FFF712FE124A10600123E188022000F092
:107D8000A5FD00F0E1FD01210D2001F079FDDEE708
:107D9000084BD3F804350B4A0092D022074904203F
:107DA00007F07CFCCDE700BF242E0020202E002011
:107DB000A82E002000100140A0200400272104006C
:107DC000E82E0020C823040000B583B0104B1B68C8
:107DD00013F4804F03D00F4B1B68032B0CDC0021E6
:107DE0000D2001F04DFD01210E2001F049FDFFF7AE
:107DF00073FF03B05DF804FB074BD3F80435074A63
:107E00000092DF220649042007F048FCE7E700BFA4
:107E1000242E0020202E002000100140C821040044
:107E20002721040008B5FFF757FF08BD10B582B041
:107E30000446104B1B6813F4804F03D00E4B1B6895
:107E4000032B04DC23781C2B0FD002B010BD0B4B8E
:107E5000D3F8043502780192094A009240F20712E1
:107E60000849042007F01AFCECE7002005F066FA48
:107E7000EBE700BF242E0020202E00200010014040
:107E8000842004002721040010B582B01449154B4A
:107E900018680AF04BF90446A0B9134B1B6813F499
:107EA000804F18D0114B1B68032B14DD104BD3F8F7
:107EB0000435104A00924FF4C3720F49042007F0B2
:107EC000EDFB08E0064B00221A805A804FF48072C6
:107ED000DA80FFF701FFB4FA84F0400902B010BD68
:107EE000A82E002024200400242E0020202E002074
:107EF00000100140682104002721040000B583B070
:107F00006421174801F056FC164B1B6813F4804F90
:107F100003D0154B1B68032B10DC05F05DF9C8B9C5
:107F200000214FF4F03001F0BAFC0222C8214FF4D6
:107F3000F03001F0BFFC03B05DF804FB0B4BD3F84D
:107F400004350B4A009240F21B220A49042007F034
:107F5000A5FBE2E7084A40F2212113F095FCDFE798
:107F6000C97C0200242E0020202E00200010014099
:107F70000026040027210400C820040008B5124B85
:107F8000998818890CF01AFF58B90F4B99881889ED
:107F90000CF0C4FF58B90C4B188818F00BFD60B9F1
:107FA00008BD0A4A4FF4B97113F06EFCEDE7074AB9
:107FB00040F2731113F068FCEDE7044A4FF4BB7113
:107FC00013F062FCECE700BF602E0020C820040024
:107FD00030B593B0202200210DEB020019F0EAFD2C
:107FE00001238DF8203007238DF8233006238DF8E8
:107FF00028303A4B0C933A4B10930DF1470108A8E7
:108000000AF060FEB8B10B2814D1364B1B6813F48C
:10801000804F10D0344B1B68032B0CDD334BD3F84F
:108020000435334A00924FF4E8723249042007F0D5
:1080300035FB00E038BB304805F01EF9FFF724FFA0
:1080400002AC2E4D0FCD0FC495E8030084E8030069
:1080500002A800F045FD9DF8473033BB214B1B685B
:1080600013F4804F03D0204B1B68032B11DC00F06E
:108070005FFDFFF783FFFFF7D5FE2149214801F09F
:1080800073FB13B030BD204A40F2D51113F0FCFB56
:10809000D1E7164BD3F804351C4A00924FF4F67220
:1080A0001449042007F0FAFAE1E70E4B1B6813F4B9
:1080B000804F03D00C4B1B68032B02DC00F09CFCB0
:1080C000DBE70A4BD3F80435114A00924FF4FA72F9
:1080D0000849042007F0E2FAF0E700BF2D7E020015
:1080E000F5770200242E0020202E002000100140F1
:1080F0009424040027210400002E002008200400FE
:10810000E1780200017D0200C8200400E42404009C
:108110001C25040000B583B01B4A04214FF4C04065
:1081200007F0A0FA194B1B6813F4804F03D0184BCB
:108130001B68032B0FDC19F041FBC0B901F0F0FB09
:10814000144801F00DFCC0B901F074FCFFF740FFCA
:1081500003B05DF804FB104BD3F804350F4A0092CE
:108160004FF4FF720E49042007F098FAE3E70D4A36
:108170004FF4007113F088FBE0E70A4A4FF40171F5
:1081800013F082FBE0E700BF39F60200242E002046
:10819000202E0020017C0200001001401424040065
:1081A00027210400C820040008B5FFF7B3FFFFF73C
:1081B000A5FEFFF7F5F8FCE7184B1B781BB1174B32
:1081C00001221A70704700B587B0154A03AB07CA81
:1081D00003C323F8022B120C1A70124B009303AB4B
:1081E000114A1249124813F0B5FE68B9114815F04A
:1081F0005BFB01460E4813F0D9FE50B9074B012234
:108200001A7007B05DF804FB0B4A782113F03CFBB1
:10821000ECE7094A792113F037FBEFE72C32002015
:108220000C260400FD820200F42E002030320020D3
:10823000DC300020142F002068290400B0B130B5D4
:1082400085B00546A1B10C46084619F00DFD6A46F9
:1082500081B2204606F0F4FA04226946284619F055
:1082600045FCB0FA80F0400905B030BD00207047F1
:108270000020F9E730B58BB0054600230393049343
:1082800005930693079308938DF82430154B1A89AC
:10829000ADF81C20144A1288ADF8222003AC5B68AC
:1082A00053F80C0F59689A68DB680FC40F491048DF
:1082B00013F094FE58B90123009303AB094A927A54
:1082C00029460C4813F08EFE30B90BB030BD0A4A77
:1082D0006E2113F0D9FAEEE7074A6F2113F0D4FAB2
:1082E000F3E700BF1432002072320020F42E002089
:1082F00030320020DC3000206829040070B5C8B09E
:10830000044603780A2B10D8DFE813F00B0099021B
:10831000C4000F000F000F000F0071020F001302C6
:1083200091019C4B1B78012B01D048B070BD9A4B3A
:108330001B6813F4804F03D0984B1B68032B50DC51
:10834000E269137843B9944B1B6813F4804F03D050
:10835000924B1B68032B46DC637D002BE5D08E4BD4
:108360001B6813F4804F03D08C4B1B68032B6FDC0E
:1083700000258B4B1B78AB42D7D9AE00894B1B68CD
:1083800053F8251004F11600FFF758FF002861D1BB
:108390000135EEE7E218127983490D68100959009A
:1083A0002E5C07A800F8136002F00F020131AA5CEE
:1083B000425401330F2BEDD907AA00238DF83C302E
:1083C00003F1804303F58833D3F804350292774AEA
:1083D0000192774A00928A227649042007F05EF9DA
:1083E000AEE70023E6E7744BD3F8043592F90D208D
:1083F0000192724A00928E226E49042007F04EF9D3
:10840000AAE7E218927D68490D68100959002E5CB0
:1084100007A800F8136002F00F020131AA5C425471
:108420000133032BEDD907AA00238DF8243003F183
:10843000804303F58833D3F804350292604A0192F1
:108440005B4A009293225B49042007F027F98FE7EB
:108450000023E6E7504B1B6813F4804F03D04F4BCB
:108460001B68032B0BDC4F4B1B689A59554B1A604A
:10847000201DFFF7FFFE474B03221A7055E74E4BB6
:10848000D3F80435504A009299224A49042007F053
:1084900005F9E8E7404B1B6813F4804F03D03F4BCE
:1084A0001B68032B35DC3B4B1B78032B42D0022B84
:1084B0007FF43BAF454B5B68454A118899801A8829
:1084C00001321A80DA88434800880244DA80B1F524
:1084D000807F00F097803D4CE36898472369984778
:1084E0002D4B1B6813F4804F04D02C4B1B68032BBF
:1084F00000F38C80354B5A68908893680193002470
:10850000009423461C32022101F076F8214B1C70A6
:108510000BE7294BD3F804352F4A127802921D4AF3
:10852000127801922D4A0092A6222249042007F0D7
:10853000B5F8B8E7284B1B78DBB1174B1B6813F471
:10854000804F03D0154B1B68032B07DC114B012216
:108550001A70214A1378013B1370E6E6164BD3F8E4
:1085600004351F4A0092AB221249042007F096F806
:10857000ECE7094B1B6813F4804F03D0074B1B68D3
:10858000002B2FDC034B00221A70104B5B699847BD
:10859000CBE600BF10320020242E0020202E002029
:1085A000763200207C320020282E00202C26040069
:1085B00050220400C72904000010014034260400A2
:1085C00040260400783200204C260400143200209B
:1085D00072320020743200207032002070260400B5
:1085E000B8260400A14BD3F80435227AA0490988A3
:1085F000029101929F4A0092B2229F49012007F006
:108600004DF8BFE79D4A12689A6064E7974BD3F82C
:108610000435626892889A49098802910192994AC0
:108620000092C4229449042007F038F862E7964B80
:108630001B6813F4804F03D0944B1B68032B4EDC54
:10864000934B02221A70904B1B6813F4804F03D097
:108650008E4B1B68032B4DDCE3688E49D88A0EF0E5
:1086600041FD002851D1E0688B4B19688B4BA26803
:108670004988C08A0FF076FA00284BD1874B1888BA
:1086800015F0EAFB00284AD1824B1988834B1888E1
:1086900015F098FB002847D17B4B1B6813F4804FE3
:1086A0003FF443AE794B1B68032B7FF73EAE6F4B15
:1086B000D3F80435E268D28A77490968498877484F
:1086C0000088049003917349098802910192744AC9
:1086D0000092E5226849042006F0E0FF25E6634B9E
:1086E000D3F804356F4A0092CF226349042006F084
:1086F000D5FFA5E75D4BD3F804356B4A0092D42231
:108700005D49042006F0CAFFA6E7684AD62113F0A7
:10871000BBF8A8E7654ADA2113F0B6F8AEE7634A7A
:10872000DD2113F0B1F8AFE7604ADF2113F0ACF8B8
:10873000B2E7027A524B1A801023002201214068CE
:1087400013F07FFC00283FF4F0AD4F4B1B6813F48F
:10875000804F03D04D4B1B68002B13DC544B1B7810
:108760003BB3494B1B6813F4804F03D0474B1B6846
:10877000032B13DC464B01221A704D4A1378013B40
:108780001370D2E5394BD3F804350190494A009271
:10879000F5223949012006F081FFDFE7334BD3F89A
:1087A0000435454A0092F8223349042006F076FF4A
:1087B000E0E7354B1B6813F4804F03D0334B1B6845
:1087C000032B06DC324B00221A70334B5B6998474F
:1087D000ABE5264BD3F80435254A12880192374A77
:1087E0000092FF222449042006F058FFEAE707AD73
:1087F000334B0FCB85E80F0010222946606813F039
:1088000029FCB0B9204B1B6813F4804F3FF48DADA9
:108810001E4B1B68032B7FF788AD144BD3F8043530
:10882000284A009240F20D121349042006F036FF48
:108830007BE51E4A4FF4867113F026F8E2E7124BEF
:108840001B6813F4804F3FF470AD104B1B68032B73
:108850007FF76BAD054BD3F804351B4A00924FF4FC
:1088600089720549042006F019FF5EE500100140F9
:1088700072320020DC260400C72904007832002070
:108880007432002020270400242E0020202E0020F7
:1088900010320020F02E002014320020F22E002092
:1088A000A4270400582704007C270400682904003A
:1088B00070320020E827040018280400282804004B
:1088C0001826040090280400B828040010B582B0CF
:1088D0000AB11446A3B9124B1B6813F4804F1CD085
:1088E000104B1B68002B18DD0F4BD3F804350F4AD3
:1088F00000924FF490720E49012006F0CFFE0CE07A
:108900000C4A10700C4A11800C4A012111700C4A5B
:1089100014600C4A1370FFF74FFC02B010BD00BF8B
:10892000242E0020202E00200010014018290400D1
:10893000C72904007032002072320020103200205B
:108940007C3200207632002000B583B0104B1B68CB
:1089500013F4804F03D00F4B1B68032B06DC0E482B
:1089600013F0EEFB70B903B05DF804FB0B4BD3F8CA
:1089700004350B4A009240F22F120A49042006F0F7
:108980008DFEECE7084A4FF4987112F07DFFEAE79C
:10899000242E0020202E0020FD8202000010014025
:1089A000DC290400C72904006829040000B583B04D
:1089B0000C4B1B6813F4804F03D00B4B1B68032B2D
:1089C00004DC13F0C5FB03B05DF804FB074BD3F8E0
:1089D0000435074A009240F235120649042006F099
:1089E0005DFEEEE7242E0020202E00200010014026
:1089F000002A0400C729040030B589B0012306937A
:108A000006A90DF116000FF09FF860BB069B012B25
:108A10002FD12C4C2568BDF816000EF029FD68807A
:108A200023685A884FF6FF739A4226D0254B1B685D
:108A300006AA191D58880FF0DDFA10BB07A80EF022
:108A400043FB204B1968BDF81C000FF017F9F0B973
:108A50001D4B1B6813F4804F03D01C4B1B68032B6A
:108A60001BDC09B030BD1A4A40F2411112F00CFF74
:108A7000CCE7784601F0E8F8CBE7784601F0E4F877
:108A8000D4E7134A40F2451112F0FEFED6E7104A31
:108A900040F2491112F0F8FEDAE70E4BD3F8043534
:108AA000084A1268518890881288039202900191B6
:108AB000094A00924FF4A6720849042006F0EEFD20
:108AC000CFE700BF14320020242E0020202E0020EB
:108AD0006829040000100140D8280400C7290400B8
:108AE00038B50446C36883B1636993B12369A3B100
:108AF0000C4D0FCC0FC594E8030085E8030000235C
:108B0000094A1370094A137038BD784601F09CF881
:108B1000EAE7784601F098F8E8E7784601F094F83B
:108B2000E6E700BF143200202C3200201032002073
:108B300010B584B0334BDB69039303A80EF090FAB1
:108B4000002836D1304C606810210C3004F09AFFB8
:108B5000606810211C3004F095FF606810212C30F3
:108B600004F090FF6168226802320C3100200EF0A0
:108B700073FD20BB254B1B6813F4804F03D0244B9F
:108B80001B68032B21DC204B19685A680B1D1C3213
:108B9000498800200FF08EF838BB1B4B19685A68C3
:108BA0000B462C32498801200EF0DCFF18BB04B0C4
:108BB00010BD184A40F25F1112F066FEC2E7154A76
:108BC00040F2671112F060FED4E7134BD3F804357E
:108BD0000D4A126852880192104A00924FF4B47202
:108BE0000F49042006F05AFDCDE70A4A40F2691108
:108BF00012F04AFED1E7074A4FF4B67112F044FE74
:108C0000D5E700BF0C26040014320020242E0020DB
:108C1000202E00206829040000100140542904007F
:108C2000C7290400B0F5807F03D0044B044A1A60C2
:108C30007047024B034A1A60704700BF182E00208D
:108C4000882D0400002B040070B5064614460D461E
:108C500001B122B1044B5E801D705C6070BD78462E
:108C600000F0F2FFF6E700BF8C32002010B584B0B0
:108C7000434B5A88824221D148F21903984240D08E
:108C800035D948F22503984264D048F23E03984211
:108C900035D048F21F03984235D03A4B1B6813F485
:108CA000804F03D0384B1B68002B2EDC374A40F234
:108CB0000311052012F0E8FDFF2433E0314B1B685F
:108CC00013F4804F03D0304B1B68002B02DC0220D2
:108CD00004B010BD2E4BD3F80435029001922D4AFA
:108CE0000092E5222C49012006F0D8FCEFE702288B
:108CF00017D048F203039842CFD10C7812E00C78D9
:108D000010E00C780EE00C780CE0214BD3F8043521
:108D1000224A00924FF481721F49012006F0BEFCE6
:108D2000C4E7FF24164B1B782BB3164B1B6813F4B8
:108D3000804F03D0144B1B68032B0DDC0023104A1B
:108D400012789A4215D90E4A5268D25CA24214D0C7
:108D50000133F4E7FF24E5E70D4BD3F80435019424
:108D60000F4A009240F20B120B49042006F096FCC9
:108D7000E4E70120ACE70020AAE70020A8E700BF55
:108D80008C320020242E0020202E00202C2A0400CB
:108D900000100140982A04008B2A0400C42A040011
:108DA000E42A040030B585B004461546018010461B
:108DB00004F030F92071E580184B1B88A381002254
:108DC000A2731E23E373237C03F0030362F3010306
:108DD000237401236374A274114B1A88A4F813201E
:108DE0005B88A4F815300F4B1B6813F4804F03D039
:108DF0000D4B1B68032B01DC05B030BD0B4BD3F8CA
:108E00000435228802950192094A00924FF4947227
:108E10000849042006F042FCEEE700BF8032002043
:108E200084320020242E0020202E0020001001403B
:108E30000C2B04008B2A040010B50A4B1B7863B17D
:108E4000084C2378013B04F8043B04F0DFFC06499E
:108E50000144204604F0B0FC10BD784600F0F4FE5A
:108E6000EEE700BFA4320020404B4C0008B5034899
:108E700004F08AFC024B034A1A6008BDA8320020A5
:108E8000182E0020DD2C040008B5FFF7EFFF024B81
:108E90001B68984708BD00BF9832002010B58CB001
:108EA000904B1B681B78013B0A2B00F26382DFE8C2
:108EB00013F00B0035005A007F00AA00D8004701CC
:108EC0009A012B024602EF01874B1B6813F4804F77
:108ED00003D0864B1B68032B14DC002014F0D2FF58
:108EE0000446002211460220FFF7AEFE44B115F001
:108EF000AFF87F4B1B78002B00F04382FFF79CFFFD
:108F00000CB010BD7B4BD3F804357B4A00924FF474
:108F1000B0727A49042006F0C1FBDEE7724B1B6891
:108F200013F4804F03D0714B1B68032B0BDC012122
:108F3000022015F04FF804460022114648F22500A1
:108F4000FFF782FED2E76B4BD3F804350122029281
:108F5000022201926A4A00924FF4B57267490420D6
:108F600006F09CFBE3E7604B1B6813F4804F03D0D3
:108F70005E4B1B68032B0FDC624B1A68624B19882F
:108F8000624B188814F0A2FF0446614A022148F29D
:108F90000300FFF759FEA9E7564BD3F804355D4AA5
:108FA00000924FF4BA725549042006F077FBE3E7CC
:108FB0004D4B1B6813F4804F03D04C4B1B68032BA5
:108FC00015DC4FF6FF73ADF818300223ADF81A30F8
:108FD000069A4D4B1988504B188815F02FF8044607
:108FE0004E4A012148F23E00FFF72EFE7EE7414B3C
:108FF000D3F804354A4A009240F27F123F490420D8
:1090000006F04CFBDDE7384B1B6813F4804F03D0B0
:10901000364B1B68032B15DC424B1A88ADF8182021
:109020005B88ADF81A30069A374B19883A4B188886
:1090300015F004F804463C4A012148F23E00FFF7CF
:1090400003FE53E72B4BD3F80435364A528801927E
:10905000364A00924FF4C7722849042006F01EFBDE
:10906000DAE7334B1B8823B92B4B1B880133304A7B
:1090700013801D4B1B6813F4804F03D01B4B1B68E0
:10908000032B1CDC2B4B1A88ADF818205B88ADF83D
:109090001A30069A1C4B1988254B188814F0CEFFFD
:1090A0000446254A012148F23E00FFF7CDFD002C81
:1090B0007FF41CAF1E4A13880133138016E70D4B53
:1090C000D3F804351B4A5288194909880291019244
:1090D0001A4A009240F2A1120849042006F0DEFA72
:1090E000D0E700BF182E0020242E0020202E0020C4
:1090F000A432002000100140702B04008B2A0400D1
:109100008C2B0400C83200208032002094320020D2
:10911000BC2C0400BC2B040088320020C02C0400AE
:10912000CC2B0400C0320020C42C0400EC2B040023
:10913000C432002084320020C82C04000C2C04000F
:109140000023CDF81A30CDF81E30CDF82230CDF8FE
:109150002630CDF82A30ADF82E308B4A1288ADF883
:10916000182001218DF81C10ADF81E10874A1288B6
:10917000ADF824201E228DF827209DF8282061F3C9
:109180008702022060F301028DF828208DF8291053
:109190004FF0FF328DF82B208DF82C208DF82D000C
:1091A0008DF82E307A4B1B6813F4804F03D0794B27
:1091B0001B68032B0ADC06A814F0CAFE0446764A94
:1091C000012148F21900FFF73FFD8FE6734BD3F8FA
:1091D00004350191724A00924FF4E1727149042002
:1091E00006F05CFAE7E70023CDF81A30CDF81E3020
:1091F000CDF82230CDF82630CDF82A30ADF82E301B
:10920000614B1B88ADF8183001228DF81C2013F03B
:10921000010F28D14FF48173ADF81E305B4B1B88D2
:10922000ADF824301E238DF8273001238DF8293026
:109230005D4B1A88ADF82B205A88ADF82D20544B81
:109240001B6813F4804F03D0524B1B68032B0FDCB9
:1092500006A814F07DFE0446544A012148F2190084
:10926000FFF7F2FC42E640F20113ADF81E30D5E7FD
:109270004A4BD3F80435BDF81E10029101924C4AB6
:1092800000924FF4F2724749042006F007FADFE734
:109290003F4B1B6813F4804F03D03E4B1B68032BDE
:1092A00021DC394B18880023079303238DF81830ED
:1092B00010F0010F23D04CF20303ADF81A303A4BF3
:1092C0001A88ADF814205B88ADF81630059B06AA05
:1092D00006CA14F057FE0446364A012148F21F0020
:1092E000FFF7B2FC02E62D4BD3F80435324A009268
:1092F00040F2EF122B49042006F0D0F9D1E74CF2EE
:109300000203ADF81A30DAE70023069307930893B7
:1093100009930A930B931C4B198801314CF20302F9
:1093200089B206A8FFF73EFD06A814F011FE044618
:10933000224A012148F21900FFF786FCD6E50023F6
:1093400006930793089309930A930B930E4B19887E
:1093500002314CF2020289B206A8FFF723FD06A8EB
:1093600014F0F6FD0446164A012148F21900FFF7F1
:109370006BFCBBE5134A4FF40871052012F084FA28
:10938000B5E5FFF781FDBBE5883200208032002083
:10939000242E0020202E0020CC2C040000100140A0
:1093A0003C2C04008B2A0400C0320020D02C040086
:1093B0007C2C0400D42C0400A42C0400D82C040021
:1093C000DC2C04002C2A040008B5FFF767FD08BD5B
:1093D00008B5FFF74BFD024B1B68984708BD00BF5F
:1093E0009C32002000B583B01C4B1B681A789AB1E0
:1093F0000C2A11D041680088FFF738FC28BB174AB7
:109400001368591C1160164A032111705B780C2BEC
:1094100018D0FFF743FD1AE0124B1B6813F4804F7E
:1094200015D0114B1B68012B11DD104BD3F80435FF
:1094300001920F4A009240F24E220E49022006F09D
:109440002DF904E0FFF7C4FF01E0012802D003B0CA
:109450005DF804FBFFF718FDF9E700BF182E0020A8
:10946000A4320020242E0020202E002000100140D5
:109470003C2B04008B2A040000B589B04FF6FF7323
:10948000ADF81E30ADF81C3001238DF81430ADF866
:1094900016000DF11E0105A80DF0B6FFE8B907A9E9
:1094A000BDF816000EF0EAFBE8B9BDF81C0014F098
:1094B000D3FCF0B9BDF81E10BDF81C0014F082FCFE
:1094C000E8B91B4B1B6813F4804F03D0194B1B6882
:1094D000032B1ADC09B05DF804FB174A4FF4107136
:1094E00012F0D2F9DBE7144A40F2412112F0CCF934
:1094F000DBE7114A4FF4117112F0C6F9DAE70E4AB0
:1095000040F2452112F0C0F9DBE70C4BD3F80435EB
:10951000BDF81E200292BDF81C200192084A00925C
:1095200040F246220749042006F0B8F8D2E700BF0F
:10953000242E0020202E00202C2A040000100140A0
:10954000942D04008B2A040030B583B0002837D155
:10955000224B1B6813F4804F03D0214B1B68032B55
:1095600013DC204B1B8843B31C4B1B6813F4804F48
:1095700003D01B4B1B68032B13DC1A4A1388013BD7
:109580001380FFF78BFC03B030BD174BD3F80435C5
:10959000164A009240F276221549042006F07EF821
:1095A000DFE7114BD3F80435124A009240F27A22D9
:1095B0000F49042006F072F8DFE7FFF765FCE2E7E9
:1095C0000C4615460228DED121B129462046FFF778
:1095D00009FFD8E7784600F037FBF6E7242E002095
:1095E000202E0020A032002000100140E02C0400BA
:1095F0008B2A04000C2D040010B582B0464C246860
:109600002478002C3DD1454C2080454801804549B7
:109610004548C8600320087044490A60444A1380E2
:10962000BDF81020434B1A804349059818F0F5FA0D
:1096300028B14249059818F0F0FA002836D1404B7D
:1096400041F201025A803F4B4FF480525A804FF64C
:10965000FF733B4A13803B4A13803B4B1B6813F458
:10966000804F03D0394B1B68032B46DC2B4C2088E2
:10967000FFF702FF2088FFF7D5FAFFF70FFC02B0D3
:1096800010BD314B1B6813F4804FF8D02F4B1B6873
:10969000002BF4DD2E4BD3F804352E4A009240F215
:1096A00092222D49012005F0F9FFE8E72B490598A2
:1096B00018F0B3FA40B9224B41F203025A80214B11
:1096C00041F202025A80C2E71F4B1B6813F4804F1D
:1096D00003D01E4B1B68002B03DC784600F0B4FA65
:1096E000B5E71B4BD3F804351D4A009240F2AA227D
:1096F0001949012005F0D2FFEFE7154BD3F80435E7
:10970000064A12880192174A009240F2B122124989
:10971000042005F0C3FFA9E7182E0020883200209E
:10972000A0320020A4320020C9930200C8320020D9
:1097300080320020943200208C250400A8250400EB
:1097400084320020C0320020242E0020202E002051
:1097500000100140182D04008B2A0400C4250400C9
:109760004C2D04006C2D040038B50C46054628B17C
:1097700044B1064B1D60064B1C6038BD784600F0B6
:1097800063FAF5E7784600F05FFAF2E79C320020D2
:109790009832002008B5064B1B683BB110F012FC54
:1097A000002803DB024B1B689847F7E708BD00BFA2
:1097B000CC32002010B50C46144B1860144A01211D
:1097C000144818F033F878B9610CE00341F26F7275
:1097D00000238B4208BF82420BD24FF47A720023DF
:1097E00018F078F8014605E00B4A4A2112F04CF8CF
:1097F000EAE705210022094818F02EF800B910BD4B
:10980000054A4B2112F040F8F9E700BFCC320020A6
:1098100095970200CC2D0400D02D0400D0320020FA
:1098200008B5134B1B6873B14FF0A042D2F8043552
:10983000104909684B40C2F804350D4A1368013BD2
:10984000136023B108BD002012F010F8ECE70A48BD
:1098500018F024F84FF0A042D2F804350549096801
:1098600023EA0103054909680B43C2F80435E9E717
:10987000F0320020F4320020F832002020330020A3
:1098800031B1012383404FF0A042C2F80C3570473C
:10989000012383404FF0A042C2F80835704721B140
:1098A0004FF0A043C3F80C0570474FF0A043C3F836
:1098B000080570475AB338B51346132900D838BD88
:1098C000134A10605B00013B124A13604FF0A04343
:1098D000D3F804351840104B186000254C0CC80311
:1098E0004FF47A72002310F5FA7044EB050117F07B
:1098F000F1FF2A460146094817F0AEFF0028DED1E5
:10990000034B1A684FF0A043C3F80C25D7E7704704
:10991000F4320020F032002020330020F832002002
:1099200008B50D230BE04FF0A04103F5E0720320D2
:1099300041F8220001229A40C1F808250133102B7A
:10994000F1D9054A0121054817F070FF00B908BD9B
:1099500011F08CFFFBE700BF219802002C2E0400C1
:10996000F0B1104A1060002309E00F4AD25C02F502
:10997000E0724FF0A0410D4841F822000133032B63
:10998000F3D90B4B4FF00042C3F804230020C3F877
:109990007C01084BC02283F8062340221A607047DE
:1099A0000E20704718330020302E04000C000300F6
:1099B0000060004000E100E010B50024144BC3F843
:1099C0007C4103E0D11A14E00134E4B2032C1ED828
:1099D0004FF0A043D3F810250E4B195D01238B40A7
:1099E0009343F1D00C4B1B680C4AD2F80425991A0A
:1099F000E8D443F233339942E6D9084BD3F804252F
:109A0000054B1A60064B1B6820469847DCE710BDE3
:109A100000600040302E04001C3300200010014084
:109A20001833002060DF704769DF704708B503F026
:109A300027FC08BD10B588B011F07CFD00282BD1A3
:109A4000224B0793079A06920023039304930593EE
:109A500003A90120FFF7E8FF08BB00230493059347
:109A6000F8230393069A03A9A120FFF7DDFFC8B9E5
:109A700006A8FFF7D7FF0446069A079B9A4208D02C
:109A8000134B1B6813F4804F03D0124B1B68012B40
:109A90000BDCB4B908B010BD11F0E8FED0E711F04E
:109AA000E5FEDAE711F0E2FEE2E70B4BD3F804350E
:109AB00001920A4A0092A2220949022005F0EEFD15
:109AC000E7E7204611F0D2FEE4E700BF002E0020B9
:109AD000242E0020202E0020001001409C2E040087
:109AE000812E04000620704700B587B041F20103C3
:109AF00098424CD020D944F2010398425DD044F200
:109B00000203984274D1464B1B6813F4804F1ED059
:109B1000444B1B68002B1ADD434BD3F804351088E7
:109B20000390526802920191404A00926C2240498F
:109B3000012005F0B3FD0AE0012859D1384B1B681C
:109B400013F4804F03D0374B1B68002B12DC4FF00F
:109B5000A0434FF4F032C3F81825C3F80C25EFF3F7
:109B6000108372B64DF6AD6C324B1B78002B54D07F
:109B700030BFF9E72C4BD3F80435029201912E4AFD
:109B8000009260222A49012005F088FDDFE7244B7E
:109B90001B6813F4804FDAD0224B1B68002BD6DDF4
:109BA000214BD3F8043502920191244A009263229A
:109BB0001F49012005F072FDC9E7194B1B6813F41A
:109BC000804FC4D0174B1B68002BC0DD164BD3F859
:109BD00004351068049050680390029192680192D5
:109BE000174A009277221249012005F057FDAEE78F
:109BF0000B4B1B6813F4804FA9D00A4B1B68002B3A
:109C0000A5DD094BD3F8043501910E4A00927B2261
:109C10000749012005F042FD99E707B05DF804FB14
:109C2000242E0020202E002000100140782F040058
:109C3000252F04001C2E0020382F0400542F040070
:109C4000982F0400BC2F040000B583B00023ADF8AA
:109C50000030054B01936A46014644F20200FFF7CB
:109C600043FF03B05DF804FB9421040010B40346E5
:109C7000044C006859689A68DB680FC45DF8044BAF
:109C8000704700BF243300200B4B0C4A92E80300BE
:109C900083E8030003F10802094903C982E80300CD
:109CA000DA79042161F30712DA711A7A022161F379
:109CB00087121A72704700BF243300206000001022
:109CC000A4000010004870472433002000231F2BFD
:109CD00009D8074901EBC30000224280426001F825
:109CE00033200133F3E7034B00221A60704700BFB3
:109CF000343300203434002030B405460F4B1B6849
:109D000000240AE01F230E4A12F83300A0B102EB30
:109D1000C3025288AA4207D001341F2C0BD85A1E06
:109D2000002BEFD01346EEE7054A02EBC302526860
:109D30008A42F1D100E0002030BC7047343400206A
:109D40003433002030B40A4A13680A4C04EBC305CC
:109D500068806960012104F833100B441360202BE4
:109D600001D030BC7047134600221A60F9E700BFEB
:109D70003434002034330020F0B416461F4600234C
:109D800000E00133072B0ED81901084C615A8142BB
:109D9000F7D104EB0312D2E90245BD4208BFB44239
:109DA000EFD1012000E00020F0BC704738340020E3
:109DB0002DE93008C1698269C3884FEA112C4FEA46
:109DC000016BC2F30C01994217D25B1A1344A3F53D
:109DD00000531BEB03044CF10005094A1368591C9E
:109DE000116003F00703808A064A1B01D118D05284
:109DF000C1E90245BDE8300870475B1A1344E8E743
:109E0000B834002038340020C37D002B42D0C37802
:109E10000A7802F0800203F07F0313430B7002788C
:109E20000B7803F07F0343EAC2130B700378002B17
:109E300041D030B48378082B14BF002201224B7824
:109E400003F07F0343EAC2134B70C58803F080031D
:109E5000C5F3861423434B708A7802F0030242EA6A
:109E60008502D2B28A70057A02F0FC02C5F3C10401
:109E700022438A70CB7803F01F0343EA4513DBB219
:109E8000CB70427A03F0E00302F01F021343CB7061
:109E900030BC7047C3780A7802F0BF029B0103F020
:109EA000400313430B70027903F0C00302F03F023A
:109EB00013430B70B3E770470023032B2DD810B466
:109EC00002E00133032B24D8C3EBC3021401144A6C
:109ED000224492F84820012AF3D1114A2244948A5C
:109EE000C2899442EDD1C3EBC30214010C4A22444F
:109EF000D2888A42E5D10A4A2244B2F8582012B1E7
:109F0000848AA242DDD1C3EBC3031A010448104482
:109F100000E000205DF8044B70470020704700BF50
:109F2000E4340020002300E00133032B14D8C3EBFA
:109F3000C3021101094A0A4492F84820022AF3D1C7
:109F4000064A0A44918A828A9142EDD1C3EBC30347
:109F50001A0102481044704700207047E434002082
:109F600008B9042070470820704730B403460C46F7
:109F70000978C17000214162A1680B2903D8217BB7
:109F800001B3012100E0012119700020987029B16E
:109F9000A1680731C9080139597218720121D975B0
:109FA00003F10C0504F1100103C985E80300E18900
:109FB0009982A1691962217F9975216AD9629A6291
:109FC00030BC70470021DFE70021174B1B688B4234
:109FD00027D90023154A02EBC10252689A421ED9C2
:109FE00010B40FE060685DF8044B704701310E4B10
:109FF0001B688B4211D900230C4A02EBC102526844
:10A000009A42F3D9094A52F8312002EBC30412F8FC
:10A0100033208242E6D00133EEE70020E3E701314E
:10A02000D3E70020704700BFBC340020C0340020BC
:10A0300070B58CB006460D4614462C22002101A8AE
:10A0400017F0B8FD0F238DF80430ADF808604FF01D
:10A05000000365F300038DF80A308DF80B4001A86A
:10A0600001F0E8F90CB070BD30B58DB005460C4676
:10A070002C22002101A817F09DFD10238DF804303B
:10A0800002958DF80C4001A801F0D4F90DB030BD57
:10A0900000B58DB010B913F1020F06D1074B186847
:10A0A00004F0EEF90DB05DF804FB01218DF8041009
:10A0B0000293039201A801F0BDF9EFE7C834002034
:10A0C000F8B5069C002962D00F4616685568D2F88C
:10A0D00008E0D2F80CC0E6602561C4F814E0C4F8CA
:10A0E00018C016695569E66125620022627002781F
:10A0F000D209227062B30421B9424AD8E57D4DB33A
:10A10000017801F07F01E1700021A1709AB14278DD
:10A11000920102F4FE52817842EA9102E280827852
:10A12000D20002F01802C17842EA51122272C278BB
:10A1300002F01F0262721D46002363622B78032B1C
:10A1400021D82A78144B53F82230E3620020F8BD5E
:10A150000121D1E70578C5F38015E570057805F094
:10A160003F05257142B190F90110002902DB04215D
:10A17000A170CBE70821FBE70425A5702944B9426B
:10A18000C4D90920E3E77846FFF75EFDD9E7092047
:10A19000DDE70920DBE700BFD82F040070B50C46CF
:10A1A0001E460378ABB104252A44A26000F10C03DB
:10A1B0002360836A6360C36AE360002323742046DC
:10A1C00004F0D0FC034610B96269154435601846A6
:10A1D00070BD0125E8E72DE9F0418EB00D46164629
:10A1E0001C46804600282DD0002D2FD0002C31D0C9
:10A1F000636A0233059304F10C00E378002B2DD041
:10A200000121A27801AF3B46082A14BF0022012297
:10A2100004F07BFA0697CDF81C80B2B2ADF820208E
:10A220000B9515440C95A3788DF83430237B022BC5
:10A2300016D00023ADF8283005A804F05EFA0EB061
:10A24000BDE8F0817846FFF7FFFCCDE77846FFF7E1
:10A25000FBFCCBE77846FFF7F7FCC9E70221D0E724
:10A2600023692BB1236909931023ADF82830E3E764
:10A270007846FFF7E9FCF5E72DE9F04188B00446A0
:10A280000D46C37D002B3CD0082605FB06F8637AFB
:10A29000AB4238D0257201AB324602A92046FFF707
:10A2A0007DFF074648BB4DB994F8533033B9A369D5
:10A2B000C3F30C03E380012384F85330E37D7BB9BF
:10A2C00094F8523063B91DBBB4F84A10A278234603
:10A2D0008A1AE16E0846FFF77EFF012384F85230A8
:10A2E00007992046FFF790FDE16E32464144019800
:10A2F00017F037FC02A804F05BFC384608B0BDE854
:10A30000F0810C26C1E7B4F84A60A6EB0806C1E765
:10A310007846FFF799FCD7E770B505460E4609B1B8
:10A3200000230B6095F85040002104E0631C85F881
:10A3300050300134E4B26B7AA34210D3EA6C0123AB
:10A34000A3401A42F5D121462846FFF795FF014662
:10A3500028B9002EEAD0336801333360E6E70846B7
:10A3600070BDF0B589B085781544C37D7BB10B23F2
:10A370009D4224D816460F46044601AB2A4602A940
:10A38000FFF70CFF054620B1284609B0F0BD0F23AA
:10A39000EEE707992046FFF737FDE37D43B13246EC
:10A3A0003946019817F0DDFB02A804F001FCEBE749
:10A3B0002346324601993846FFF70DFFF4E7092599
:10A3C000E2E7000010B5044690F84830012B0CD1AC
:10A3D00003F01CFA237B012B0BD0094BD9680144F5
:10A3E00004F1300003F0E8F910BD7846FFF72CFCCB
:10A3F000EEE7A37D024AD168126902FB0311EEE782
:10A40000CC34002030B583B0002403E02846FFF7A9
:10A41000D9FF0134032C19D8C4EBC4031A010C4B27
:10A42000134493F84830012BF3D100230193C4EB7C
:10A43000C4021301064D1D4401A92846FFF76CFF15
:10A440000428E3D0019B002BE3D0DFE703B030BD4D
:10A45000E434002038B5044690F84830022B09D186
:10A46000064B1D6803F0D2F9411904F1300003F0E6
:10A47000A3F938BD7846FFF7E7FBF1E7CC340020BD
:10A4800038B5044690F84830022B10D10A4B5D7D58
:10A490005A689B6803FB052503F0B8F9411904F1DC
:10A4A000500003F089F9012384F8683038BD7846FC
:10A4B000FFF7CAFBEAE700BFCC34002010B5044622
:10A4C000808A02F0A7FD01281CD1237BE3B194F917
:10A4D0001620002A1ADBE27D4AB1022B18D094F92B
:10A4E0000330002B16DBA378B3B900200BE0E27831
:10A4F0000AB9012B12D1237893B9A378042B11D177
:10A50000002000E0102010BD1020FCE70720FAE733
:10A510001020F8E70720F6E70720F4E70720F2E726
:10A520000020F0E70720EEE738B5044603784BB18A
:10A53000C388C2698169808A06F09CFA054645B9DC
:10A54000284638BDC2698169808A06F08DFA0546C1
:10A55000F5E7E169002201F00101A08AFFF768FD3B
:10A56000EEE700002DE9F04780460E4617464B1EE9
:10A57000DBB2012B0FD8B7F5C07F10D80024032C15
:10A580001AD8C4EBC4031A01304B134493F8483073
:10A590004BB10134F3E77846FFF756FBEBE778461B
:10A5A000FFF752FBEAE7DFF8A4A01546554438460A
:10A5B00008F071FBE86600E000255DB3EB6E002B50
:10A5C00042D043462A4608F1300ED3F800C05C68FA
:10A5D0009868D968C2F800C054609060D1601033A8
:10A5E00010327345F1D10023EB64A5F84A70012EB7
:10A5F00013D06FF00103AB62002385F86830144B71
:10A60000AB652D66134BAB632D64012002F0FEF9A0
:10A6100085F848602846BDE8F0870F4B1B7D85F81C
:10A620005130002385F8523085F8533085F850308A
:10A63000D8F828206A65A5F858306FF00103AB629E
:10A64000064BAB632D64E0E70025E3E7E43400202C
:10A6500037B0020095A90200CC340020E1A9020025
:10A6600000B585B000238DF80F3098B10346084639
:10A6700002330B600DF10F0104F043F89DF80F3029
:10A6800043B10D4B1B6813F0040F03D00B4B1B6839
:10A69000032B04DC9DF80F0005B05DF804FB084BAC
:10A6A000D3F80435074A009240F2064206490420D6
:10A6B00004F0F4FFEEE700BF242E0020202E00203F
:10A6C0000010014008310400FB3004002DE9F04384
:10A6D0008FB004460E4615461F46D0F81880037802
:10A6E0004BB1C388C8F30C029A4241D29B1A43442F
:10A6F000A3F50053A36104F10C00E378002B3AD0DA
:10A700000121A2780DF128094B46082A14BF002226
:10A71000012203F0FAFFC4F81880CDF808900396E0
:10A72000A378EA1A92B2ADF8102032440892079743
:10A730008DF824300023ADF81830E3787BB3237B09
:10A74000022B1AD02546002345F8243F2A462179BA
:10A75000206A0DF005FD606AA8B101A9FFF780FF2E
:10A76000002841D12A462179206A0DF0F9FCF2E750
:10A770009B1A4344BEE70221C3E71023ADF818300B
:10A7800023690593DEE7237B022B31D104F10C0111
:10A79000E0890DF097FD0028D1D1052025E0237B2D
:10A7A000012B01D0052020E0E389ADF80030A38A19
:10A7B000ADF80230002500E00135012D12D8214608
:10A7C000002341F8243F0EAB03EB450333F8380C6C
:10A7D0000DF0E3FC01A9606AFFF742FF0028EBD00F
:10A7E000002002E0052000E000200FB0BDE8F0836B
:10A7F0000520FAE770B5F0B00D4614461E4610ABC2
:10A800000A4601462046FFF761FF50B1224B1B6804
:10A8100013F0040F03D0214B1B68052B2FDC70B005
:10A8200070BD2046FFF780FE0028F8D103AB01225F
:10A830008DF80C20A28AADF80E20002204928DF82B
:10A84000142010AA0692A278AD1AADF81C5008AADE
:10A8500093E8030082E803000AAB04F10C0292E8DB
:10A86000030083E80300A37D8DF83830236A0C933E
:10A87000636A0D930F9605A800F0DCFDCFE7084B47
:10A88000D3F80435074A009240F2F26206490620E6
:10A8900004F004FFC3E700BF242E0020202E002078
:10A8A0000010014058310400FB30040010B504468C
:10A8B000C06E08F0F4F904F1300002F065FF94F87E
:10A8C0004830022B0AD070220021204617F072F97E
:10A8D000002084F8480002F099F810BD04F15000FF
:10A8E00002F052FFEFE710B58CB0044690F8483004
:10A8F000012B0CD101238DF80430636D029301A864
:10A9000000F098FD2046FFF7D1FF0CB010BD78464F
:10A91000FFF79AF9EEE7000030B585B00D46044622
:10A92000A8B194F84830022B15D02946606DFFF786
:10A930009BFB2046FFF7BAFF114B1B6813F0040F77
:10A9400003D0104B1B68032B09DC05B030BD7846E3
:10A95000FFF77AF9E5E72046FFF72AFAE5E70A4B21
:10A96000D3F8043594F8482002950192074A0092E2
:10A970004FF4FA720649042004F090FEE5E700BFA8
:10A98000242E0020202E002000100140F82F04006B
:10A99000FB30040008B508460021FFF7BDFF08BDE5
:10A9A00008B5037B012B02D0FFF79DFF08BD0121F5
:10A9B000FFF7B2FFFAE7000008B590F8513053B145
:10A9C000013B80F85130002380F85030034B186869
:10A9D00003F056FD08BDFFF7E3FFFBE7C834002096
:10A9E00010B50C4691F84830012B03D12046FFF7F3
:10A9F000E3FF10BD7846FFF727F9F7E7062976D180
:10AA0000F0B585B015460278910101F4FE51477802
:10AA10008478C3781B0443EA0463047943EA04237B
:10AA200044791C4356B241EA97012846FFF744FA9D
:10AA30000746E0B1002E2FDBC289A98A8A422BD0BB
:10AA40002B4B1B6813F0040F3ED02A4B1B68012BC5
:10AA50003ADD294BD3F8043502910192274A00923E
:10AA60004FF4CE622649022004F018FE2CE0204B61
:10AA70001B6813F0040F27D01E4B1B68012B23DD2E
:10AA80001D4BD3F804351F4A00924FF4CD621C4988
:10AA9000022004F003FE17E0002E17DBFD6C2543B7
:10AAA000FD64BCB13B78D3B17B7A5A1C012393403F
:10AAB000013B9D4217D0002187F850103846FFF720
:10AAC0002BFC3846FFF77EFC05B0F0BDAB8AA7F83B
:10AAD0005830E3E703213846FFF71EFFF4E77846D6
:10AAE000FFF7B2F8E0E73846FFF7FDFEECE7704706
:10AAF000242E0020202E0020001001406030040091
:10AB0000FB300400303004002DE9F0438BB00746E1
:10AB10000E4614461D461046FFF706FD50B994F840
:10AB20000380B8F1000F08D12B4622463146384643
:10AB3000FFF764FF0BB0BDE8F0834046FFF744FA2F
:10AB400081460028F6D08DF80480236A0793A38AF3
:10AB5000ADF8123005AB04F10C0292E8030083E873
:10AB60000300A37D8DF820300297039623788DF89B
:10AB70001030E36A0993294601A8C847DAE710B5FF
:10AB8000547814F0010F03D0D47D14B1FFF7BCFF4B
:10AB900010BDFFF72FFEFBE708B501390130FFF7C5
:10ABA000EEFF08BDF0B5C7B086781644C37D2BB163
:10ABB0004FF48073B3427ED3002303E04FF4C0739D
:10ABC000F8E70133032B19D8C3EBC30425013C4C30
:10ABD0002C4494F84840012CF3D1394C2C44A58ADC
:10ABE000848AA542EDD1C3EBC3042501344C2C4427
:10ABF000E589C489A542E4D1082455E014460F46EE
:10AC000032460121FFF7AEFC0546002855D022460A
:10AC10003946C06E16F0A5FF0023459345A9284686
:10AC2000FFF77AFB044608B1042840D1459B7BB965
:10AC3000244B1B6813F0040F35D0234B1B68032BE8
:10AC400031DDB5F84A70802F28BF8027002313E03C
:10AC50002846FFF7B7FBEBE7EA6ED25C1B490C68AE
:10AC600010095900265C04A800F8136002F00F02D6
:10AC70000131A25C42540133BB42EDD304AA00234C
:10AC800002F8173003F1804303F58833D3F8043515
:10AC900002920F4A01920F4A009240F255520E4919
:10ACA000042004F0FBFC0024204647B0F0BD2846F9
:10ACB000FFF7FCFDF8E70924F6E70424F4E700BFFA
:10ACC000E4340020242E0020202E0020282E0020F6
:10ACD000A430040050220400FB30040070B5044688
:10ACE0000D461646FFF7EAFB034638B923783BB119
:10ACF000324629462046FFF755FF0346184670BDE9
:10AD0000324629462046FFF72CFB0346F6E70000B3
:10AD100038B504460D46CB695B780371CB691B7867
:10AD200083F00103C370CB6943628B8A0B2B07D876
:10AD3000CB7A002B35D10B7B012B02D0002300E016
:10AD400001232370002B31D0287B02282BD0FFF762
:10AD500007F9A070AB8A03440B33174880FB032329
:10AD60005B10013B6372002323720023E37504F13F
:10AD70000C0395E8030083E80300AB6923622B8989
:10AD8000A382AB7AA3752B6AA362DF23E362284612
:10AD90000DF0C6FA20B12B78012B0AD0FF23E36215
:10ADA00038BD0123CDE7054B987DD0E70423A37080
:10ADB000DBE72023F3E700BFABAAAA2ACC340020AC
:10ADC00010B54FF4E0720021134816F0F3FE06F0C0
:10ADD00019F80024114B1C6080222146104816F0FF
:10ADE000E9FE104B104A1A60104A5A604CF2503279
:10ADF0009A600F49D9601A6104221A759C7508225D
:10AE00005A750C4803F01CFB0B4B18600B4B1C6075
:10AE10000B4806F0F1F810BDE4340020B8340020EF
:10AE200038340020CC34002080969800F04902008D
:10AE300020A1070029B00200C8340020BC34002043
:10AE400091A0020008B505F007FE08BD98B110B545
:10AE50008CB00446036983B1C36983B1836983B14C
:10AE600001466846FFF754FFA28A21696846FFF74A
:10AE700035FF0CB010BD0E2070470E20F9E70E20F4
:10AE8000F7E70E20F5E7000058B310B590B0044680
:10AE9000426842B3826942B30A46014604A8FFF7FA
:10AEA00064F8134B1B6813F0040F03D0114B1B689D
:10AEB000062B06DCA268616804A8FFF70FFF10B03C
:10AEC00010BD0D4BD3F804352278A169029101928F
:10AED0000A4A009240F2F5720949072004F0DEFBAD
:10AEE000E8E70E2070470E20E9E70E20E7E700BFF5
:10AEF000242E0020202E0020001001401C310400D0
:10AF0000FB300400037B012B01D00020704730B5DB
:10AF10008FB00D4604462C4B1B6813F4007F03D002
:10AF20002A4B1B68032B3EDC02A900230393CDF8B8
:10AF30000F30E288C2F3861092008DF809202A0EA5
:10AF40008DF80A202A0C8DF80B202A0A8DF80C2087
:10AF50008DF80D506278022A14BF0022012240EAC7
:10AF6000C2128DF808200622079201228DF82420B3
:10AF7000A28AADF826200A938DF814300691226A31
:10AF80000B928DF82030E389ADF82230E36A0D93FF
:10AF9000A37DA3B98DF830306FF0010105A8FFF74C
:10AFA00073FF0FB030BD0A4BD3F80435094A009245
:10AFB00040F262220849042004F070FBB4E7074B1A
:10AFC0005B7D8DF83030E7E7242E0020202E002016
:10AFD00000100140E82F0400FB300400CC340020B6
:10AFE00090F84830022B00D0704790F86830022B60
:10AFF000FAD110B50446C16CFFF784FF10B90023E5
:10B0000084F8683010BD000010B5002407E0C4EBE0
:10B01000C402130103481844FFF7E2FF0134032C74
:10B02000F5D910BDE434002008B5FFF7EBF9FFF7C0
:10B03000EBFF012008BD10B50C4691F84830022BFB
:10B0400006D1022384F868302046FFF7C9FF10BDFF
:10B050007846FEF7F9FDF4E72DE9F04383B00446A6
:10B06000C5698269C388290A2806C2F30C05AB4268
:10B0700034D95B1B1344A3F50053C61841F10007F4
:10B0800032463B46A08AFEF777FE002840F08D80CE
:10B090002046FEF747FF054658B3D0F81CC082692A
:10B0A000C3884FEA1C294FEA0C68C2F30C0C9C457C
:10B0B00017D2A3EB0C031344A3F5005318EB0300C2
:10B0C00049F10001B94208BFB0420ED38F4208BF18
:10B0D000864231D3284603B0BDE8F0835B1B13449E
:10B0E000CBE7A3EB0C031344E8E705212846FFF761
:10B0F00013FCE388E269A169A08A05F07FFDE8B945
:10B10000627A531CE17D99B3082202FB03F289B3F2
:10B110004FF48073934230D302212046FFF722FA86
:10B1200005460028D6D100212046FFF7EBFE02217C
:10B130000020FEF799FFCDE70025CBE7E388E26921
:10B14000A169A08A05F0D8FD60B1237863B1617A66
:10B150004B1C0121994001392046FFF7D3FE2046C0
:10B16000FFF7E2F90025B5E77846FEF76DFDEEE75B
:10B170000C22CAE74FF4C073CCE70D4B1B6813F0E9
:10B18000040F03D00B4B1B68002B01DC0025A1E74B
:10B19000094BD3F804350192084A00924FF45C72CF
:10B1A0000749012004F07AFAF0E7002592E700BF92
:10B1B000242E0020202E0020001001401C3004000E
:10B1C000FB3004002DE9F04182B006468846154662
:10B1D0001F461046FFF740FF002847D00446414B6A
:10B1E0001B6813F0040F03D03F4B1B68032B40DC9C
:10B1F0002046FFF72FF9237B012B48D0E16C2A7AF8
:10B2000001239340194231D10B43E364A8F10408B0
:10B210002B7AEA7D002A42D04FF0080C0CFB03FC8D
:10B22000617A8B423ED0002A41D00823434540D169
:10B23000A269AB699A4209D204F10C0E0C350FCD0C
:10B24000AEE80F0095E803008EE80300E06E42468A
:10B25000311D604416F085FCE56C237873B3637A86
:10B260005A1C01239340013B9D422BD002B0BDE804
:10B27000F0811E4BD3F804352A7A01921C4A0092C1
:10B280004FF465721B49042004F008FAB0E794F803
:10B290006830002BB2D12046FFF7F2F8AEE74FF04E
:10B2A0000C0CBBE70CEB0803A4F84A30C0E70C23F6
:10B2B000BCE704212046FFF72FFBD7E77846FEF7CF
:10B2C000C3FCCCE7E16C2046FFF71CFE3B46224660
:10B2D000B4F84A10E06EFFF752FC2046FFF7E6FA9A
:10B2E000C4E700BF242E0020202E002000100140C3
:10B2F00048310400FB3004002DE9F04190B00028F3
:10B300004CD08046002A4BD01F4614460E4604AB54
:10B3100000933B46FEF7D4FE054618B1284610B010
:10B32000BDE8F08104A8FFF7C9F805460028F5D16B
:10B3300000230293039302A960880CF0C3FF28B195
:10B340009DF8113043F001038DF811302269E16856
:10B35000208905F00BFC38B19DF8113003F0FE0395
:10B360008DF81130002BD9D09DF81130002BD5D09D
:10B3700013F0010F01D0039B08939DF8103033B1F7
:10B380003B4604AA31464046FFF71CFFC6E73B4652
:10B3900004AA31464046FFF7FFFBBFE70E25BDE795
:10B3A0000E25BBE7F8B500B30546164B1F68F7B985
:10B3B0000E463C46B4420ED205EBC4035B68CBB1EB
:10B3C00015F8340010F0800F16D1B8B1FEF7FCFD6F
:10B3D000B0B90134EEE70C4B43F8375003EBC70329
:10B3E0005E607B1C074A136002E00E2700E0042722
:10B3F0003846F8BD0E27FBE70B27F9E70F27F7E7DD
:10B400000F27F5E7BC340020C0340020084B196832
:10B4100061B110B504E0064804F0A9F8214624B152
:10B420000C680B79002BF9D0F5E710BD704700BF11
:10B43000A836002038B5054630B1104B1C68ACB1B9
:10B440000F4B01221A7004E07846FEF7FDFBF4E78B
:10B4500024683CB12379002BFAD154F8043C2846E7
:10B460009847F5E7064B1B78022B00D038BDFFF755
:10B47000CDFF034B00221A70F8E700BFA83600206A
:10B48000A436002010B5044630B100232372211DDC
:10B49000034804F041F810BD7846FEF7D5FBF4E709
:10B4A000A83600200A8883689B5A07339BB223F092
:10B4B000030313449BB20288043A934200D9002349
:10B4C0000B80704710B582B004468368C91AADF886
:10B4D00006100DF10601FFF7E5FFBDF80630A06884
:10B4E000184402B010BD0088043880B27047438809
:10B4F0008268D018D152012383707047826800237C
:10B500009370438083807047073189B221F0030133
:10B5100089B2428883889A4204D29B1A99421EDCDF
:10B520000020704710B59A420FD90488A41AA1428E
:10B5300017D98B4217D3032C03D9836813440422F1
:10B540009A7000234380184604E0826813449B7875
:10B550000BB1042010BDFFF7D1FF0020FAE7042053
:10B5600070470020F6E70420F4E738B504460D469E
:10B570008368828813448B4202D07846FEF764FBCE
:10B580000023AB70211D2046FFF78CFFA288A36823
:10B5900013449B78042B00D038BD0023A380FBE725
:10B5A00010B50C468368428813448B4202D078461B
:10B5B000FEF74AFB0023A37010BD70B50646154682
:10B5C0000C46002944D0002E46D0B4F1005F08D9C3
:10B5D0004FF08053D3F80C3103F50023B4EB832FE5
:10B5E0000ED3B4F5000F08D94FF08053D3F80C31C7
:10B5F00003F50053B4EB832F02D37846FEF724FB08
:10B600006B1E2344B3F1005F08D94FF08052D2F88B
:10B610000C2102F50022B3EB822F0ED3B3F5000FFD
:10B6200008D94FF08052D2F80C2102F50052B3EB4A
:10B63000822F02D37846FEF707FB042D10D9358000
:10B6400000237380B380B460043D2580A37070BD77
:10B650007846FEF7F9FAB6E77846FEF7F5FAB4E76A
:10B660007846FEF7F1FAEAE738B50446A0B16288F9
:10B67000A36813449B78012B12D0EFF3108572B6A8
:10B68000A388A16819448B78032B0DD02046FFF7BF
:10B6900035FF05B962B638BD7846FEF7D5FAE6E75C
:10B6A0007846FEF7D1FAE8E72046FFF70BFFA368DC
:10B6B000C31A638000238370EBE72DE9F0410E4647
:10B6C00015460446D0B1EEB16288A36813449B7856
:10B6D000012B1BD025B32046FFF705FFA84221D33D
:10B6E000EFF3108872B629462046FFF70DFF074694
:10B6F00080B1B8F1000F16D162B614E07846FEF7BB
:10B70000A3FAE0E77846FEF79FFADDE77846FEF712
:10B710009BFADFE729462046FFF7E9FE3060E8E7BD
:10B72000092700E009273846BDE8F081F8B50C4646
:10B7300016460546E0B1FCB1A378012B20D1238841
:10B74000B34221D326B3EFF3108772B626800223CB
:10B75000A370E9182846FFF7A5FE6B88AA889342D4
:10B7600003D0AA68134400229A7007B962B6F8BDE4
:10B770007846FEF769FADEE77846FEF765FADBE71A
:10B780007846FEF761FADAE77846FEF75DFAD9E720
:10B790007846FEF759FAD6E770B50D46044690B1E3
:10B7A000ADB1EFF3108672B6A288A36813449A78FD
:10B7B000042A10D09A78022A15D0032A18D005201E
:10B7C00006B962B670BD7846FEF73EFAE8E77846FD
:10B7D000FEF73AFAE5E7211D2046FFF763FEA2884F
:10B7E000A3681344E6E703229A702B600020E7E782
:10B7F0007846FEF729FA0020E2E738B5044680B122
:10B80000EFF3108572B6A088A16801448B78042BF1
:10B810000BD08878022814BF0020012005B962B639
:10B8200038BD7846FEF710FAEAE72046FFF74AFEF1
:10B830000146EEE738B5044678B1EFF3108572B6ED
:10B84000A088A16801448878C31EDBB2012B08D808
:10B850002046FFF737FE0146F5E77846FEF7F4F994
:10B86000EBE7022814BF0020012005B962B638BDFD
:10B8700070B50C46064678B194B1EFF3108572B6F8
:10B88000A378012B10D0032B13D121463046FFF7AC
:10B890006CFE05B962B670BD7846FEF7D5F9EBE7E8
:10B8A0007846FEF7D1F9E8E721463046FFF778FE03
:10B8B000EFE77846FEF7C8F9EBE710B5EFF3108431
:10B8C00072B68388816819448B78042B06D08878F7
:10B8D000B0FA80F0400904B962B610BDFFF7F2FD7E
:10B8E0000146F4E708B5064B986800221A605A60D2
:10B8F0009A60DA601A615A619A6104F04DFE08BDDF
:10B90000AC36002000B585B00A4BDB6802228DF80A
:10B91000002001934FF480530293074A69460120A7
:10B9200001F08EFA18B9012005B05DF804FB002083
:10B93000FAE700BFAC360020C836002000B585B05D
:10B940000A4B1B6802228DF8002001934FF48053AC
:10B950000293074A6946012001F072FA18B90120E2
:10B9600005B05DF804FB0020FAE700BFCC360020EC
:10B97000C8360020164BDA68137951795B1A03F543
:10B980007F2303F6FF7302EB03339A4205D002F5DF
:10B9900080520F4BDA600320704700B585B00D4B25
:10B9A0001B6801208DF8000001930B4B03930423C7
:10B9B00002930A4A694601F043FA18B1002005B023
:10B9C0005DF804FB024B01221A760220F7E700BF64
:10B9D000AC360020CC360020D0360020C8360020FF
:10B9E00000B585B00C4BDA680C4B1B6804330120A2
:10B9F0008DF800000192039340F6FC730293084A0D
:10BA0000694601F01DFA18B90120034B187600E0D1
:10BA1000002005B05DF804FBAC360020CC360020D9
:10BA2000C836002000B585B00A4B1B6801208DF890
:10BA300000000193084B039304230293074A6946CD
:10BA400001F0FEF918B9012005B05DF804FB0020F3
:10BA5000FAE700BFCC360020B8360020C8360020F8
:10BA600010B584B0104BDA681478104B1B6804339F
:10BA700001208DF800000193039202940C4A69465C
:10BA800001F0DEF968B9094B1B6804F0FC041C44A2
:10BA90000434054B5C61D9680A780A441A610120B4
:10BAA00000E0002004B010BDAC360020CC360020F1
:10BAB000C836002008B50023092B09D8064A52F8D9
:10BAC0002320824201D00133F6E7044A536002E0AA
:10BAD0007846FEF7B9F808BD18320400AC360020ED
:10BAE00010B5214BDB6853B11F4B1B7E5BB91E4B5E
:10BAF0005B68092B26D97846FEF7A6F822E078463F
:10BB0000FEF7A2F8F0E77846FEF79EF8EFE7164A50
:10BB1000536801335360092B21D97846FEF794F816
:10BB20001DE0114B00225A6019E00F4B1B7E1BB128
:10BB30000D4B02221A7012E0FFF7D4FE0FE00A4B01
:10BB40001B7E83B9084B5A68084B53F8223098473C
:10BB500004460228E9D00328E3D00128D7D0012CDD
:10BB6000EDD0032CEBD010BDAC3600201832040011
:10BB7000104B1B681B685A1E12F1030F18D8C3F331
:10BB80000B020AB10020704710B50B4AD3600023A6
:10BB9000137653760124147093600848FFF78AFFE8
:10BBA0000749204601F03AF9FFF79AFF204610BDF9
:10BBB00000207047CC360020AC36002005B90200CA
:10BBC000C5BB020008B50B78032B06D00B4B1B78C6
:10BBD000012B06D0022B0BD008BD084B00221A7691
:10BBE000F4E7064B1B7E002BF6D1FFF779FFF3E756
:10BBF0000B78032BF0D1FFF775FEEDE7AC36002094
:10BC000000B585B0174BDB6818784FF6FF7203F567
:10BC10008051184405F0A5F9F0B10246114BD968DE
:10BC20000B780B44984219D00E4B5B7E93B10E4BB0
:10BC300001208DF8000001920393042302930B4A24
:10BC4000694601F0FDF858B90120064B187605B099
:10BC50005DF804FB064BEBE70120F8E70120F6E76F
:10BC60000020F4E7AC36002090340400C8360020F1
:10BC70008C34040008B5104BDB681878002203F5FB
:10BC80008051184405F06DF908B1012008BD0A4B38
:10BC9000DA68137951795B1A03F57F2303F6FF7392
:10BCA00002EB03339A4205D002F58052024BDA6070
:10BCB0000320EBE70220E9E7AC360020F0B585B0C1
:10BCC000514BDD686A792B79591E8A4214D005F5EB
:10BCD00080510C780C444D490968081D0E790644C2
:10BCE0009B1A05EB03356388013B9BB247F6FE6266
:10BCF000934260D927461BE00120434B58767EE0F3
:10BD00007846FDF7A1FF16E027F47F6323F00F03C9
:10BD100003F580531A7813449D4247D99C4247D279
:10BD20005A88013A92B21F4647F6FE618A4210D9FC
:10BD30003B88002BE4D03B8807EB830323F47F622E
:10BD400022F00F029342DFD07A88B2F5FE4FE3D1A2
:10BD5000DAE71C462FE07846FDF776FF16E027F479
:10BD60007F6323F00F0303F580531A7813449D4239
:10BD700020D99C423BD25A88013A92B21F4647F6DC
:10BD8000FE618A4210D93B88002BE4D03B8807EB48
:10BD9000830323F47F6222F00F029342DFD07A887C
:10BDA000B2F5FE4FE3D1DAE71C4604E0002402E0DE
:10BDB000002400E00024E4B1144B1968628801F506
:10BDC0008051304605F0CDF8064690B101200E4B6B
:10BDD00018768DF8000001940D4B03930423029311
:10BDE0000C4A694601F02CF858B92746CBE70024E5
:10BDF000E1E7B4FA84F46409034B5C76012005B0F2
:10BE0000F0BD0020FBE700BFAC360020CC360020A0
:10BE100088340400C83600202DE9F04186B0644B18
:10BE20001B6923B1624B5B692BB1002748E0784660
:10BE3000FDF70AFFF6E77846FDF706FFF5E77846D7
:10BE4000FDF702FF17E028F47F6323F00F0303F5EB
:10BE500080531A7813449E421FD99C4221D25A889B
:10BE6000013A92B2984647F6FE618A4213D9B8F871
:10BE70000030002BE3D0B8F8003008EB830323F444
:10BE80007F6222F00F029342DDD0B8F80220B2F5B3
:10BE9000FE4FE0D1D7E71C4600E000241CB100941F
:10BEA00038E00024FAE700230093019B002B5AD1CD
:10BEB0000127002C76D0628847F6FF739A4271D032
:10BEC000002F73D13A4B5A6922F47F6525F00F0594
:10BED000AD1A05F580551C69DE68337972799B1AB5
:10BEE00006EB0336002301936388013B9BB247F6C0
:10BEF000FE629342D3D9A046B9E77846FDF7A4FE87
:10BF000023E024F47F6424F00F0404F580542378A4
:10BF100023441C46A642C8D92388019A02EB830217
:10BF20009542C2D9009B634023F47F6323F00F0343
:10BF3000002BBAD16388013B9BB247F6FE618B426E
:10BF4000B3D801922388002BD7D0238804EB830336
:10BF500023F47F6222F00F029342D2D06288B2F5BE
:10BF6000FE4FD6D1CDE7124A526901208DF8080064
:10BF70000392009A059204930E4A02A900F060FF12
:10BF800070B90B49019B23F003024B6913444B61C9
:10BF900014B1074B1C618CE77846FDF755FEF8E7B6
:10BFA000002000E0012006B0BDE8F0810120FAE7A2
:10BFB000AC360020C836002000B585B040F6F873D6
:10BFC0001B68B3F1FF3F09D0B3F1FF3F0CD07BB149
:10BFD000B3F1FF3F37D0A3F580520FE01E4A12683D
:10BFE000B2F1FF3FF0D103E01B4A1268002AEFD103
:10BFF0004FF080514B690A6902FB03F2A2F58052AF
:10C00000164B1A60164B1B6813F4801F16D0154B85
:10C010001B68062B12DD144BD3F8043540F6F8717B
:10C020000968B1F1FF3F13D0029201910F4A0092CB
:10C030004FF41A720E49072003F030FBFFF798FD0A
:10C0400005B05DF804FB044B1A68A2F58052D5E7F1
:10C0500001490968E8E700BF14100010CC36002041
:10C06000242E0020202E002000100140E431040086
:10C07000CB31040010B50446B0B1104B1B78BBB1F6
:10C080000E4BD968E3685879A3EB0032914211D383
:10C090001A79121A02F57F2202F6FF7203EB0233BD
:10C0A000994209D8012004E07846FDF7CDFDE4E788
:10C0B000002010BD0020FCE70020FAE7AC3600208D
:10C0C000024B1878003018BF01207047AC360020B2
:10C0D00010B504460E4B1B7893B92378032B13D16C
:10C0E0000B4B9C60E268DA6000225A601A760120ED
:10C0F00018705A76074900F091FEFFF7F1FC10BD69
:10C100007846FDF7A1FDE8E77846FDF79DFDE7E7F6
:10C11000AC360020C5BB0200014B1868704700BF59
:10C12000CC36002010B5044680B163681BB123688B
:10C130000BB1A36813B97846FDF786FDA3685A1EB4
:10C14000134207D10023E360236110BD7846FDF759
:10C150007BFDEAE77846FDF777FDF3E770B5F0B1D0
:10C1600004468368EBB1EFF3108572B60369C068CB
:10C17000834210D0084621686268A668013E3340B9
:10C1800003FB021108B115F0ECFC236901332361B4
:10C190004DB962B608E005B962B6052504E00E2582
:10C1A00002E0092500E00025284670BDC0F30B031E
:10C1B0003BBB41B301F6FF71090B144B0222C3F8DC
:10C1C0000425124BD3F80034002BFAD0002202E0F1
:10C1D00000F5805001328A4208D20C4BC3F80805A2
:10C1E0000A4BD3F80034002BFAD0F1E7074B0022BA
:10C1F000C3F80425054BD3F80034002BFAD00020F7
:10C200007047102070470920704700BF00E00140D0
:10C2100010F0030F2FD111F0030F2FD182B312F0C2
:10C22000030F2FD110B49208174B0124C3F8044513
:10C23000154BD3F80034002BFAD002E0043004315F
:10C240002246541E52B10B68B3F1FF3FF6D0036093
:10C250000D4BD3F80034002BFAD0EFE70A4B002146
:10C26000C3F80415084BD3F80034002BFAD010465D
:10C270005DF8044B70471022104670471022FBE710
:10C280000922F9E70922F7E700E00140094B1B7892
:10C2900013F0040F02D00378122B00D07047064B26
:10C2A0001A68064B5A60034B1A786FF382021A70B1
:10C2B000F4E700BF6837002058370020043700201B
:10C2C00010B582B001900C46000C012810D12368F3
:10C2D000094A136009490B7843F001030B705B08AE
:10C2E00083F0010303F001031371002002B010BDBD
:10C2F0007846FDF7A9FCEAE75837002068370020A8
:10C3000010B582B001900C46000C02280FD12268B3
:10C31000094B1A6022791A71002058719871D871EE
:10C32000064A137843F00203137002B010BD78463A
:10C33000FDF78AFCEBE700BF50370020683700208C
:10C3400010B582B001900C46000C032806D1054BB5
:10C35000186820601B79237102B010BD7846FDF784
:10C3600073FCF4E75837002010B582B001900C46FA
:10C37000000C03280CD1084B2068186022791A7130
:10C38000064A137843F001031370002002B010BD79
:10C390007846FDF759FCEEE7583700206837002053
:10C3A00010B582B001900C46000C042805D1054B55
:10C3B00003CB2060616002B010BD7846FDF744FCFD
:10C3C000F5E700BF5037002010B582B001900C4651
:10C3D000000C04280BD1084B2068616803C3074A8E
:10C3E000137843F002031370002002B010BD7846AA
:10C3F000FDF72AFCEFE700BF503700206837002028
:10C4000000B583B00190000C032806D1054B002233
:10C410001A601A7103B05DF804FB7846FDF714FC4E
:10C42000F4E700BF5837002000B583B00190000C3E
:10C43000042806D1054B00221A605A6003B05DF84B
:10C4400004FB7846FDF700FCF4E700BF50370020FE
:10C4500010B582B00024ADF800400123ADF80230E1
:10C46000009805F082FEADF804400223ADF80630D6
:10C47000019805F07AFE02B010BD0000154B1B7844
:10C4800013F0040F25D100B585B0134B5B6803F59D
:10C4900000530193B3F1807F02D905B05DF804FB2E
:10C4A0000E4B1B788DF808300A4A137843F00403CA
:10C4B00013700023ADF80C300323ADF80E3001A942
:10C4C000039805F021FE0028E7D07846FDF7BCFB75
:10C4D000E3E7704768370020043700206937002001
:10C4E00000B585B0002202920F4B996801911B7B29
:10C4F0008DF808300D490B780133DBB20B708DF8E5
:10C500000B30ADF80C200423ADF80E300DEB030119
:10C51000039805F0F9FD10B905B05DF804FB784605
:10C52000FDF792FBF8E700BF0437002069370020D1
:10C5300000B585B00F4B9A6801921A7B8DF80820E0
:10C540001B8AADF809300C4B1B788DF80B3000239B
:10C55000ADF80C300423ADF80E300DEB0301039859
:10C5600005F0D2FD10B905B05DF804FB7846FDF783
:10C570006BFBF8E7043700206937002000B58DB069
:10C580000B4B1B7B012B0ED0094A926804928DF84D
:10C590000830039002238DF8043001A8FEF74AFF0B
:10C5A0000DB05DF804FB024A9268013A0492EEE78E
:10C5B0000437002008B51B481B4B036000F05CFEED
:10C5C0001A4B1B7813F0200F25D103F00303032B24
:10C5D00014D1174B1968174A916019791173B3F880
:10C5E00005001082DB79144A1370144A12799342C1
:10C5F00012D089B90F4B00221A6007E00D4B0022C0
:10C600001A609A601A731A82FFF76AFF094B1A6858
:10C610005A60FFF733FF08BD084B1A68054B1A60D4
:10C62000F4E700BF443700208DC2020068370020C5
:10C630005037002004370020693700205837002089
:10C6400010B582B00024ADF800400323ADF80230ED
:10C65000009805F08AFDADF804400423ADF80630DB
:10C66000019805F082FD074B1C605C609C60DC60FB
:10C670001C61054B1A7864F345121A70FFF7FEFE31
:10C6800002B010BD043700206837002038B50C4DCB
:10C6900000242C606C60AC60EC602C6101F0B6F89A
:10C6A000084B5860084A9A60084ADA601C615C616D
:10C6B000074B1A7864F3C3021A706C6038BD00BF70
:10C6C00004370020E036002019C8020000879303D9
:10C6D0006837002008B50C4B1B7813F0100F00D002
:10C6E00008BD0A480A4B036000F0C6FDFFF762FF71
:10C6F000FFF7AEFE074801F021F8034A137843F034
:10C7000010031370ECE700BF68370020F8360020F4
:10C7100071C90200E036002010B501F019FE174B78
:10C720001B7B1BBB154B9B7B2BBB144B1A8A41F20B
:10C7300082639A4206D8124B1B7813F0080F05D07B
:10C74000012300E001231BB9082410E00023FAE7CD
:10C750000A4B01221A7300241C829A6801329A60E3
:10C76000FFF7BEFE2046FFF709FF00E0082401F0B6
:10C7700033FE204610BD0824F9E700BF043700202F
:10C780006837002010B501F0E3FD214B5B7BABB1B6
:10C790001F4B9B7B03BB1E4B1A8A41F282639A425A
:10C7A00006D81C4B1B7813F0080F05D0012300E0BE
:10C7B00001239BB1012302E00023FAE700231C467A
:10C7C0000BB3134B00225A731B7B4BB1012B0ED0C2
:10C7D0007846FDF739FA16E00023F0E70023EEE78C
:10C7E000FFF79AFF78B17846FDF72EFA0BE0084B79
:10C7F00000201860586018731882FFF7BFFEFFF71B
:10C800006FFEFFF73BFE01F0E7FD204610BD00BFC5
:10C81000043700206837002008B52C4B1B7BDBB1A8
:10C82000012B2ED07846FDF70FFA284A138A0133E0
:10C830009BB21382264AA2FB03121209C2EB021218
:10C8400051005B1A9BB2002B3DD0204B5B8A13B189
:10C85000013B1E4A538208BD1C4B1A8A41F2826377
:10C860009A4206D81B4B1B7813F0080F07D0012300
:10C8700000E00123002BD8D0FFF784FFE5E7002379
:10C88000F8E7124B1B8A41F28262934206D8114AA2
:10C89000127812F0080F14D0012200E00122002AC1
:10C8A000C3D042F2B012934202D9084B01225A730C
:10C8B000FFF768FF0028C8D1044B5B7B012BB4D184
:10C8C000C3E70022EBE7FFF733FEBEE704370020A3
:10C8D000898888886837002010B5244B1B7B002B83
:10C8E00035D10446214B5B8A2BBB1AB91F4B9B6881
:10C8F0008B4205D3FAB11D4B9B6801338B421AD290
:10C900001A4B9B682A338B4223D3184B9B7B03BB68
:10C91000164B996000221A605A601A8242F606513C
:10C9200059825A731A73FFF7DBFDFFF7A7FD204604
:10C93000FFF724FE0DE062B10C4B9B6801338B4284
:10C9400007D10A4B01225A73FFF71CFF01E0012BAC
:10C9500000D010BD002AFCD1044B9B688B42F8D15B
:10C96000024B01225A73FFF70DFFF2E70437002054
:10C970000378042B00D0704743681B78002BFAD053
:10C9800010B58468027E437E012A14BF0022012272
:10C99000416904F11000FFF79FFF10BD10B5184B5F
:10C9A0001A685B689A4226D20446154B1B7B012B02
:10C9B00014D0144B9A4213D2114B1A685B68403B57
:10C9C0009A4215D2EFF3108172B60D4A1368581CC3
:10C9D0001060236001B962B6002010BD0A4BE9E780
:10C9E000074B01225A73FFF7CDFE0028EAD1E3E797
:10C9F000FFF744FDE6E7FFF741FD0F20EDE700BF3D
:10CA000004370020FFFF7F0000E0FF0008B538B1C9
:10CA10000D4B01229A730D4A13680133136008BD50
:10CA20000A4B1B685BB1094A1368013B1360002B7A
:10CA3000F5D1054B00229A73FFF7A4FEEFE7784685
:10CA4000FDF702F9EFE700BF04370020D4360020DD
:10CA500000B58DB0ADF808008DF8102003910323C8
:10CA60008DF8043001A8FEF7E5FC0DB05DF804FB7D
:10CA7000014B9868704700BF04370020054B1B7BB3
:10CA8000012B02D0034B98687047024B986801381D
:10CA9000704700BF04370020044B9B68584010F0DB
:10CAA000010F00D0013B1846704700BF043700203B
:10CAB000014B187B704700BF043700202DE9F0417F
:10CAC000002722E02449BC2303FB04F3CA5A0132A5
:10CAD000CA520221404602F020FC013602214046A3
